{
  "contractName": "DaliahMarketplace",
  "abi": [
    {
      "inputs": [
        {
          "internalType": "contract Farmer",
          "name": "_farmer",
          "type": "address"
        },
        {
          "internalType": "contract Distributor",
          "name": "_dist",
          "type": "address"
        },
        {
          "internalType": "contract Escrow",
          "name": "_escrow",
          "type": "address"
        }
      ],
      "stateMutability": "nonpayable",
      "type": "constructor"
    },
    {
      "anonymous": false,
      "inputs": [
        {
          "indexed": true,
          "internalType": "uint256",
          "name": "_orderID",
          "type": "uint256"
        },
        {
          "indexed": false,
          "internalType": "address",
          "name": "carrierAddress",
          "type": "address"
        }
      ],
      "name": "carrierInvitation",
      "type": "event"
    },
    {
      "anonymous": false,
      "inputs": [
        {
          "indexed": true,
          "internalType": "uint256",
          "name": "_orderID",
          "type": "uint256"
        },
        {
          "indexed": false,
          "internalType": "address",
          "name": "carrierAddress",
          "type": "address"
        }
      ],
      "name": "carrierInvitationAccepted",
      "type": "event"
    },
    {
      "anonymous": false,
      "inputs": [
        {
          "indexed": true,
          "internalType": "uint256",
          "name": "_orderID",
          "type": "uint256"
        },
        {
          "indexed": false,
          "internalType": "string",
          "name": "_caseDesc",
          "type": "string"
        },
        {
          "indexed": false,
          "internalType": "string",
          "name": "_imageHash",
          "type": "string"
        }
      ],
      "name": "damageCase",
      "type": "event"
    },
    {
      "anonymous": false,
      "inputs": [
        {
          "indexed": true,
          "internalType": "uint256",
          "name": "_orderID",
          "type": "uint256"
        }
      ],
      "name": "newOrderEvent",
      "type": "event"
    },
    {
      "anonymous": false,
      "inputs": [
        {
          "indexed": true,
          "internalType": "uint256",
          "name": "_orderID",
          "type": "uint256"
        },
        {
          "indexed": false,
          "internalType": "uint256",
          "name": "orderStatus",
          "type": "uint256"
        },
        {
          "indexed": false,
          "internalType": "string",
          "name": "notes",
          "type": "string"
        }
      ],
      "name": "orderAcceptedEvent",
      "type": "event"
    },
    {
      "anonymous": false,
      "inputs": [
        {
          "indexed": true,
          "internalType": "uint256",
          "name": "_orderID",
          "type": "uint256"
        }
      ],
      "name": "orderCompetedEvent",
      "type": "event"
    },
    {
      "anonymous": false,
      "inputs": [
        {
          "indexed": true,
          "internalType": "uint256",
          "name": "_orderID",
          "type": "uint256"
        },
        {
          "indexed": false,
          "internalType": "string",
          "name": "_orderStatus",
          "type": "string"
        }
      ],
      "name": "orderShippingStatusUpdated",
      "type": "event"
    },
    {
      "inputs": [],
      "name": "dist",
      "outputs": [
        {
          "internalType": "contract Distributor",
          "name": "",
          "type": "address"
        }
      ],
      "stateMutability": "view",
      "type": "function",
      "constant": true
    },
    {
      "inputs": [],
      "name": "escrow",
      "outputs": [
        {
          "internalType": "contract Escrow",
          "name": "",
          "type": "address"
        }
      ],
      "stateMutability": "view",
      "type": "function",
      "constant": true
    },
    {
      "inputs": [],
      "name": "farmer",
      "outputs": [
        {
          "internalType": "contract Farmer",
          "name": "",
          "type": "address"
        }
      ],
      "stateMutability": "view",
      "type": "function",
      "constant": true
    },
    {
      "inputs": [],
      "name": "orderCounter",
      "outputs": [
        {
          "internalType": "uint256",
          "name": "",
          "type": "uint256"
        }
      ],
      "stateMutability": "view",
      "type": "function",
      "constant": true
    },
    {
      "inputs": [
        {
          "internalType": "uint256",
          "name": "",
          "type": "uint256"
        }
      ],
      "name": "ordersMapping",
      "outputs": [
        {
          "internalType": "uint256",
          "name": "productID",
          "type": "uint256"
        },
        {
          "internalType": "uint256",
          "name": "quantity",
          "type": "uint256"
        },
        {
          "internalType": "uint256",
          "name": "totalPrice",
          "type": "uint256"
        },
        {
          "internalType": "address",
          "name": "distributorAddress",
          "type": "address"
        },
        {
          "internalType": "address",
          "name": "farmerAddress",
          "type": "address"
        },
        {
          "internalType": "address",
          "name": "carrierAddress",
          "type": "address"
        },
        {
          "components": [
            {
              "internalType": "uint256",
              "name": "orderStatus",
              "type": "uint256"
            },
            {
              "internalType": "string",
              "name": "carrierName",
              "type": "string"
            },
            {
              "internalType": "uint256",
              "name": "carPlateNumber",
              "type": "uint256"
            },
            {
              "internalType": "uint256",
              "name": "vehicleTemp",
              "type": "uint256"
            },
            {
              "internalType": "string",
              "name": "vehicleTempImage",
              "type": "string"
            },
            {
              "internalType": "uint256",
              "name": "pickupDate",
              "type": "uint256"
            },
            {
              "internalType": "string",
              "name": "pickupDateImage",
              "type": "string"
            },
            {
              "internalType": "uint256",
              "name": "deliveredAt",
              "type": "uint256"
            },
            {
              "internalType": "string",
              "name": "deliveredAtImage",
              "type": "string"
            }
          ],
          "internalType": "struct DaliahMarketplace.Carrier",
          "name": "carrier",
          "type": "tuple"
        },
        {
          "internalType": "bool",
          "name": "isCompleted",
          "type": "bool"
        },
        {
          "internalType": "uint256",
          "name": "isAccepted",
          "type": "uint256"
        },
        {
          "internalType": "bool",
          "name": "isCancelled",
          "type": "bool"
        },
        {
          "internalType": "bool",
          "name": "isRefundApproved",
          "type": "bool"
        },
        {
          "internalType": "bool",
          "name": "isRefundRequested",
          "type": "bool"
        }
      ],
      "stateMutability": "view",
      "type": "function",
      "constant": true
    },
    {
      "inputs": [
        {
          "internalType": "uint256",
          "name": "_orderID",
          "type": "uint256"
        }
      ],
      "name": "getDamages",
      "outputs": [
        {
          "components": [
            {
              "internalType": "string",
              "name": "_imageHash",
              "type": "string"
            },
            {
              "internalType": "string",
              "name": "caseDesc",
              "type": "string"
            }
          ],
          "internalType": "struct DaliahMarketplace.DamageCase[]",
          "name": "",
          "type": "tuple[]"
        }
      ],
      "stateMutability": "view",
      "type": "function",
      "constant": true
    },
    {
      "inputs": [
        {
          "internalType": "uint256",
          "name": "_productID",
          "type": "uint256"
        },
        {
          "internalType": "uint256",
          "name": "_quantity",
          "type": "uint256"
        },
        {
          "internalType": "address",
          "name": "_farmerAddress",
          "type": "address"
        }
      ],
      "name": "placeOrder",
      "outputs": [],
      "stateMutability": "nonpayable",
      "type": "function"
    },
    {
      "inputs": [
        {
          "internalType": "uint256",
          "name": "_orderID",
          "type": "uint256"
        }
      ],
      "name": "getOrderPaymentDeatils",
      "outputs": [
        {
          "internalType": "address payable",
          "name": "",
          "type": "address"
        },
        {
          "internalType": "address payable",
          "name": "",
          "type": "address"
        },
        {
          "internalType": "uint256",
          "name": "",
          "type": "uint256"
        },
        {
          "internalType": "string",
          "name": "",
          "type": "string"
        },
        {
          "internalType": "bool",
          "name": "",
          "type": "bool"
        },
        {
          "internalType": "bool",
          "name": "",
          "type": "bool"
        }
      ],
      "stateMutability": "view",
      "type": "function",
      "constant": true
    },
    {
      "inputs": [
        {
          "internalType": "uint256",
          "name": "_harvestID",
          "type": "uint256"
        },
        {
          "internalType": "uint256",
          "name": "_qty",
          "type": "uint256"
        }
      ],
      "name": "getOrderTotalPrice",
      "outputs": [
        {
          "internalType": "uint256",
          "name": "",
          "type": "uint256"
        }
      ],
      "stateMutability": "view",
      "type": "function",
      "constant": true
    },
    {
      "inputs": [
        {
          "internalType": "uint256",
          "name": "_orderID",
          "type": "uint256"
        }
      ],
      "name": "requestRefund",
      "outputs": [],
      "stateMutability": "nonpayable",
      "type": "function"
    },
    {
      "inputs": [
        {
          "internalType": "uint256",
          "name": "_orderID",
          "type": "uint256"
        }
      ],
      "name": "approveRefund",
      "outputs": [],
      "stateMutability": "nonpayable",
      "type": "function"
    },
    {
      "inputs": [
        {
          "internalType": "uint256",
          "name": "_orderID",
          "type": "uint256"
        }
      ],
      "name": "withdrawRefund",
      "outputs": [],
      "stateMutability": "nonpayable",
      "type": "function"
    },
    {
      "inputs": [
        {
          "internalType": "uint256",
          "name": "_orderID",
          "type": "uint256"
        }
      ],
      "name": "cancelOrder",
      "outputs": [],
      "stateMutability": "nonpayable",
      "type": "function"
    },
    {
      "inputs": [
        {
          "internalType": "uint256",
          "name": "_orderID",
          "type": "uint256"
        }
      ],
      "name": "setOrderCompleted",
      "outputs": [],
      "stateMutability": "nonpayable",
      "type": "function"
    },
    {
      "inputs": [
        {
          "internalType": "uint256",
          "name": "_orderID",
          "type": "uint256"
        }
      ],
      "name": "withdrawMoney",
      "outputs": [],
      "stateMutability": "nonpayable",
      "type": "function"
    },
    {
      "inputs": [
        {
          "internalType": "uint256",
          "name": "_orderID",
          "type": "uint256"
        },
        {
          "internalType": "uint256",
          "name": "status",
          "type": "uint256"
        },
        {
          "internalType": "string",
          "name": "reason",
          "type": "string"
        }
      ],
      "name": "changeOrderStatus",
      "outputs": [],
      "stateMutability": "nonpayable",
      "type": "function"
    },
    {
      "inputs": [
        {
          "internalType": "uint256",
          "name": "_orderID",
          "type": "uint256"
        },
        {
          "internalType": "address",
          "name": "_carrierAdress",
          "type": "address"
        }
      ],
      "name": "inviteCarrier",
      "outputs": [],
      "stateMutability": "nonpayable",
      "type": "function"
    },
    {
      "inputs": [
        {
          "internalType": "uint256",
          "name": "_orderID",
          "type": "uint256"
        },
        {
          "internalType": "string",
          "name": "_carrierName",
          "type": "string"
        },
        {
          "internalType": "uint256",
          "name": "_carPlateNumber",
          "type": "uint256"
        }
      ],
      "name": "acceptCarrierInvitation",
      "outputs": [],
      "stateMutability": "nonpayable",
      "type": "function"
    },
    {
      "inputs": [
        {
          "internalType": "uint256",
          "name": "_orderID",
          "type": "uint256"
        },
        {
          "internalType": "string",
          "name": "_imageHash",
          "type": "string"
        }
      ],
      "name": "updateOrderPickupTime",
      "outputs": [],
      "stateMutability": "nonpayable",
      "type": "function"
    },
    {
      "inputs": [
        {
          "internalType": "uint256",
          "name": "_orderID",
          "type": "uint256"
        },
        {
          "internalType": "uint256",
          "name": "_temp",
          "type": "uint256"
        },
        {
          "internalType": "string",
          "name": "_imageHash",
          "type": "string"
        }
      ],
      "name": "setVehicleTemp",
      "outputs": [],
      "stateMutability": "nonpayable",
      "type": "function"
    },
    {
      "inputs": [
        {
          "internalType": "uint256",
          "name": "_orderID",
          "type": "uint256"
        },
        {
          "internalType": "string",
          "name": "_imageHash",
          "type": "string"
        }
      ],
      "name": "markOrderAsDelivered",
      "outputs": [],
      "stateMutability": "nonpayable",
      "type": "function"
    },
    {
      "inputs": [],
      "name": "noOrders",
      "outputs": [
        {
          "internalType": "uint256",
          "name": "",
          "type": "uint256"
        }
      ],
      "stateMutability": "view",
      "type": "function",
      "constant": true
    },
    {
      "inputs": [
        {
          "internalType": "uint256",
          "name": "_orderID",
          "type": "uint256"
        },
        {
          "internalType": "string",
          "name": "_caseDesc",
          "type": "string"
        },
        {
          "internalType": "string",
          "name": "_imageHash",
          "type": "string"
        }
      ],
      "name": "reportDamages",
      "outputs": [],
      "stateMutability": "nonpayable",
      "type": "function"
    }
  ],
  "bytecode": "0x60806040523480156200001157600080fd5b506040516200467638038062004676833981810160405281019062000037919062000147565b826000806101000a81548173ffffffffffffffffffffffffffffffffffffffff021916908373ffffffffffffffffffffffffffffffffffffffff16021790555081600160006101000a81548173ffffffffffffffffffffffffffffffffffffffff021916908373ffffffffffffffffffffffffffffffffffffffff16021790555080600260006101000a81548173ffffffffffffffffffffffffffffffffffffffff021916908373ffffffffffffffffffffffffffffffffffffffff1602179055505050506200025b565b60008151905062000113816200020d565b92915050565b6000815190506200012a8162000227565b92915050565b600081519050620001418162000241565b92915050565b6000806000606084860312156200015d57600080fd5b60006200016d8682870162000130565b9350506020620001808682870162000102565b9250506040620001938682870162000119565b9150509250925092565b6000620001aa82620001ed565b9050919050565b6000620001be826200019d565b9050919050565b6000620001d2826200019d565b9050919050565b6000620001e6826200019d565b9050919050565b600073ffffffffffffffffffffffffffffffffffffffff82169050919050565b6200021881620001b1565b81146200022457600080fd5b50565b6200023281620001c5565b81146200023e57600080fd5b50565b6200024c81620001d9565b81146200025857600080fd5b50565b61440b806200026b6000396000f3fe608060405234801561001057600080fd5b506004361061014d5760003560e01c80639d153495116100c3578063d811fcf01161007c578063d811fcf014610394578063e2fdcc17146103b2578063e4098f2d146103d0578063e4718aab146103ec578063e9e50e5b14610408578063ebd4f77d146104245761014d565b80639d153495146102e6578063a2d57df114610302578063a4b2409e14610320578063b5836c211461033c578063b789bf521461035a578063ca05b619146103785761014d565b806359191b3f1161011557806359191b3f146101f25780635fe6bdc91461022d5780636286e5191461024957806379290c7f1461027e578063902df5ae146102ae57806399e8d128146102ca5761014d565b8063348a71a61461015257806335e4365f1461016e5780634aebdf101461018a578063514fcac7146101ba57806354876921146101d6575b600080fd5b61016c60048036038101906101679190612a8b565b610440565b005b61018860048036038101906101839190612c66565b6105a3565b005b6101a4600480360381019061019f9190612c2a565b61087b565b6040516101b19190613709565b60405180910390f35b6101d460048036038101906101cf9190612a8b565b610a4b565b005b6101f060048036038101906101eb9190612a8b565b610c65565b005b61020c60048036038101906102079190612a8b565b610cf5565b6040516102249c9b9a99989796959493929190613799565b60405180910390f35b61024760048036038101906102429190612cb5565b61106e565b005b610263600480360381019061025e9190612a8b565b6111bf565b604051610275969594939291906132fc565b60405180910390f35b61029860048036038101906102939190612a8b565b6116a7565b6040516102a59190613364565b60405180910390f35b6102c860048036038101906102c39190612a8b565b611840565b005b6102e460048036038101906102df9190612af0565b611a8d565b005b61030060048036038101906102fb9190612a8b565b611c32565b005b61030a611cc2565b6040516103179190613386565b60405180910390f35b61033a60048036038101906103359190612a8b565b611ce8565b005b610344611e18565b6040516103519190613709565b60405180910390f35b610362611e22565b60405161036f9190613709565b60405180910390f35b610392600480360381019061038d9190612af0565b611e28565b005b61039c611fcd565b6040516103a991906133bc565b60405180910390f35b6103ba611ff1565b6040516103c791906133a1565b60405180910390f35b6103ea60048036038101906103e59190612b44565b612017565b005b61040660048036038101906104019190612cb5565b6120e6565b005b610422600480360381019061041d9190612bc3565b61223d565b005b61043e60048036038101906104399190612ab4565b61241b565b005b6003600082815260200190815260200160002060040160009054906101000a900473ffffffffffffffffffffffffffffffffffffffff1673ffffffffffffffffffffffffffffffffffffffff163373ffffffffffffffffffffffffffffffffffffffff16146104e4576040517f08c379a00000000000000000000000000000000000000000000000000000000081526004016104db90613629565b60405180910390fd5b600260009054906101000a900473ffffffffffffffffffffffffffffffffffffffff1673ffffffffffffffffffffffffffffffffffffffff1663348a71a6826040518263ffffffff1660e01b815260040161053f9190613709565b600060405180830381600087803b15801561055957600080fd5b505af115801561056d573d6000803e3d6000fd5b5050505060016003600083815260200190815260200160002060110160016101000a81548160ff02191690831515021790555050565b600160009054906101000a900473ffffffffffffffffffffffffffffffffffffffff1673ffffffffffffffffffffffffffffffffffffffff166316ae51616040518163ffffffff1660e01b815260040160206040518083038186803b15801561060b57600080fd5b505afa15801561061f573d6000803e3d6000fd5b505050506040513d601f19601f8201168201806040525081019061064391906129b7565b15610683576040517f08c379a000000000000000000000000000000000000000000000000000000000815260040161067a90613589565b60405180910390fd5b600260009054906101000a900473ffffffffffffffffffffffffffffffffffffffff1673ffffffffffffffffffffffffffffffffffffffff1663e4cca4b060045433846106d0888861087b565b6040518563ffffffff1660e01b81526004016106ef9493929190613724565b600060405180830381600087803b15801561070957600080fd5b505af115801561071d573d6000803e3d6000fd5b5050505082600360006004548152602001908152602001600020600001819055508160036000600454815260200190815260200160002060010181905550610765838361087b565b600360006004548152602001908152602001600020600201819055503360036000600454815260200190815260200160002060030160006101000a81548173ffffffffffffffffffffffffffffffffffffffff021916908373ffffffffffffffffffffffffffffffffffffffff1602179055508060036000600454815260200190815260200160002060040160006101000a81548173ffffffffffffffffffffffffffffffffffffffff021916908373ffffffffffffffffffffffffffffffffffffffff1602179055506004547facd7be4ba3cd13daef42e2a9427864d9a9e81dd09fe25d5a46bacbc7bd095d0960405160405180910390a26004600081548092919061087190613b00565b9190505550505050565b60008160008054906101000a900473ffffffffffffffffffffffffffffffffffffffff1673ffffffffffffffffffffffffffffffffffffffff166301c6f93c856040518263ffffffff1660e01b81526004016108d79190613709565b60006040518083038186803b1580156108ef57600080fd5b505afa158015610903573d6000803e3d6000fd5b505050506040513d6000823e3d601f19601f8201168201806040525081019061092c9190612a4a565b61010001511115610972576040517f08c379a0000000000000000000000000000000000000000000000000000000008152600401610969906136e9565b60405180910390fd5b670de0b6b3a76400008260008054906101000a900473ffffffffffffffffffffffffffffffffffffffff1673ffffffffffffffffffffffffffffffffffffffff166301c6f93c866040518263ffffffff1660e01b81526004016109d59190613709565b60006040518083038186803b1580156109ed57600080fd5b505afa158015610a01573d6000803e3d6000fd5b505050506040513d6000823e3d601f19601f82011682018060405250810190610a2a9190612a4a565b6101200151610a399190613916565b610a439190613916565b905092915050565b3373ffffffffffffffffffffffffffffffffffffffff166003600083815260200190815260200160002060030160009054906101000a900473ffffffffffffffffffffffffffffffffffffffff1673ffffffffffffffffffffffffffffffffffffffff1614610aef576040517f08c379a0000000000000000000000000000000000000000000000000000000008152600401610ae690613429565b60405180910390fd5b6000600360008381526020019081526020016000206010015414610b48576040517f08c379a0000000000000000000000000000000000000000000000000000000008152600401610b3f90613689565b60405180910390fd5b60016003600083815260200190815260200160002060110160006101000a81548160ff02191690831515021790555060016003600083815260200190815260200160002060110160016101000a81548160ff02191690831515021790555060016003600083815260200190815260200160002060110160026101000a81548160ff021916908315150217905550600260009054906101000a900473ffffffffffffffffffffffffffffffffffffffff1673ffffffffffffffffffffffffffffffffffffffff16631158ff89826040518263ffffffff1660e01b8152600401610c309190613709565b600060405180830381600087803b158015610c4a57600080fd5b505af1158015610c5e573d6000803e3d6000fd5b5050505050565b600260009054906101000a900473ffffffffffffffffffffffffffffffffffffffff1673ffffffffffffffffffffffffffffffffffffffff16632e1a7d4d826040518263ffffffff1660e01b8152600401610cc09190613709565b600060405180830381600087803b158015610cda57600080fd5b505af1158015610cee573d6000803e3d6000fd5b5050505050565b60036020528060005260406000206000915090508060000154908060010154908060020154908060030160009054906101000a900473ffffffffffffffffffffffffffffffffffffffff16908060040160009054906101000a900473ffffffffffffffffffffffffffffffffffffffff16908060050160009054906101000a900473ffffffffffffffffffffffffffffffffffffffff1690806006016040518061012001604052908160008201548152602001600182018054610db790613a9d565b80601f0160208091040260200160405190810160405280929190818152602001828054610de390613a9d565b8015610e305780601f10610e0557610100808354040283529160200191610e30565b820191906000526020600020905b815481529060010190602001808311610e1357829003601f168201915b505050505081526020016002820154815260200160038201548152602001600482018054610e5d90613a9d565b80601f0160208091040260200160405190810160405280929190818152602001828054610e8990613a9d565b8015610ed65780601f10610eab57610100808354040283529160200191610ed6565b820191906000526020600020905b815481529060010190602001808311610eb957829003601f168201915b5050505050815260200160058201548152602001600682018054610ef990613a9d565b80601f0160208091040260200160405190810160405280929190818152602001828054610f2590613a9d565b8015610f725780601f10610f4757610100808354040283529160200191610f72565b820191906000526020600020905b815481529060010190602001808311610f5557829003601f168201915b5050505050815260200160078201548152602001600882018054610f9590613a9d565b80601f0160208091040260200160405190810160405280929190818152602001828054610fc190613a9d565b801561100e5780601f10610fe35761010080835404028352916020019161100e565b820191906000526020600020905b815481529060010190602001808311610ff157829003601f168201915b5050505050815250509080600f0160009054906101000a900460ff16908060100154908060110160009054906101000a900460ff16908060110160019054906101000a900460ff16908060110160029054906101000a900460ff1690508c565b6003600084815260200190815260200160002060050160009054906101000a900473ffffffffffffffffffffffffffffffffffffffff1673ffffffffffffffffffffffffffffffffffffffff163373ffffffffffffffffffffffffffffffffffffffff1614611112576040517f08c379a0000000000000000000000000000000000000000000000000000000008152600401611109906136a9565b60405180910390fd5b600060036000858152602001908152602001600020600601600701541461116e576040517f08c379a0000000000000000000000000000000000000000000000000000000008152600401611165906136c9565b60405180910390fd5b816003600085815260200190815260200160002060060160030181905550806003600085815260200190815260200160002060060160040190805190602001906111b99291906125f5565b50505050565b60008060006060600080600260009054906101000a900473ffffffffffffffffffffffffffffffffffffffff1673ffffffffffffffffffffffffffffffffffffffff16633280a836886040518263ffffffff1660e01b81526004016112249190613709565b60c06040518083038186803b15801561123c57600080fd5b505afa158015611250573d6000803e3d6000fd5b505050506040513d601f19601f820116820180604052508101906112749190612a21565b60000151600260009054906101000a900473ffffffffffffffffffffffffffffffffffffffff1673ffffffffffffffffffffffffffffffffffffffff16633280a836896040518263ffffffff1660e01b81526004016112d39190613709565b60c06040518083038186803b1580156112eb57600080fd5b505afa1580156112ff573d6000803e3d6000fd5b505050506040513d601f19601f820116820180604052508101906113239190612a21565b60200151600260009054906101000a900473ffffffffffffffffffffffffffffffffffffffff1673ffffffffffffffffffffffffffffffffffffffff16633280a8368a6040518263ffffffff1660e01b81526004016113829190613709565b60c06040518083038186803b15801561139a57600080fd5b505afa1580156113ae573d6000803e3d6000fd5b505050506040513d601f19601f820116820180604052508101906113d29190612a21565b60400151600260009054906101000a900473ffffffffffffffffffffffffffffffffffffffff1673ffffffffffffffffffffffffffffffffffffffff166373a5da4c600260009054906101000a900473ffffffffffffffffffffffffffffffffffffffff1673ffffffffffffffffffffffffffffffffffffffff16633280a8368d6040518263ffffffff1660e01b815260040161146f9190613709565b60c06040518083038186803b15801561148757600080fd5b505afa15801561149b573d6000803e3d6000fd5b505050506040513d601f19601f820116820180604052508101906114bf9190612a21565b606001516040518263ffffffff1660e01b81526004016114df91906133d7565b60006040518083038186803b1580156114f757600080fd5b505afa15801561150b573d6000803e3d6000fd5b505050506040513d6000823e3d601f19601f8201168201806040525081019061153491906129e0565b600260009054906101000a900473ffffffffffffffffffffffffffffffffffffffff1673ffffffffffffffffffffffffffffffffffffffff16633280a8368c6040518263ffffffff1660e01b815260040161158f9190613709565b60c06040518083038186803b1580156115a757600080fd5b505afa1580156115bb573d6000803e3d6000fd5b505050506040513d601f19601f820116820180604052508101906115df9190612a21565b60800151600260009054906101000a900473ffffffffffffffffffffffffffffffffffffffff1673ffffffffffffffffffffffffffffffffffffffff16633280a8368d6040518263ffffffff1660e01b815260040161163e9190613709565b60c06040518083038186803b15801561165657600080fd5b505afa15801561166a573d6000803e3d6000fd5b505050506040513d601f19601f8201168201806040525081019061168e9190612a21565b60a0015195509550955095509550955091939550919395565b606060036000838152602001908152602001600020601201805480602002602001604051908101604052809291908181526020016000905b82821015611835578382906000526020600020906002020160405180604001604052908160008201805461171290613a9d565b80601f016020809104026020016040519081016040528092919081815260200182805461173e90613a9d565b801561178b5780601f106117605761010080835404028352916020019161178b565b820191906000526020600020905b81548152906001019060200180831161176e57829003601f168201915b505050505081526020016001820180546117a490613a9d565b80601f01602080910402602001604051908101604052809291908181526020018280546117d090613a9d565b801561181d5780601f106117f25761010080835404028352916020019161181d565b820191906000526020600020905b81548152906001019060200180831161180057829003601f168201915b505050505081525050815260200190600101906116df565b505050509050919050565b6003600082815260200190815260200160002060030160009054906101000a900473ffffffffffffffffffffffffffffffffffffffff1673ffffffffffffffffffffffffffffffffffffffff163373ffffffffffffffffffffffffffffffffffffffff16146118e4576040517f08c379a00000000000000000000000000000000000000000000000000000000081526004016118db90613609565b60405180910390fd5b600160036000838152602001908152602001600020601001541461193d576040517f08c379a000000000000000000000000000000000000000000000000000000000815260040161193490613549565b60405180910390fd5b6003600082815260200190815260200160002060110160009054906101000a900460ff16156119a1576040517f08c379a0000000000000000000000000000000000000000000000000000000008152600401611998906134a9565b60405180910390fd5b600260009054906101000a900473ffffffffffffffffffffffffffffffffffffffff1673ffffffffffffffffffffffffffffffffffffffff16637633b35e826040518263ffffffff1660e01b81526004016119fc9190613709565b600060405180830381600087803b158015611a1657600080fd5b505af1158015611a2a573d6000803e3d6000fd5b50505050600160036000838152602001908152602001600020600f0160006101000a81548160ff021916908315150217905550807f06046719ceed3ea8f160401f9d40e3099fc5f5bf3711f0fcfc0bf35da465a90560405160405180910390a250565b6003600083815260200190815260200160002060050160009054906101000a900473ffffffffffffffffffffffffffffffffffffffff1673ffffffffffffffffffffffffffffffffffffffff163373ffffffffffffffffffffffffffffffffffffffff1614611b31576040517f08c379a0000000000000000000000000000000000000000000000000000000008152600401611b28906136a9565b60405180910390fd5b6000600360008481526020019081526020016000206006016007015414611b8d576040517f08c379a0000000000000000000000000000000000000000000000000000000008152600401611b84906136c9565b60405180910390fd5b42600360008481526020019081526020016000206006016007018190555080600360008481526020019081526020016000206006016008019080519060200190611bd89291906125f5565b5060026003600084815260200190815260200160002060060160000181905550817f1cf9f1eda2b80febbda03a9b10915a7b6eb57029e40b4290d52e41dfef8f9594604051611c26906135a9565b60405180910390a25050565b600260009054906101000a900473ffffffffffffffffffffffffffffffffffffffff1673ffffffffffffffffffffffffffffffffffffffff1663278ecde1826040518263ffffffff1660e01b8152600401611c8d9190613709565b600060405180830381600087803b158015611ca757600080fd5b505af1158015611cbb573d6000803e3d6000fd5b5050505050565b600160009054906101000a900473ffffffffffffffffffffffffffffffffffffffff1681565b3373ffffffffffffffffffffffffffffffffffffffff166003600083815260200190815260200160002060030160009054906101000a900473ffffffffffffffffffffffffffffffffffffffff1673ffffffffffffffffffffffffffffffffffffffff1614611d8c576040517f08c379a0000000000000000000000000000000000000000000000000000000008152600401611d83906135c9565b60405180910390fd5b600060036000838152602001908152602001600020601001541415611de6576040517f08c379a0000000000000000000000000000000000000000000000000000000008152600401611ddd90613449565b60405180910390fd5b60016003600083815260200190815260200160002060110160026101000a81548160ff02191690831515021790555050565b6000600454905090565b60045481565b6003600083815260200190815260200160002060050160009054906101000a900473ffffffffffffffffffffffffffffffffffffffff1673ffffffffffffffffffffffffffffffffffffffff163373ffffffffffffffffffffffffffffffffffffffff1614611ecc576040517f08c379a0000000000000000000000000000000000000000000000000000000008152600401611ec390613529565b60405180910390fd5b6000600360008481526020019081526020016000206006016005015414611f28576040517f08c379a0000000000000000000000000000000000000000000000000000000008152600401611f1f90613489565b60405180910390fd5b42600360008481526020019081526020016000206006016005018190555080600360008481526020019081526020016000206006016006019080519060200190611f739291906125f5565b5060016003600084815260200190815260200160002060060160000181905550817f1cf9f1eda2b80febbda03a9b10915a7b6eb57029e40b4290d52e41dfef8f9594604051611fc1906134e9565b60405180910390a25050565b60008054906101000a900473ffffffffffffffffffffffffffffffffffffffff1681565b600260009054906101000a900473ffffffffffffffffffffffffffffffffffffffff1681565b60036000848152602001908152602001600020601201604051806040016040528084815260200183815250908060018154018082558091505060019003906000526020600020906002020160009091909190915060008201518160000190805190602001906120879291906125f5565b5060208201518160010190805190602001906120a49291906125f5565b505050827fb271189d81f7018c19210f933e659f7f42edfb4744fa772854fa6b40d8e86bfc83836040516120d99291906133f2565b60405180910390a2505050565b6003600084815260200190815260200160002060040160009054906101000a900473ffffffffffffffffffffffffffffffffffffffff1673ffffffffffffffffffffffffffffffffffffffff163373ffffffffffffffffffffffffffffffffffffffff161461218a576040517f08c379a000000000000000000000000000000000000000000000000000000000815260040161218190613509565b60405180910390fd5b60006003600085815260200190815260200160002060100154146121e3576040517f08c379a00000000000000000000000000000000000000000000000000000000081526004016121da90613469565b60405180910390fd5b816003600085815260200190815260200160002060100181905550827f6b004611adb03cf13c80da193e4e56270cf004d2b2e2c917179cb052ebb3edc88383604051612230929190613769565b60405180910390a2505050565b3373ffffffffffffffffffffffffffffffffffffffff166003600085815260200190815260200160002060050160009054906101000a900473ffffffffffffffffffffffffffffffffffffffff1673ffffffffffffffffffffffffffffffffffffffff16146122e1576040517f08c379a00000000000000000000000000000000000000000000000000000000081526004016122d8906135e9565b60405180910390fd5b600060036000858152602001908152602001600020600601600201541461233d576040517f08c379a000000000000000000000000000000000000000000000000000000000815260040161233490613569565b60405180910390fd5b8160036000858152602001908152602001600020600601600101908051906020019061236a9291906125f5565b5080600360008581526020019081526020016000206006016002018190555060006003600085815260200190815260200160002060060160000181905550827f1cf9f1eda2b80febbda03a9b10915a7b6eb57029e40b4290d52e41dfef8f95946040516123d690613669565b60405180910390a2827fed7e00b6ed9ffcee9ef06b756efc1ac14bbae57c2242ac129b8309656914a8393360405161240e91906132e1565b60405180910390a2505050565b6003600083815260200190815260200160002060030160009054906101000a900473ffffffffffffffffffffffffffffffffffffffff1673ffffffffffffffffffffffffffffffffffffffff163373ffffffffffffffffffffffffffffffffffffffff16146124bf576040517f08c379a00000000000000000000000000000000000000000000000000000000081526004016124b6906134c9565b60405180910390fd5b600073ffffffffffffffffffffffffffffffffffffffff166003600084815260200190815260200160002060050160009054906101000a900473ffffffffffffffffffffffffffffffffffffffff1673ffffffffffffffffffffffffffffffffffffffff1614612564576040517f08c379a000000000000000000000000000000000000000000000000000000000815260040161255b90613649565b60405180910390fd5b806003600084815260200190815260200160002060050160006101000a81548173ffffffffffffffffffffffffffffffffffffffff021916908373ffffffffffffffffffffffffffffffffffffffff160217905550817ffed8a35263911b7abda20f123cc98e2110002504743262de9d06d0cc27b9aeb0826040516125e991906132e1565b60405180910390a25050565b82805461260190613a9d565b90600052602060002090601f016020900481019282612623576000855561266a565b82601f1061263c57805160ff191683800117855561266a565b8280016001018555821561266a579182015b8281111561266957825182559160200191906001019061264e565b5b509050612677919061267b565b5090565b5b8082111561269457600081600090555060010161267c565b5090565b60006126ab6126a68461387f565b61385a565b9050828152602081018484840111156126c357600080fd5b6126ce848285613a5b565b509392505050565b60006126e96126e48461387f565b61385a565b90508281526020810184848401111561270157600080fd5b61270c848285613a6a565b509392505050565b60008135905061272381614369565b92915050565b60008151905061273881614369565b92915050565b60008151905061274d81614380565b92915050565b60008151905061276281614397565b92915050565b600081519050612777816143ae565b92915050565b600082601f83011261278e57600080fd5b813561279e848260208601612698565b91505092915050565b600082601f8301126127b857600080fd5b81516127c88482602086016126d6565b91505092915050565b600060c082840312156127e357600080fd5b6127ed60c061385a565b905060006127fd8482850161273e565b60008301525060206128118482850161273e565b6020830152506040612825848285016129a2565b604083015250606061283984828501612768565b606083015250608061284d84828501612753565b60808301525060a061286184828501612753565b60a08301525092915050565b6000610160828403121561288057600080fd5b61288b61016061385a565b9050600061289b84828501612729565b600083015250602082015167ffffffffffffffff8111156128bb57600080fd5b6128c7848285016127a7565b60208301525060406128db848285016129a2565b60408301525060606128ef848285016129a2565b6060830152506080612903848285016129a2565b60808301525060a0612917848285016129a2565b60a08301525060c061292b848285016129a2565b60c08301525060e061293f848285016129a2565b60e083015250610100612954848285016129a2565b6101008301525061012061296a848285016129a2565b61012083015250610140612980848285016129a2565b6101408301525092915050565b60008135905061299c816143be565b92915050565b6000815190506129b1816143be565b92915050565b6000602082840312156129c957600080fd5b60006129d784828501612753565b91505092915050565b6000602082840312156129f257600080fd5b600082015167ffffffffffffffff811115612a0c57600080fd5b612a18848285016127a7565b91505092915050565b600060c08284031215612a3357600080fd5b6000612a41848285016127d1565b91505092915050565b600060208284031215612a5c57600080fd5b600082015167ffffffffffffffff811115612a7657600080fd5b612a828482850161286d565b91505092915050565b600060208284031215612a9d57600080fd5b6000612aab8482850161298d565b91505092915050565b60008060408385031215612ac757600080fd5b6000612ad58582860161298d565b9250506020612ae685828601612714565b9150509250929050565b60008060408385031215612b0357600080fd5b6000612b118582860161298d565b925050602083013567ffffffffffffffff811115612b2e57600080fd5b612b3a8582860161277d565b9150509250929050565b600080600060608486031215612b5957600080fd5b6000612b678682870161298d565b935050602084013567ffffffffffffffff811115612b8457600080fd5b612b908682870161277d565b925050604084013567ffffffffffffffff811115612bad57600080fd5b612bb98682870161277d565b9150509250925092565b600080600060608486031215612bd857600080fd5b6000612be68682870161298d565b935050602084013567ffffffffffffffff811115612c0357600080fd5b612c0f8682870161277d565b9250506040612c208682870161298d565b9150509250925092565b60008060408385031215612c3d57600080fd5b6000612c4b8582860161298d565b9250506020612c5c8582860161298d565b9150509250929050565b600080600060608486031215612c7b57600080fd5b6000612c898682870161298d565b9350506020612c9a8682870161298d565b9250506040612cab86828701612714565b9150509250925092565b600080600060608486031215612cca57600080fd5b6000612cd88682870161298d565b9350506020612ce98682870161298d565b925050604084013567ffffffffffffffff811115612d0657600080fd5b612d128682870161277d565b9150509250925092565b6000612d28838361327f565b905092915050565b612d3981613982565b82525050565b612d4881613970565b82525050565b6000612d59826138c0565b612d6381856138e3565b935083602082028501612d75856138b0565b8060005b85811015612db15784840389528151612d928582612d1c565b9450612d9d836138d6565b925060208a01995050600181019050612d79565b50829750879550505050505092915050565b612dcc81613994565b82525050565b612ddb816139dd565b82525050565b612dea81613a01565b82525050565b612df981613a25565b82525050565b612e0881613a49565b82525050565b6000612e19826138cb565b612e2381856138f4565b9350612e33818560208601613a6a565b612e3c81613c05565b840191505092915050565b6000612e52826138cb565b612e5c8185613905565b9350612e6c818560208601613a6a565b612e7581613c05565b840191505092915050565b6000612e8d602683613905565b9150612e9882613c16565b604082019050919050565b6000612eb0604383613905565b9150612ebb82613c65565b606082019050919050565b6000612ed3605283613905565b9150612ede82613cda565b606082019050919050565b6000612ef6601883613905565b9150612f0182613d4f565b602082019050919050565b6000612f19603683613905565b9150612f2482613d78565b604082019050919050565b6000612f3c602983613905565b9150612f4782613dc7565b604082019050919050565b6000612f5f603b83613905565b9150612f6a82613e16565b604082019050919050565b6000612f82602f83613905565b9150612f8d82613e65565b604082019050919050565b6000612fa5602e83613905565b9150612fb082613eb4565b604082019050919050565b6000612fc8604f83613905565b9150612fd382613f03565b606082019050919050565b6000612feb602383613905565b9150612ff682613f78565b604082019050919050565b600061300e603483613905565b915061301982613fc7565b604082019050919050565b6000613031602b83613905565b915061303c82614016565b604082019050919050565b6000613054602a83613905565b915061305f82614065565b604082019050919050565b6000613077604883613905565b9150613082826140b4565b606082019050919050565b600061309a603083613905565b91506130a582614129565b604082019050919050565b60006130bd602983613905565b91506130c882614178565b604082019050919050565b60006130e0601a83613905565b91506130eb826141c7565b602082019050919050565b6000613103603883613905565b915061310e826141f0565b604082019050919050565b6000613126603583613905565b91506131318261423f565b604082019050919050565b6000613149602d83613905565b91506131548261428e565b604082019050919050565b600061316c601683613905565b9150613177826142dd565b602082019050919050565b600061318f603783613905565b915061319a82614306565b604082019050919050565b6000610120830160008301516131be60008601826132c3565b50602083015184820360208601526131d68282612e0e565b91505060408301516131eb60408601826132c3565b5060608301516131fe60608601826132c3565b50608083015184820360808601526132168282612e0e565b91505060a083015161322b60a08601826132c3565b5060c083015184820360c08601526132438282612e0e565b91505060e083015161325860e08601826132c3565b506101008301518482036101008601526132728282612e0e565b9150508091505092915050565b6000604083016000830151848203600086015261329c8282612e0e565b915050602083015184820360208601526132b68282612e0e565b9150508091505092915050565b6132cc816139d3565b82525050565b6132db816139d3565b82525050565b60006020820190506132f66000830184612d3f565b92915050565b600060c0820190506133116000830189612d30565b61331e6020830188612d30565b61332b60408301876132d2565b818103606083015261333d8186612e47565b905061334c6080830185612dc3565b61335960a0830184612dc3565b979650505050505050565b6000602082019050818103600083015261337e8184612d4e565b905092915050565b600060208201905061339b6000830184612dd2565b92915050565b60006020820190506133b66000830184612de1565b92915050565b60006020820190506133d16000830184612df0565b92915050565b60006020820190506133ec6000830184612dff565b92915050565b6000604082019050818103600083015261340c8185612e47565b905081810360208301526134208184612e47565b90509392505050565b6000602082019050818103600083015261344281612e80565b9050919050565b6000602082019050818103600083015261346281612ea3565b9050919050565b6000602082019050818103600083015261348281612ec6565b9050919050565b600060208201905081810360008301526134a281612ee9565b9050919050565b600060208201905081810360008301526134c281612f0c565b9050919050565b600060208201905081810360008301526134e281612f2f565b9050919050565b6000602082019050818103600083015261350281612f52565b9050919050565b6000602082019050818103600083015261352281612f75565b9050919050565b6000602082019050818103600083015261354281612f98565b9050919050565b6000602082019050818103600083015261356281612fbb565b9050919050565b6000602082019050818103600083015261358281612fde565b9050919050565b600060208201905081810360008301526135a281613001565b9050919050565b600060208201905081810360008301526135c281613024565b9050919050565b600060208201905081810360008301526135e281613047565b9050919050565b600060208201905081810360008301526136028161306a565b9050919050565b600060208201905081810360008301526136228161308d565b9050919050565b60006020820190508181036000830152613642816130b0565b9050919050565b60006020820190508181036000830152613662816130d3565b9050919050565b60006020820190508181036000830152613682816130f6565b9050919050565b600060208201905081810360008301526136a281613119565b9050919050565b600060208201905081810360008301526136c28161313c565b9050919050565b600060208201905081810360008301526136e28161315f565b9050919050565b6000602082019050818103600083015261370281613182565b9050919050565b600060208201905061371e60008301846132d2565b92915050565b600060808201905061373960008301876132d2565b6137466020830186612d30565b6137536040830185612d30565b61376060608301846132d2565b95945050505050565b600060408201905061377e60008301856132d2565b81810360208301526137908184612e47565b90509392505050565b6000610180820190506137af600083018f6132d2565b6137bc602083018e6132d2565b6137c9604083018d6132d2565b6137d6606083018c612d3f565b6137e3608083018b612d3f565b6137f060a083018a612d3f565b81810360c083015261380281896131a5565b905061381160e0830188612dc3565b61381f6101008301876132d2565b61382d610120830186612dc3565b61383b610140830185612dc3565b613849610160830184612dc3565b9d9c50505050505050505050505050565b6000613864613875565b90506138708282613acf565b919050565b6000604051905090565b600067ffffffffffffffff82111561389a57613899613bd6565b5b6138a382613c05565b9050602081019050919050565b6000819050602082019050919050565b600081519050919050565b600081519050919050565b6000602082019050919050565b600082825260208201905092915050565b600082825260208201905092915050565b600082825260208201905092915050565b6000613921826139d3565b915061392c836139d3565b9250817fffffffffffffffffffffffffffffffffffffffffffffffffffffffffffffffff048311821515161561396557613964613b49565b5b828202905092915050565b600061397b826139b3565b9050919050565b600061398d826139b3565b9050919050565b60008115159050919050565b60008190506139ae82614355565b919050565b600073ffffffffffffffffffffffffffffffffffffffff82169050919050565b6000819050919050565b60006139e8826139ef565b9050919050565b60006139fa826139b3565b9050919050565b6000613a0c82613a13565b9050919050565b6000613a1e826139b3565b9050919050565b6000613a3082613a37565b9050919050565b6000613a42826139b3565b9050919050565b6000613a54826139a0565b9050919050565b82818337600083830152505050565b60005b83811015613a88578082015181840152602081019050613a6d565b83811115613a97576000848401525b50505050565b60006002820490506001821680613ab557607f821691505b60208210811415613ac957613ac8613ba7565b5b50919050565b613ad882613c05565b810181811067ffffffffffffffff82111715613af757613af6613bd6565b5b80604052505050565b6000613b0b826139d3565b91507fffffffffffffffffffffffffffffffffffffffffffffffffffffffffffffffff821415613b3e57613b3d613b49565b5b600182019050919050565b7f4e487b7100000000000000000000000000000000000000000000000000000000600052601160045260246000fd5b7f4e487b7100000000000000000000000000000000000000000000000000000000600052602160045260246000fd5b7f4e487b7100000000000000000000000000000000000000000000000000000000600052602260045260246000fd5b7f4e487b7100000000000000000000000000000000000000000000000000000000600052604160045260246000fd5b6000601f19601f8301169050919050565b7f596f7520617265206e6f7420617574686f72697a656420746f2061646a75737460008201527f206f726465720000000000000000000000000000000000000000000000000000602082015250565b7f4661726d6572206469646e27742061636365707420796f7572206f726465722c60008201527f20796f752063616e2063616e63656c20697420616e642067657420612072656660208201527f756e640000000000000000000000000000000000000000000000000000000000604082015250565b7f596f752063616e2774206368616e67652074686520737461747573206f66207460008201527f6865206f726465722061667465722067657474696e67206d61726b656420616360208201527f636570746564206f722072656a65637465640000000000000000000000000000604082015250565b7f4f7264657220416c7265616479205069636b6564207570210000000000000000600082015250565b7f596f752063616e277420736574206f7264657220636f6d706c657465642c205960008201527f6f7572206f726465722069732063616e63656c6c656400000000000000000000602082015250565b7f596f7520617265206e6f7420617574686f72697a656420746f20696e7669746560008201527f2063617272696572730000000000000000000000000000000000000000000000602082015250565b7f4f7264657220686173206265656e207069636b656420757020616e64206f6e2060008201527f7468652077617920746f20746865206469737472696275746f72210000000000602082015250565b7f596f7520617265206e6f7420617574686f72697a656420746f20736574206f7260008201527f6465722061732061636365707465640000000000000000000000000000000000602082015250565b7f596f7520617265206e6f7420617574686f72697a656420746f2075706461746560008201527f206f726465722073746174757321000000000000000000000000000000000000602082015250565b7f596f752063616e27742061646a757374206f726465727320746861742061726560008201527f206e6f74206163636570746564206f722063616e63656c6c65642c20436f6e7460208201527f61637420796f7572206661726d65720000000000000000000000000000000000604082015250565b7f596f7520616c72656164792061636365707465642074686520696e766974617460008201527f696f6e0000000000000000000000000000000000000000000000000000000000602082015250565b7f596f752073686f756c64206861766520612070726f66696c6520696e206f726460008201527f657220746f20706c61636520616e206f72646572000000000000000000000000602082015250565b7f4f7264657220686173206265656e2064656c697665726420746f20746865206460008201527f69737472696275746f7221000000000000000000000000000000000000000000602082015250565b7f596f7520617265206e6f7420617574686f72697a656420746f2072657175657360008201527f74206120726566756e6400000000000000000000000000000000000000000000602082015250565b7f596f752063616e277420616363657074207468697320696e7669746174696f6e60008201527f2c20596f7520646f206e6f74206861766520616e792061637469766520696e7660208201527f69746174696f6e73000000000000000000000000000000000000000000000000604082015250565b7f596f7520617265206e6f7420617574686f72697a656420746f20736574206f7260008201527f64657220617320636f6d706c6574656400000000000000000000000000000000602082015250565b7f596f7520617265206e6f742061757468726f697a656420746f20617070726f7660008201527f6520726566756e64730000000000000000000000000000000000000000000000602082015250565b7f4361727269657220496e7669746174696f6e20416c7265616479000000000000600082015250565b7f4361727269657220616363657074656420746865206f7264657220616e64207360008201527f686f756c64206265207069636b656420757020736f6f6e210000000000000000602082015250565b7f596f752063616e27742063616e63656c206163636570746564206f726465727360008201527f2c20436f6e7461637420796f7572206661726d65720000000000000000000000602082015250565b7f596f7520617265206e6f7420617574686f72697a656420746f2075706461746560008201527f206f726465722073746174757300000000000000000000000000000000000000602082015250565b7f4f7264657220416c72656164792064656c697665726400000000000000000000600082015250565b7f5468652072657175657374656420517479206973206c657373207468616e207460008201527f6865206d696e696d756d206f72646572696e6720717479000000000000000000602082015250565b6005811061436657614365613b78565b5b50565b61437281613970565b811461437d57600080fd5b50565b61438981613982565b811461439457600080fd5b50565b6143a081613994565b81146143ab57600080fd5b50565b600581106143bb57600080fd5b50565b6143c7816139d3565b81146143d257600080fd5b5056fea2646970667358221220d3fe5392ec2cd0b4436134293430cfb3b0b72ed0745669695b1bc81853ec60ac64736f6c63430008010033",
  "immutableReferences": {},
  "source": "// SPDX-License-Identifier: MIT\n\npragma solidity ^0.8.1;\n\nimport \"./Farmer.sol\";\nimport \"./Distributor.sol\";\nimport \"./Escrow.sol\";\n\ncontract DaliahMarketplace {\n  Farmer public farmer;\n  Distributor public dist;\n  Escrow public escrow;\n\n  constructor(\n    Farmer _farmer,\n    Distributor _dist,\n    Escrow _escrow\n  ) {\n    farmer = _farmer;\n    dist = _dist;\n    escrow = _escrow;\n  }\n\n  struct Carrier {\n    uint256 orderStatus; // 0 = Pending // 1 = On the way // 2 = Deliverd\n    string carrierName;\n    uint256 carPlateNumber;\n    uint256 vehicleTemp;\n    string vehicleTempImage;\n    uint256 pickupDate;\n    string pickupDateImage;\n    uint256 deliveredAt;\n    string deliveredAtImage;\n  }\n\n  //Creating the reference data for order\n  struct Order {\n    uint256 productID;\n    uint256 quantity;\n    uint256 totalPrice;\n    //uint256 distributorID;\n    address distributorAddress;\n    address farmerAddress;\n    address carrierAddress;\n    Carrier carrier;\n    bool isCompleted;\n    uint256 isAccepted; // 0 = pending / 1 = accepted / 2 = rejected\n    bool isCancelled;\n    bool isRefundApproved;\n    bool isRefundRequested;\n    DamageCase[] damages;\n  }\n\n  function getDamages(uint256 _orderID)\n    public\n    view\n    returns (DamageCase[] memory)\n  {\n    return ordersMapping[_orderID].damages;\n  }\n\n  mapping(uint256 => Order) public ordersMapping;\n  uint256 public orderCounter;\n\n  // Placing order by the distributor\n  function placeOrder(\n    uint256 _productID,\n    uint256 _quantity,\n    address _farmerAddress\n  ) public {\n    require(\n      !dist.hasProfile(),\n      \"You should have a profile in order to place an order\"\n    );\n    // set order isCompleted to false by defualt,\n    //where there will be another function to mark order as completed from both parties farmer and distributor\n\n    escrow.deposit(\n      orderCounter,\n      payable(msg.sender),\n      payable(_farmerAddress),\n      getOrderTotalPrice(_productID, _quantity)\n    );\n    //ordersMapping[orderCounter].orderID = orderCounter;\n    ordersMapping[orderCounter].productID = _productID;\n    ordersMapping[orderCounter].quantity = _quantity;\n    ordersMapping[orderCounter].totalPrice = getOrderTotalPrice(\n      _productID,\n      _quantity\n    );\n    ordersMapping[orderCounter].distributorAddress = msg.sender;\n    ordersMapping[orderCounter].farmerAddress = _farmerAddress;\n\n    emit newOrderEvent(orderCounter);\n    orderCounter++;\n  }\n\n  function getOrderPaymentDeatils(uint256 _orderID)\n    public\n    view\n    returns (\n      address payable,\n      address payable,\n      uint256,\n      string memory,\n      bool,\n      bool\n    )\n  {\n    return (\n      escrow.getPayment(_orderID).customer,\n      escrow.getPayment(_orderID).farmer,\n      escrow.getPayment(_orderID).amount,\n      escrow.getPaymentStatus(escrow.getPayment(_orderID).status),\n      escrow.getPayment(_orderID).refundApproved,\n      escrow.getPayment(_orderID).isCancelled\n    );\n  }\n\n  function getOrderTotalPrice(uint256 _harvestID, uint256 _qty)\n    public\n    view\n    returns (uint256)\n  {\n    require(\n      farmer.getHarvestData(_harvestID).minOrderQty <= _qty,\n      \"The requested Qty is less than the minimum ordering qty\"\n    );\n\n    return farmer.getHarvestData(_harvestID).pricePerKG * _qty * 1 ether;\n  }\n\n  function requestRefund(uint256 _orderID) public {\n    require(\n      ordersMapping[_orderID].distributorAddress == msg.sender,\n      \"You are not authorized to request a refund\"\n    );\n    require(\n      ordersMapping[_orderID].isAccepted != 0,\n      \"Farmer didn't accept your order, you can cancel it and get a refund\"\n    );\n\n    ordersMapping[_orderID].isRefundRequested = true;\n  }\n\n  function approveRefund(uint256 _orderID) public {\n    require(\n      msg.sender == ordersMapping[_orderID].farmerAddress,\n      \"You are not authroized to approve refunds\"\n    );\n    escrow.approveRefund(_orderID);\n    ordersMapping[_orderID].isRefundApproved = true;\n  }\n\n  function withdrawRefund(uint256 _orderID) public {\n    escrow.refund(_orderID);\n  }\n\n  // Function foir the disturbutor to able to cancel the order before it get accepted by the farmer while it's pending\n  function cancelOrder(uint256 _orderID) public {\n    require(\n      ordersMapping[_orderID].distributorAddress == msg.sender,\n      \"You are not authorized to adjust order\"\n    );\n\n    require(\n      ordersMapping[_orderID].isAccepted == 0,\n      \"You can't cancel accepted orders, Contact your farmer\"\n    );\n\n    ordersMapping[_orderID].isCancelled = true;\n    ordersMapping[_orderID].isRefundApproved = true;\n    ordersMapping[_orderID].isRefundRequested = true;\n\n    escrow.setOrderCancelled(_orderID);\n  }\n\n  // Set order as complete by distributor and check if the transaction came from distributor address\n  function setOrderCompleted(uint256 _orderID) public {\n    require(\n      msg.sender == ordersMapping[_orderID].distributorAddress,\n      \"You are not authorized to set order as completed\"\n    );\n    require(\n      ordersMapping[_orderID].isAccepted == 1,\n      \"You can't adjust orders that are not accepted or cancelled, Contact your farmer\"\n    );\n    require(\n      !ordersMapping[_orderID].isCancelled,\n      \"You can't set order completed, Your order is cancelled\"\n    );\n    escrow.approveOrderDelivery(_orderID);\n    ordersMapping[_orderID].isCompleted = true;\n    emit orderCompetedEvent(_orderID);\n  }\n\n  function withdrawMoney(uint256 _orderID) public {\n    escrow.withdraw(_orderID);\n  }\n\n  // Set order as accepted by farmer and check if the transaction came from farmer address\n  function changeOrderStatus(\n    uint256 _orderID,\n    uint256 status,\n    string memory reason\n  ) public {\n    require(\n      msg.sender == ordersMapping[_orderID].farmerAddress,\n      \"You are not authorized to set order as accepted\"\n    );\n    require(\n      ordersMapping[_orderID].isAccepted == 0,\n      \"You can't change the status of the order after getting marked accepted or rejected\"\n    );\n    ordersMapping[_orderID].isAccepted = status;\n    emit orderAcceptedEvent(_orderID, status, reason);\n  }\n\n  function inviteCarrier(uint256 _orderID, address _carrierAdress) public {\n    require(\n      msg.sender == ordersMapping[_orderID].distributorAddress,\n      \"You are not authorized to invite carriers\"\n    );\n    require(\n      ordersMapping[_orderID].carrierAddress == address(0),\n      \"Carrier Invitation Already\"\n    );\n\n    ordersMapping[_orderID].carrierAddress = _carrierAdress;\n\n    emit carrierInvitation(_orderID, _carrierAdress);\n  }\n\n  function acceptCarrierInvitation(\n    uint256 _orderID,\n    string memory _carrierName,\n    uint256 _carPlateNumber\n  ) public {\n    require(\n      ordersMapping[_orderID].carrierAddress == msg.sender,\n      \"You can't accept this invitation, You do not have any active invitations\"\n    );\n    require(\n      ordersMapping[_orderID].carrier.carPlateNumber == 0,\n      \"You already accepted the invitation\"\n    );\n\n    ordersMapping[_orderID].carrier.carrierName = _carrierName;\n    ordersMapping[_orderID].carrier.carPlateNumber = _carPlateNumber;\n    ordersMapping[_orderID].carrier.orderStatus = 0;\n\n    emit orderShippingStatusUpdated(\n      _orderID,\n      \"Carrier accepted the order and should be picked up soon!\"\n    );\n    emit carrierInvitationAccepted(_orderID, msg.sender);\n  }\n\n  function updateOrderPickupTime(uint256 _orderID, string memory _imageHash)\n    public\n  {\n    require(\n      msg.sender == ordersMapping[_orderID].carrierAddress,\n      \"You are not authorized to update order status!\"\n    );\n    require(\n      ordersMapping[_orderID].carrier.pickupDate == 0,\n      \"Order Already Picked up!\"\n    );\n\n    ordersMapping[_orderID].carrier.pickupDate = block.timestamp;\n    ordersMapping[_orderID].carrier.pickupDateImage = _imageHash;\n    ordersMapping[_orderID].carrier.orderStatus = 1;\n\n    emit orderShippingStatusUpdated(\n      _orderID,\n      \"Order has been picked up and on the way to the distributor!\"\n    );\n  }\n\n  function setVehicleTemp(\n    uint256 _orderID,\n    uint256 _temp,\n    string memory _imageHash\n  ) public {\n    require(\n      msg.sender == ordersMapping[_orderID].carrierAddress,\n      \"You are not authorized to update order status\"\n    );\n    require(\n      ordersMapping[_orderID].carrier.deliveredAt == 0,\n      \"Order Already deliverd\"\n    );\n\n    ordersMapping[_orderID].carrier.vehicleTemp = _temp;\n    ordersMapping[_orderID].carrier.vehicleTempImage = _imageHash;\n  }\n\n  function markOrderAsDelivered(uint256 _orderID, string memory _imageHash)\n    public\n  {\n    require(\n      msg.sender == ordersMapping[_orderID].carrierAddress,\n      \"You are not authorized to update order status\"\n    );\n    require(\n      ordersMapping[_orderID].carrier.deliveredAt == 0,\n      \"Order Already deliverd\"\n    );\n\n    ordersMapping[_orderID].carrier.deliveredAt = block.timestamp;\n    ordersMapping[_orderID].carrier.deliveredAtImage = _imageHash;\n    ordersMapping[_orderID].carrier.orderStatus = 2;\n\n    emit orderShippingStatusUpdated(\n      _orderID,\n      \"Order has been deliverd to the distributor!\"\n    );\n  }\n\n  // Check the number of orders in ordersMapping\n  function noOrders() public view returns (uint256) {\n    return orderCounter;\n  }\n\n  struct DamageCase {\n    string _imageHash;\n    string caseDesc;\n  }\n\n  function reportDamages(\n    uint256 _orderID,\n    string memory _caseDesc,\n    string memory _imageHash\n  ) public {\n    ordersMapping[_orderID].damages.push(DamageCase(_caseDesc, _imageHash));\n\n    emit damageCase(_orderID, _caseDesc, _imageHash);\n  }\n\n  event newOrderEvent(uint256 indexed _orderID);\n\n  event damageCase(\n    uint256 indexed _orderID,\n    string _caseDesc,\n    string _imageHash\n  );\n\n  event orderAcceptedEvent(\n    uint256 indexed _orderID,\n    uint256 orderStatus,\n    string notes\n  );\n\n  event orderCompetedEvent(uint256 indexed _orderID);\n\n  event carrierInvitation(uint256 indexed _orderID, address carrierAddress);\n\n  event carrierInvitationAccepted(\n    uint256 indexed _orderID,\n    address carrierAddress\n  );\n\n  event orderShippingStatusUpdated(\n    uint256 indexed _orderID,\n    string _orderStatus\n  );\n}\n",
  "sourcePath": "C:\\Users\\HP\\Downloads\\supplychain-blockchain-main2(1)\\supplychain-blockchain-main2\\Truffle\\contracts\\DaliahMarketplace.sol",
  "compiler": {
    "name": "solc",
    "version": "0.8.1+commit.df193b15.Emscripten.clang"
  },
  "schemaVersion": "3.4.16",
  "updatedAt": "2025-01-26T23:04:03.406Z",
  "networkType": "ethereum",
  "devdoc": {
    "kind": "dev",
    "methods": {},
    "version": 1
  },
  "userdoc": {
    "kind": "user",
    "methods": {},
    "version": 1
  }
}