{
  "contractName": "DaliahMarketplace",
  "abi": [
    {
      "inputs": [
        {
          "internalType": "contract Farmer",
          "name": "_farmer",
          "type": "address"
        },
        {
          "internalType": "contract Distributor",
          "name": "_dist",
          "type": "address"
        },
        {
          "internalType": "contract Escrow",
          "name": "_escrow",
          "type": "address"
        }
      ],
      "stateMutability": "nonpayable",
      "type": "constructor"
    },
    {
      "anonymous": false,
      "inputs": [
        {
          "indexed": true,
          "internalType": "uint256",
          "name": "_orderID",
          "type": "uint256"
        },
        {
          "indexed": false,
          "internalType": "address",
          "name": "carrierAddress",
          "type": "address"
        }
      ],
      "name": "carrierInvitation",
      "type": "event"
    },
    {
      "anonymous": false,
      "inputs": [
        {
          "indexed": true,
          "internalType": "uint256",
          "name": "_orderID",
          "type": "uint256"
        },
        {
          "indexed": false,
          "internalType": "address",
          "name": "carrierAddress",
          "type": "address"
        }
      ],
      "name": "carrierInvitationAccepted",
      "type": "event"
    },
    {
      "anonymous": false,
      "inputs": [
        {
          "indexed": true,
          "internalType": "uint256",
          "name": "_orderID",
          "type": "uint256"
        },
        {
          "indexed": false,
          "internalType": "string",
          "name": "_caseDesc",
          "type": "string"
        },
        {
          "indexed": false,
          "internalType": "string",
          "name": "_imageHash",
          "type": "string"
        }
      ],
      "name": "damageCase",
      "type": "event"
    },
    {
      "anonymous": false,
      "inputs": [
        {
          "indexed": true,
          "internalType": "uint256",
          "name": "_orderID",
          "type": "uint256"
        }
      ],
      "name": "newOrderEvent",
      "type": "event"
    },
    {
      "anonymous": false,
      "inputs": [
        {
          "indexed": true,
          "internalType": "uint256",
          "name": "_orderID",
          "type": "uint256"
        },
        {
          "indexed": false,
          "internalType": "uint256",
          "name": "orderStatus",
          "type": "uint256"
        },
        {
          "indexed": false,
          "internalType": "string",
          "name": "notes",
          "type": "string"
        }
      ],
      "name": "orderAcceptedEvent",
      "type": "event"
    },
    {
      "anonymous": false,
      "inputs": [
        {
          "indexed": true,
          "internalType": "uint256",
          "name": "_orderID",
          "type": "uint256"
        }
      ],
      "name": "orderCompetedEvent",
      "type": "event"
    },
    {
      "anonymous": false,
      "inputs": [
        {
          "indexed": true,
          "internalType": "uint256",
          "name": "_orderID",
          "type": "uint256"
        },
        {
          "indexed": false,
          "internalType": "string",
          "name": "_orderStatus",
          "type": "string"
        }
      ],
      "name": "orderShippingStatusUpdated",
      "type": "event"
    },
    {
      "inputs": [],
      "name": "dist",
      "outputs": [
        {
          "internalType": "contract Distributor",
          "name": "",
          "type": "address"
        }
      ],
      "stateMutability": "view",
      "type": "function",
      "constant": true
    },
    {
      "inputs": [],
      "name": "escrow",
      "outputs": [
        {
          "internalType": "contract Escrow",
          "name": "",
          "type": "address"
        }
      ],
      "stateMutability": "view",
      "type": "function",
      "constant": true
    },
    {
      "inputs": [],
      "name": "farmer",
      "outputs": [
        {
          "internalType": "contract Farmer",
          "name": "",
          "type": "address"
        }
      ],
      "stateMutability": "view",
      "type": "function",
      "constant": true
    },
    {
      "inputs": [],
      "name": "orderCounter",
      "outputs": [
        {
          "internalType": "uint256",
          "name": "",
          "type": "uint256"
        }
      ],
      "stateMutability": "view",
      "type": "function",
      "constant": true
    },
    {
      "inputs": [
        {
          "internalType": "uint256",
          "name": "",
          "type": "uint256"
        }
      ],
      "name": "ordersMapping",
      "outputs": [
        {
          "internalType": "uint256",
          "name": "productID",
          "type": "uint256"
        },
        {
          "internalType": "uint256",
          "name": "quantity",
          "type": "uint256"
        },
        {
          "internalType": "uint256",
          "name": "totalPrice",
          "type": "uint256"
        },
        {
          "internalType": "address",
          "name": "distributorAddress",
          "type": "address"
        },
        {
          "internalType": "address",
          "name": "farmerAddress",
          "type": "address"
        },
        {
          "internalType": "address",
          "name": "carrierAddress",
          "type": "address"
        },
        {
          "components": [
            {
              "internalType": "uint256",
              "name": "orderStatus",
              "type": "uint256"
            },
            {
              "internalType": "string",
              "name": "carrierName",
              "type": "string"
            },
            {
              "internalType": "uint256",
              "name": "carPlateNumber",
              "type": "uint256"
            },
            {
              "internalType": "uint256",
              "name": "vehicleTemp",
              "type": "uint256"
            },
            {
              "internalType": "string",
              "name": "vehicleTempImage",
              "type": "string"
            },
            {
              "internalType": "uint256",
              "name": "pickupDate",
              "type": "uint256"
            },
            {
              "internalType": "string",
              "name": "pickupDateImage",
              "type": "string"
            },
            {
              "internalType": "uint256",
              "name": "deliveredAt",
              "type": "uint256"
            },
            {
              "internalType": "string",
              "name": "deliveredAtImage",
              "type": "string"
            }
          ],
          "internalType": "struct DaliahMarketplace.Carrier",
          "name": "carrier",
          "type": "tuple"
        },
        {
          "internalType": "bool",
          "name": "isCompleted",
          "type": "bool"
        },
        {
          "internalType": "uint256",
          "name": "isAccepted",
          "type": "uint256"
        },
        {
          "internalType": "bool",
          "name": "isCancelled",
          "type": "bool"
        },
        {
          "internalType": "bool",
          "name": "isRefundApproved",
          "type": "bool"
        },
        {
          "internalType": "bool",
          "name": "isRefundRequested",
          "type": "bool"
        }
      ],
      "stateMutability": "view",
      "type": "function",
      "constant": true
    },
    {
      "inputs": [
        {
          "internalType": "uint256",
          "name": "_orderID",
          "type": "uint256"
        }
      ],
      "name": "getDamages",
      "outputs": [
        {
          "components": [
            {
              "internalType": "string",
              "name": "_imageHash",
              "type": "string"
            },
            {
              "internalType": "string",
              "name": "caseDesc",
              "type": "string"
            }
          ],
          "internalType": "struct DaliahMarketplace.DamageCase[]",
          "name": "",
          "type": "tuple[]"
        }
      ],
      "stateMutability": "view",
      "type": "function",
      "constant": true
    },
    {
      "inputs": [
        {
          "internalType": "uint256",
          "name": "_productID",
          "type": "uint256"
        },
        {
          "internalType": "uint256",
          "name": "_quantity",
          "type": "uint256"
        },
        {
          "internalType": "address",
          "name": "_farmerAddress",
          "type": "address"
        }
      ],
      "name": "placeOrder",
      "outputs": [],
      "stateMutability": "nonpayable",
      "type": "function"
    },
    {
      "inputs": [
        {
          "internalType": "uint256",
          "name": "_orderID",
          "type": "uint256"
        }
      ],
      "name": "getOrderPaymentDeatils",
      "outputs": [
        {
          "internalType": "address payable",
          "name": "",
          "type": "address"
        },
        {
          "internalType": "address payable",
          "name": "",
          "type": "address"
        },
        {
          "internalType": "uint256",
          "name": "",
          "type": "uint256"
        },
        {
          "internalType": "string",
          "name": "",
          "type": "string"
        },
        {
          "internalType": "bool",
          "name": "",
          "type": "bool"
        },
        {
          "internalType": "bool",
          "name": "",
          "type": "bool"
        }
      ],
      "stateMutability": "view",
      "type": "function",
      "constant": true
    },
    {
      "inputs": [
        {
          "internalType": "uint256",
          "name": "_harvestID",
          "type": "uint256"
        },
        {
          "internalType": "uint256",
          "name": "_qty",
          "type": "uint256"
        }
      ],
      "name": "getOrderTotalPrice",
      "outputs": [
        {
          "internalType": "uint256",
          "name": "",
          "type": "uint256"
        }
      ],
      "stateMutability": "view",
      "type": "function",
      "constant": true
    },
    {
      "inputs": [
        {
          "internalType": "uint256",
          "name": "_orderID",
          "type": "uint256"
        }
      ],
      "name": "requestRefund",
      "outputs": [],
      "stateMutability": "nonpayable",
      "type": "function"
    },
    {
      "inputs": [
        {
          "internalType": "uint256",
          "name": "_orderID",
          "type": "uint256"
        }
      ],
      "name": "approveRefund",
      "outputs": [],
      "stateMutability": "nonpayable",
      "type": "function"
    },
    {
      "inputs": [
        {
          "internalType": "uint256",
          "name": "_orderID",
          "type": "uint256"
        }
      ],
      "name": "withdrawRefund",
      "outputs": [],
      "stateMutability": "nonpayable",
      "type": "function"
    },
    {
      "inputs": [
        {
          "internalType": "uint256",
          "name": "_orderID",
          "type": "uint256"
        }
      ],
      "name": "cancelOrder",
      "outputs": [],
      "stateMutability": "nonpayable",
      "type": "function"
    },
    {
      "inputs": [
        {
          "internalType": "uint256",
          "name": "_orderID",
          "type": "uint256"
        }
      ],
      "name": "setOrderCompleted",
      "outputs": [],
      "stateMutability": "nonpayable",
      "type": "function"
    },
    {
      "inputs": [
        {
          "internalType": "uint256",
          "name": "_orderID",
          "type": "uint256"
        }
      ],
      "name": "withdrawMoney",
      "outputs": [],
      "stateMutability": "nonpayable",
      "type": "function"
    },
    {
      "inputs": [
        {
          "internalType": "uint256",
          "name": "_orderID",
          "type": "uint256"
        },
        {
          "internalType": "uint256",
          "name": "status",
          "type": "uint256"
        },
        {
          "internalType": "string",
          "name": "reason",
          "type": "string"
        }
      ],
      "name": "changeOrderStatus",
      "outputs": [],
      "stateMutability": "nonpayable",
      "type": "function"
    },
    {
      "inputs": [
        {
          "internalType": "uint256",
          "name": "_orderID",
          "type": "uint256"
        },
        {
          "internalType": "address",
          "name": "_carrierAdress",
          "type": "address"
        }
      ],
      "name": "inviteCarrier",
      "outputs": [],
      "stateMutability": "nonpayable",
      "type": "function"
    },
    {
      "inputs": [
        {
          "internalType": "uint256",
          "name": "_orderID",
          "type": "uint256"
        },
        {
          "internalType": "string",
          "name": "_carrierName",
          "type": "string"
        },
        {
          "internalType": "uint256",
          "name": "_carPlateNumber",
          "type": "uint256"
        }
      ],
      "name": "acceptCarrierInvitation",
      "outputs": [],
      "stateMutability": "nonpayable",
      "type": "function"
    },
    {
      "inputs": [
        {
          "internalType": "uint256",
          "name": "_orderID",
          "type": "uint256"
        },
        {
          "internalType": "string",
          "name": "_imageHash",
          "type": "string"
        }
      ],
      "name": "updateOrderPickupTime",
      "outputs": [],
      "stateMutability": "nonpayable",
      "type": "function"
    },
    {
      "inputs": [
        {
          "internalType": "uint256",
          "name": "_orderID",
          "type": "uint256"
        },
        {
          "internalType": "uint256",
          "name": "_temp",
          "type": "uint256"
        },
        {
          "internalType": "string",
          "name": "_imageHash",
          "type": "string"
        }
      ],
      "name": "setVehicleTemp",
      "outputs": [],
      "stateMutability": "nonpayable",
      "type": "function"
    },
    {
      "inputs": [
        {
          "internalType": "uint256",
          "name": "_orderID",
          "type": "uint256"
        },
        {
          "internalType": "string",
          "name": "_imageHash",
          "type": "string"
        }
      ],
      "name": "markOrderAsDelivered",
      "outputs": [],
      "stateMutability": "nonpayable",
      "type": "function"
    },
    {
      "inputs": [],
      "name": "noOrders",
      "outputs": [
        {
          "internalType": "uint256",
          "name": "",
          "type": "uint256"
        }
      ],
      "stateMutability": "view",
      "type": "function",
      "constant": true
    },
    {
      "inputs": [
        {
          "internalType": "uint256",
          "name": "_orderID",
          "type": "uint256"
        },
        {
          "internalType": "string",
          "name": "_caseDesc",
          "type": "string"
        },
        {
          "internalType": "string",
          "name": "_imageHash",
          "type": "string"
        }
      ],
      "name": "reportDamages",
      "outputs": [],
      "stateMutability": "nonpayable",
      "type": "function"
    }
  ],
  "bytecode": "0x60806040523480156200001157600080fd5b506040516200467538038062004675833981810160405281019062000037919062000147565b826000806101000a81548173ffffffffffffffffffffffffffffffffffffffff021916908373ffffffffffffffffffffffffffffffffffffffff16021790555081600160006101000a81548173ffffffffffffffffffffffffffffffffffffffff021916908373ffffffffffffffffffffffffffffffffffffffff16021790555080600260006101000a81548173ffffffffffffffffffffffffffffffffffffffff021916908373ffffffffffffffffffffffffffffffffffffffff1602179055505050506200025b565b60008151905062000113816200020d565b92915050565b6000815190506200012a8162000227565b92915050565b600081519050620001418162000241565b92915050565b6000806000606084860312156200015d57600080fd5b60006200016d8682870162000130565b9350506020620001808682870162000102565b9250506040620001938682870162000119565b9150509250925092565b6000620001aa82620001ed565b9050919050565b6000620001be826200019d565b9050919050565b6000620001d2826200019d565b9050919050565b6000620001e6826200019d565b9050919050565b600073ffffffffffffffffffffffffffffffffffffffff82169050919050565b6200021881620001b1565b81146200022457600080fd5b50565b6200023281620001c5565b81146200023e57600080fd5b50565b6200024c81620001d9565b81146200025857600080fd5b50565b61440a806200026b6000396000f3fe608060405234801561001057600080fd5b506004361061014d5760003560e01c80639d153495116100c3578063d811fcf01161007c578063d811fcf014610394578063e2fdcc17146103b2578063e4098f2d146103d0578063e4718aab146103ec578063e9e50e5b14610408578063ebd4f77d146104245761014d565b80639d153495146102e6578063a2d57df114610302578063a4b2409e14610320578063b5836c211461033c578063b789bf521461035a578063ca05b619146103785761014d565b806359191b3f1161011557806359191b3f146101f25780635fe6bdc91461022d5780636286e5191461024957806379290c7f1461027e578063902df5ae146102ae57806399e8d128146102ca5761014d565b8063348a71a61461015257806335e4365f1461016e5780634aebdf101461018a578063514fcac7146101ba57806354876921146101d6575b600080fd5b61016c60048036038101906101679190612a8a565b610440565b005b61018860048036038101906101839190612c65565b6105a3565b005b6101a4600480360381019061019f9190612c29565b61087a565b6040516101b19190613708565b60405180910390f35b6101d460048036038101906101cf9190612a8a565b610a4a565b005b6101f060048036038101906101eb9190612a8a565b610c64565b005b61020c60048036038101906102079190612a8a565b610cf4565b6040516102249c9b9a99989796959493929190613798565b60405180910390f35b61024760048036038101906102429190612cb4565b61106d565b005b610263600480360381019061025e9190612a8a565b6111be565b604051610275969594939291906132fb565b60405180910390f35b61029860048036038101906102939190612a8a565b6116a6565b6040516102a59190613363565b60405180910390f35b6102c860048036038101906102c39190612a8a565b61183f565b005b6102e460048036038101906102df9190612aef565b611a8c565b005b61030060048036038101906102fb9190612a8a565b611c31565b005b61030a611cc1565b6040516103179190613385565b60405180910390f35b61033a60048036038101906103359190612a8a565b611ce7565b005b610344611e17565b6040516103519190613708565b60405180910390f35b610362611e21565b60405161036f9190613708565b60405180910390f35b610392600480360381019061038d9190612aef565b611e27565b005b61039c611fcc565b6040516103a991906133bb565b60405180910390f35b6103ba611ff0565b6040516103c791906133a0565b60405180910390f35b6103ea60048036038101906103e59190612b43565b612016565b005b61040660048036038101906104019190612cb4565b6120e5565b005b610422600480360381019061041d9190612bc2565b61223c565b005b61043e60048036038101906104399190612ab3565b61241a565b005b6003600082815260200190815260200160002060040160009054906101000a900473ffffffffffffffffffffffffffffffffffffffff1673ffffffffffffffffffffffffffffffffffffffff163373ffffffffffffffffffffffffffffffffffffffff16146104e4576040517f08c379a00000000000000000000000000000000000000000000000000000000081526004016104db90613628565b60405180910390fd5b600260009054906101000a900473ffffffffffffffffffffffffffffffffffffffff1673ffffffffffffffffffffffffffffffffffffffff1663348a71a6826040518263ffffffff1660e01b815260040161053f9190613708565b600060405180830381600087803b15801561055957600080fd5b505af115801561056d573d6000803e3d6000fd5b5050505060016003600083815260200190815260200160002060110160016101000a81548160ff02191690831515021790555050565b600160009054906101000a900473ffffffffffffffffffffffffffffffffffffffff1673ffffffffffffffffffffffffffffffffffffffff166316ae51616040518163ffffffff1660e01b815260040160206040518083038186803b15801561060b57600080fd5b505afa15801561061f573d6000803e3d6000fd5b505050506040513d601f19601f8201168201806040525081019061064391906129b6565b610682576040517f08c379a000000000000000000000000000000000000000000000000000000000815260040161067990613588565b60405180910390fd5b600260009054906101000a900473ffffffffffffffffffffffffffffffffffffffff1673ffffffffffffffffffffffffffffffffffffffff1663e4cca4b060045433846106cf888861087a565b6040518563ffffffff1660e01b81526004016106ee9493929190613723565b600060405180830381600087803b15801561070857600080fd5b505af115801561071c573d6000803e3d6000fd5b5050505082600360006004548152602001908152602001600020600001819055508160036000600454815260200190815260200160002060010181905550610764838361087a565b600360006004548152602001908152602001600020600201819055503360036000600454815260200190815260200160002060030160006101000a81548173ffffffffffffffffffffffffffffffffffffffff021916908373ffffffffffffffffffffffffffffffffffffffff1602179055508060036000600454815260200190815260200160002060040160006101000a81548173ffffffffffffffffffffffffffffffffffffffff021916908373ffffffffffffffffffffffffffffffffffffffff1602179055506004547facd7be4ba3cd13daef42e2a9427864d9a9e81dd09fe25d5a46bacbc7bd095d0960405160405180910390a26004600081548092919061087090613aff565b9190505550505050565b60008160008054906101000a900473ffffffffffffffffffffffffffffffffffffffff1673ffffffffffffffffffffffffffffffffffffffff166301c6f93c856040518263ffffffff1660e01b81526004016108d69190613708565b60006040518083038186803b1580156108ee57600080fd5b505afa158015610902573d6000803e3d6000fd5b505050506040513d6000823e3d601f19601f8201168201806040525081019061092b9190612a49565b61010001511115610971576040517f08c379a0000000000000000000000000000000000000000000000000000000008152600401610968906136e8565b60405180910390fd5b670de0b6b3a76400008260008054906101000a900473ffffffffffffffffffffffffffffffffffffffff1673ffffffffffffffffffffffffffffffffffffffff166301c6f93c866040518263ffffffff1660e01b81526004016109d49190613708565b60006040518083038186803b1580156109ec57600080fd5b505afa158015610a00573d6000803e3d6000fd5b505050506040513d6000823e3d601f19601f82011682018060405250810190610a299190612a49565b6101200151610a389190613915565b610a429190613915565b905092915050565b3373ffffffffffffffffffffffffffffffffffffffff166003600083815260200190815260200160002060030160009054906101000a900473ffffffffffffffffffffffffffffffffffffffff1673ffffffffffffffffffffffffffffffffffffffff1614610aee576040517f08c379a0000000000000000000000000000000000000000000000000000000008152600401610ae590613428565b60405180910390fd5b6000600360008381526020019081526020016000206010015414610b47576040517f08c379a0000000000000000000000000000000000000000000000000000000008152600401610b3e90613688565b60405180910390fd5b60016003600083815260200190815260200160002060110160006101000a81548160ff02191690831515021790555060016003600083815260200190815260200160002060110160016101000a81548160ff02191690831515021790555060016003600083815260200190815260200160002060110160026101000a81548160ff021916908315150217905550600260009054906101000a900473ffffffffffffffffffffffffffffffffffffffff1673ffffffffffffffffffffffffffffffffffffffff16631158ff89826040518263ffffffff1660e01b8152600401610c2f9190613708565b600060405180830381600087803b158015610c4957600080fd5b505af1158015610c5d573d6000803e3d6000fd5b5050505050565b600260009054906101000a900473ffffffffffffffffffffffffffffffffffffffff1673ffffffffffffffffffffffffffffffffffffffff16632e1a7d4d826040518263ffffffff1660e01b8152600401610cbf9190613708565b600060405180830381600087803b158015610cd957600080fd5b505af1158015610ced573d6000803e3d6000fd5b5050505050565b60036020528060005260406000206000915090508060000154908060010154908060020154908060030160009054906101000a900473ffffffffffffffffffffffffffffffffffffffff16908060040160009054906101000a900473ffffffffffffffffffffffffffffffffffffffff16908060050160009054906101000a900473ffffffffffffffffffffffffffffffffffffffff1690806006016040518061012001604052908160008201548152602001600182018054610db690613a9c565b80601f0160208091040260200160405190810160405280929190818152602001828054610de290613a9c565b8015610e2f5780601f10610e0457610100808354040283529160200191610e2f565b820191906000526020600020905b815481529060010190602001808311610e1257829003601f168201915b505050505081526020016002820154815260200160038201548152602001600482018054610e5c90613a9c565b80601f0160208091040260200160405190810160405280929190818152602001828054610e8890613a9c565b8015610ed55780601f10610eaa57610100808354040283529160200191610ed5565b820191906000526020600020905b815481529060010190602001808311610eb857829003601f168201915b5050505050815260200160058201548152602001600682018054610ef890613a9c565b80601f0160208091040260200160405190810160405280929190818152602001828054610f2490613a9c565b8015610f715780601f10610f4657610100808354040283529160200191610f71565b820191906000526020600020905b815481529060010190602001808311610f5457829003601f168201915b5050505050815260200160078201548152602001600882018054610f9490613a9c565b80601f0160208091040260200160405190810160405280929190818152602001828054610fc090613a9c565b801561100d5780601f10610fe25761010080835404028352916020019161100d565b820191906000526020600020905b815481529060010190602001808311610ff057829003601f168201915b5050505050815250509080600f0160009054906101000a900460ff16908060100154908060110160009054906101000a900460ff16908060110160019054906101000a900460ff16908060110160029054906101000a900460ff1690508c565b6003600084815260200190815260200160002060050160009054906101000a900473ffffffffffffffffffffffffffffffffffffffff1673ffffffffffffffffffffffffffffffffffffffff163373ffffffffffffffffffffffffffffffffffffffff1614611111576040517f08c379a0000000000000000000000000000000000000000000000000000000008152600401611108906136a8565b60405180910390fd5b600060036000858152602001908152602001600020600601600701541461116d576040517f08c379a0000000000000000000000000000000000000000000000000000000008152600401611164906136c8565b60405180910390fd5b816003600085815260200190815260200160002060060160030181905550806003600085815260200190815260200160002060060160040190805190602001906111b89291906125f4565b50505050565b60008060006060600080600260009054906101000a900473ffffffffffffffffffffffffffffffffffffffff1673ffffffffffffffffffffffffffffffffffffffff16633280a836886040518263ffffffff1660e01b81526004016112239190613708565b60c06040518083038186803b15801561123b57600080fd5b505afa15801561124f573d6000803e3d6000fd5b505050506040513d601f19601f820116820180604052508101906112739190612a20565b60000151600260009054906101000a900473ffffffffffffffffffffffffffffffffffffffff1673ffffffffffffffffffffffffffffffffffffffff16633280a836896040518263ffffffff1660e01b81526004016112d29190613708565b60c06040518083038186803b1580156112ea57600080fd5b505afa1580156112fe573d6000803e3d6000fd5b505050506040513d601f19601f820116820180604052508101906113229190612a20565b60200151600260009054906101000a900473ffffffffffffffffffffffffffffffffffffffff1673ffffffffffffffffffffffffffffffffffffffff16633280a8368a6040518263ffffffff1660e01b81526004016113819190613708565b60c06040518083038186803b15801561139957600080fd5b505afa1580156113ad573d6000803e3d6000fd5b505050506040513d601f19601f820116820180604052508101906113d19190612a20565b60400151600260009054906101000a900473ffffffffffffffffffffffffffffffffffffffff1673ffffffffffffffffffffffffffffffffffffffff166373a5da4c600260009054906101000a900473ffffffffffffffffffffffffffffffffffffffff1673ffffffffffffffffffffffffffffffffffffffff16633280a8368d6040518263ffffffff1660e01b815260040161146e9190613708565b60c06040518083038186803b15801561148657600080fd5b505afa15801561149a573d6000803e3d6000fd5b505050506040513d601f19601f820116820180604052508101906114be9190612a20565b606001516040518263ffffffff1660e01b81526004016114de91906133d6565b60006040518083038186803b1580156114f657600080fd5b505afa15801561150a573d6000803e3d6000fd5b505050506040513d6000823e3d601f19601f8201168201806040525081019061153391906129df565b600260009054906101000a900473ffffffffffffffffffffffffffffffffffffffff1673ffffffffffffffffffffffffffffffffffffffff16633280a8368c6040518263ffffffff1660e01b815260040161158e9190613708565b60c06040518083038186803b1580156115a657600080fd5b505afa1580156115ba573d6000803e3d6000fd5b505050506040513d601f19601f820116820180604052508101906115de9190612a20565b60800151600260009054906101000a900473ffffffffffffffffffffffffffffffffffffffff1673ffffffffffffffffffffffffffffffffffffffff16633280a8368d6040518263ffffffff1660e01b815260040161163d9190613708565b60c06040518083038186803b15801561165557600080fd5b505afa158015611669573d6000803e3d6000fd5b505050506040513d601f19601f8201168201806040525081019061168d9190612a20565b60a0015195509550955095509550955091939550919395565b606060036000838152602001908152602001600020601201805480602002602001604051908101604052809291908181526020016000905b82821015611834578382906000526020600020906002020160405180604001604052908160008201805461171190613a9c565b80601f016020809104026020016040519081016040528092919081815260200182805461173d90613a9c565b801561178a5780601f1061175f5761010080835404028352916020019161178a565b820191906000526020600020905b81548152906001019060200180831161176d57829003601f168201915b505050505081526020016001820180546117a390613a9c565b80601f01602080910402602001604051908101604052809291908181526020018280546117cf90613a9c565b801561181c5780601f106117f15761010080835404028352916020019161181c565b820191906000526020600020905b8154815290600101906020018083116117ff57829003601f168201915b505050505081525050815260200190600101906116de565b505050509050919050565b6003600082815260200190815260200160002060030160009054906101000a900473ffffffffffffffffffffffffffffffffffffffff1673ffffffffffffffffffffffffffffffffffffffff163373ffffffffffffffffffffffffffffffffffffffff16146118e3576040517f08c379a00000000000000000000000000000000000000000000000000000000081526004016118da90613608565b60405180910390fd5b600160036000838152602001908152602001600020601001541461193c576040517f08c379a000000000000000000000000000000000000000000000000000000000815260040161193390613548565b60405180910390fd5b6003600082815260200190815260200160002060110160009054906101000a900460ff16156119a0576040517f08c379a0000000000000000000000000000000000000000000000000000000008152600401611997906134a8565b60405180910390fd5b600260009054906101000a900473ffffffffffffffffffffffffffffffffffffffff1673ffffffffffffffffffffffffffffffffffffffff16637633b35e826040518263ffffffff1660e01b81526004016119fb9190613708565b600060405180830381600087803b158015611a1557600080fd5b505af1158015611a29573d6000803e3d6000fd5b50505050600160036000838152602001908152602001600020600f0160006101000a81548160ff021916908315150217905550807f06046719ceed3ea8f160401f9d40e3099fc5f5bf3711f0fcfc0bf35da465a90560405160405180910390a250565b6003600083815260200190815260200160002060050160009054906101000a900473ffffffffffffffffffffffffffffffffffffffff1673ffffffffffffffffffffffffffffffffffffffff163373ffffffffffffffffffffffffffffffffffffffff1614611b30576040517f08c379a0000000000000000000000000000000000000000000000000000000008152600401611b27906136a8565b60405180910390fd5b6000600360008481526020019081526020016000206006016007015414611b8c576040517f08c379a0000000000000000000000000000000000000000000000000000000008152600401611b83906136c8565b60405180910390fd5b42600360008481526020019081526020016000206006016007018190555080600360008481526020019081526020016000206006016008019080519060200190611bd79291906125f4565b5060026003600084815260200190815260200160002060060160000181905550817f1cf9f1eda2b80febbda03a9b10915a7b6eb57029e40b4290d52e41dfef8f9594604051611c25906135a8565b60405180910390a25050565b600260009054906101000a900473ffffffffffffffffffffffffffffffffffffffff1673ffffffffffffffffffffffffffffffffffffffff1663278ecde1826040518263ffffffff1660e01b8152600401611c8c9190613708565b600060405180830381600087803b158015611ca657600080fd5b505af1158015611cba573d6000803e3d6000fd5b5050505050565b600160009054906101000a900473ffffffffffffffffffffffffffffffffffffffff1681565b3373ffffffffffffffffffffffffffffffffffffffff166003600083815260200190815260200160002060030160009054906101000a900473ffffffffffffffffffffffffffffffffffffffff1673ffffffffffffffffffffffffffffffffffffffff1614611d8b576040517f08c379a0000000000000000000000000000000000000000000000000000000008152600401611d82906135c8565b60405180910390fd5b600060036000838152602001908152602001600020601001541415611de5576040517f08c379a0000000000000000000000000000000000000000000000000000000008152600401611ddc90613448565b60405180910390fd5b60016003600083815260200190815260200160002060110160026101000a81548160ff02191690831515021790555050565b6000600454905090565b60045481565b6003600083815260200190815260200160002060050160009054906101000a900473ffffffffffffffffffffffffffffffffffffffff1673ffffffffffffffffffffffffffffffffffffffff163373ffffffffffffffffffffffffffffffffffffffff1614611ecb576040517f08c379a0000000000000000000000000000000000000000000000000000000008152600401611ec290613528565b60405180910390fd5b6000600360008481526020019081526020016000206006016005015414611f27576040517f08c379a0000000000000000000000000000000000000000000000000000000008152600401611f1e90613488565b60405180910390fd5b42600360008481526020019081526020016000206006016005018190555080600360008481526020019081526020016000206006016006019080519060200190611f729291906125f4565b5060016003600084815260200190815260200160002060060160000181905550817f1cf9f1eda2b80febbda03a9b10915a7b6eb57029e40b4290d52e41dfef8f9594604051611fc0906134e8565b60405180910390a25050565b60008054906101000a900473ffffffffffffffffffffffffffffffffffffffff1681565b600260009054906101000a900473ffffffffffffffffffffffffffffffffffffffff1681565b60036000848152602001908152602001600020601201604051806040016040528084815260200183815250908060018154018082558091505060019003906000526020600020906002020160009091909190915060008201518160000190805190602001906120869291906125f4565b5060208201518160010190805190602001906120a39291906125f4565b505050827fb271189d81f7018c19210f933e659f7f42edfb4744fa772854fa6b40d8e86bfc83836040516120d89291906133f1565b60405180910390a2505050565b6003600084815260200190815260200160002060040160009054906101000a900473ffffffffffffffffffffffffffffffffffffffff1673ffffffffffffffffffffffffffffffffffffffff163373ffffffffffffffffffffffffffffffffffffffff1614612189576040517f08c379a000000000000000000000000000000000000000000000000000000000815260040161218090613508565b60405180910390fd5b60006003600085815260200190815260200160002060100154146121e2576040517f08c379a00000000000000000000000000000000000000000000000000000000081526004016121d990613468565b60405180910390fd5b816003600085815260200190815260200160002060100181905550827f6b004611adb03cf13c80da193e4e56270cf004d2b2e2c917179cb052ebb3edc8838360405161222f929190613768565b60405180910390a2505050565b3373ffffffffffffffffffffffffffffffffffffffff166003600085815260200190815260200160002060050160009054906101000a900473ffffffffffffffffffffffffffffffffffffffff1673ffffffffffffffffffffffffffffffffffffffff16146122e0576040517f08c379a00000000000000000000000000000000000000000000000000000000081526004016122d7906135e8565b60405180910390fd5b600060036000858152602001908152602001600020600601600201541461233c576040517f08c379a000000000000000000000000000000000000000000000000000000000815260040161233390613568565b60405180910390fd5b816003600085815260200190815260200160002060060160010190805190602001906123699291906125f4565b5080600360008581526020019081526020016000206006016002018190555060006003600085815260200190815260200160002060060160000181905550827f1cf9f1eda2b80febbda03a9b10915a7b6eb57029e40b4290d52e41dfef8f95946040516123d590613668565b60405180910390a2827fed7e00b6ed9ffcee9ef06b756efc1ac14bbae57c2242ac129b8309656914a8393360405161240d91906132e0565b60405180910390a2505050565b6003600083815260200190815260200160002060030160009054906101000a900473ffffffffffffffffffffffffffffffffffffffff1673ffffffffffffffffffffffffffffffffffffffff163373ffffffffffffffffffffffffffffffffffffffff16146124be576040517f08c379a00000000000000000000000000000000000000000000000000000000081526004016124b5906134c8565b60405180910390fd5b600073ffffffffffffffffffffffffffffffffffffffff166003600084815260200190815260200160002060050160009054906101000a900473ffffffffffffffffffffffffffffffffffffffff1673ffffffffffffffffffffffffffffffffffffffff1614612563576040517f08c379a000000000000000000000000000000000000000000000000000000000815260040161255a90613648565b60405180910390fd5b806003600084815260200190815260200160002060050160006101000a81548173ffffffffffffffffffffffffffffffffffffffff021916908373ffffffffffffffffffffffffffffffffffffffff160217905550817ffed8a35263911b7abda20f123cc98e2110002504743262de9d06d0cc27b9aeb0826040516125e891906132e0565b60405180910390a25050565b82805461260090613a9c565b90600052602060002090601f0160209004810192826126225760008555612669565b82601f1061263b57805160ff1916838001178555612669565b82800160010185558215612669579182015b8281111561266857825182559160200191906001019061264d565b5b509050612676919061267a565b5090565b5b8082111561269357600081600090555060010161267b565b5090565b60006126aa6126a58461387e565b613859565b9050828152602081018484840111156126c257600080fd5b6126cd848285613a5a565b509392505050565b60006126e86126e38461387e565b613859565b90508281526020810184848401111561270057600080fd5b61270b848285613a69565b509392505050565b60008135905061272281614368565b92915050565b60008151905061273781614368565b92915050565b60008151905061274c8161437f565b92915050565b60008151905061276181614396565b92915050565b600081519050612776816143ad565b92915050565b600082601f83011261278d57600080fd5b813561279d848260208601612697565b91505092915050565b600082601f8301126127b757600080fd5b81516127c78482602086016126d5565b91505092915050565b600060c082840312156127e257600080fd5b6127ec60c0613859565b905060006127fc8482850161273d565b60008301525060206128108482850161273d565b6020830152506040612824848285016129a1565b604083015250606061283884828501612767565b606083015250608061284c84828501612752565b60808301525060a061286084828501612752565b60a08301525092915050565b6000610160828403121561287f57600080fd5b61288a610160613859565b9050600061289a84828501612728565b600083015250602082015167ffffffffffffffff8111156128ba57600080fd5b6128c6848285016127a6565b60208301525060406128da848285016129a1565b60408301525060606128ee848285016129a1565b6060830152506080612902848285016129a1565b60808301525060a0612916848285016129a1565b60a08301525060c061292a848285016129a1565b60c08301525060e061293e848285016129a1565b60e083015250610100612953848285016129a1565b61010083015250610120612969848285016129a1565b6101208301525061014061297f848285016129a1565b6101408301525092915050565b60008135905061299b816143bd565b92915050565b6000815190506129b0816143bd565b92915050565b6000602082840312156129c857600080fd5b60006129d684828501612752565b91505092915050565b6000602082840312156129f157600080fd5b600082015167ffffffffffffffff811115612a0b57600080fd5b612a17848285016127a6565b91505092915050565b600060c08284031215612a3257600080fd5b6000612a40848285016127d0565b91505092915050565b600060208284031215612a5b57600080fd5b600082015167ffffffffffffffff811115612a7557600080fd5b612a818482850161286c565b91505092915050565b600060208284031215612a9c57600080fd5b6000612aaa8482850161298c565b91505092915050565b60008060408385031215612ac657600080fd5b6000612ad48582860161298c565b9250506020612ae585828601612713565b9150509250929050565b60008060408385031215612b0257600080fd5b6000612b108582860161298c565b925050602083013567ffffffffffffffff811115612b2d57600080fd5b612b398582860161277c565b9150509250929050565b600080600060608486031215612b5857600080fd5b6000612b668682870161298c565b935050602084013567ffffffffffffffff811115612b8357600080fd5b612b8f8682870161277c565b925050604084013567ffffffffffffffff811115612bac57600080fd5b612bb88682870161277c565b9150509250925092565b600080600060608486031215612bd757600080fd5b6000612be58682870161298c565b935050602084013567ffffffffffffffff811115612c0257600080fd5b612c0e8682870161277c565b9250506040612c1f8682870161298c565b9150509250925092565b60008060408385031215612c3c57600080fd5b6000612c4a8582860161298c565b9250506020612c5b8582860161298c565b9150509250929050565b600080600060608486031215612c7a57600080fd5b6000612c888682870161298c565b9350506020612c998682870161298c565b9250506040612caa86828701612713565b9150509250925092565b600080600060608486031215612cc957600080fd5b6000612cd78682870161298c565b9350506020612ce88682870161298c565b925050604084013567ffffffffffffffff811115612d0557600080fd5b612d118682870161277c565b9150509250925092565b6000612d27838361327e565b905092915050565b612d3881613981565b82525050565b612d478161396f565b82525050565b6000612d58826138bf565b612d6281856138e2565b935083602082028501612d74856138af565b8060005b85811015612db05784840389528151612d918582612d1b565b9450612d9c836138d5565b925060208a01995050600181019050612d78565b50829750879550505050505092915050565b612dcb81613993565b82525050565b612dda816139dc565b82525050565b612de981613a00565b82525050565b612df881613a24565b82525050565b612e0781613a48565b82525050565b6000612e18826138ca565b612e2281856138f3565b9350612e32818560208601613a69565b612e3b81613c04565b840191505092915050565b6000612e51826138ca565b612e5b8185613904565b9350612e6b818560208601613a69565b612e7481613c04565b840191505092915050565b6000612e8c602683613904565b9150612e9782613c15565b604082019050919050565b6000612eaf604383613904565b9150612eba82613c64565b606082019050919050565b6000612ed2605283613904565b9150612edd82613cd9565b606082019050919050565b6000612ef5601883613904565b9150612f0082613d4e565b602082019050919050565b6000612f18603683613904565b9150612f2382613d77565b604082019050919050565b6000612f3b602983613904565b9150612f4682613dc6565b604082019050919050565b6000612f5e603b83613904565b9150612f6982613e15565b604082019050919050565b6000612f81602f83613904565b9150612f8c82613e64565b604082019050919050565b6000612fa4602e83613904565b9150612faf82613eb3565b604082019050919050565b6000612fc7604f83613904565b9150612fd282613f02565b606082019050919050565b6000612fea602383613904565b9150612ff582613f77565b604082019050919050565b600061300d603483613904565b915061301882613fc6565b604082019050919050565b6000613030602b83613904565b915061303b82614015565b604082019050919050565b6000613053602a83613904565b915061305e82614064565b604082019050919050565b6000613076604883613904565b9150613081826140b3565b606082019050919050565b6000613099603083613904565b91506130a482614128565b604082019050919050565b60006130bc602983613904565b91506130c782614177565b604082019050919050565b60006130df601a83613904565b91506130ea826141c6565b602082019050919050565b6000613102603883613904565b915061310d826141ef565b604082019050919050565b6000613125603583613904565b91506131308261423e565b604082019050919050565b6000613148602d83613904565b91506131538261428d565b604082019050919050565b600061316b601683613904565b9150613176826142dc565b602082019050919050565b600061318e603783613904565b915061319982614305565b604082019050919050565b6000610120830160008301516131bd60008601826132c2565b50602083015184820360208601526131d58282612e0d565b91505060408301516131ea60408601826132c2565b5060608301516131fd60608601826132c2565b50608083015184820360808601526132158282612e0d565b91505060a083015161322a60a08601826132c2565b5060c083015184820360c08601526132428282612e0d565b91505060e083015161325760e08601826132c2565b506101008301518482036101008601526132718282612e0d565b9150508091505092915050565b6000604083016000830151848203600086015261329b8282612e0d565b915050602083015184820360208601526132b58282612e0d565b9150508091505092915050565b6132cb816139d2565b82525050565b6132da816139d2565b82525050565b60006020820190506132f56000830184612d3e565b92915050565b600060c0820190506133106000830189612d2f565b61331d6020830188612d2f565b61332a60408301876132d1565b818103606083015261333c8186612e46565b905061334b6080830185612dc2565b61335860a0830184612dc2565b979650505050505050565b6000602082019050818103600083015261337d8184612d4d565b905092915050565b600060208201905061339a6000830184612dd1565b92915050565b60006020820190506133b56000830184612de0565b92915050565b60006020820190506133d06000830184612def565b92915050565b60006020820190506133eb6000830184612dfe565b92915050565b6000604082019050818103600083015261340b8185612e46565b9050818103602083015261341f8184612e46565b90509392505050565b6000602082019050818103600083015261344181612e7f565b9050919050565b6000602082019050818103600083015261346181612ea2565b9050919050565b6000602082019050818103600083015261348181612ec5565b9050919050565b600060208201905081810360008301526134a181612ee8565b9050919050565b600060208201905081810360008301526134c181612f0b565b9050919050565b600060208201905081810360008301526134e181612f2e565b9050919050565b6000602082019050818103600083015261350181612f51565b9050919050565b6000602082019050818103600083015261352181612f74565b9050919050565b6000602082019050818103600083015261354181612f97565b9050919050565b6000602082019050818103600083015261356181612fba565b9050919050565b6000602082019050818103600083015261358181612fdd565b9050919050565b600060208201905081810360008301526135a181613000565b9050919050565b600060208201905081810360008301526135c181613023565b9050919050565b600060208201905081810360008301526135e181613046565b9050919050565b6000602082019050818103600083015261360181613069565b9050919050565b600060208201905081810360008301526136218161308c565b9050919050565b60006020820190508181036000830152613641816130af565b9050919050565b60006020820190508181036000830152613661816130d2565b9050919050565b60006020820190508181036000830152613681816130f5565b9050919050565b600060208201905081810360008301526136a181613118565b9050919050565b600060208201905081810360008301526136c18161313b565b9050919050565b600060208201905081810360008301526136e18161315e565b9050919050565b6000602082019050818103600083015261370181613181565b9050919050565b600060208201905061371d60008301846132d1565b92915050565b600060808201905061373860008301876132d1565b6137456020830186612d2f565b6137526040830185612d2f565b61375f60608301846132d1565b95945050505050565b600060408201905061377d60008301856132d1565b818103602083015261378f8184612e46565b90509392505050565b6000610180820190506137ae600083018f6132d1565b6137bb602083018e6132d1565b6137c8604083018d6132d1565b6137d5606083018c612d3e565b6137e2608083018b612d3e565b6137ef60a083018a612d3e565b81810360c083015261380181896131a4565b905061381060e0830188612dc2565b61381e6101008301876132d1565b61382c610120830186612dc2565b61383a610140830185612dc2565b613848610160830184612dc2565b9d9c50505050505050505050505050565b6000613863613874565b905061386f8282613ace565b919050565b6000604051905090565b600067ffffffffffffffff82111561389957613898613bd5565b5b6138a282613c04565b9050602081019050919050565b6000819050602082019050919050565b600081519050919050565b600081519050919050565b6000602082019050919050565b600082825260208201905092915050565b600082825260208201905092915050565b600082825260208201905092915050565b6000613920826139d2565b915061392b836139d2565b9250817fffffffffffffffffffffffffffffffffffffffffffffffffffffffffffffffff048311821515161561396457613963613b48565b5b828202905092915050565b600061397a826139b2565b9050919050565b600061398c826139b2565b9050919050565b60008115159050919050565b60008190506139ad82614354565b919050565b600073ffffffffffffffffffffffffffffffffffffffff82169050919050565b6000819050919050565b60006139e7826139ee565b9050919050565b60006139f9826139b2565b9050919050565b6000613a0b82613a12565b9050919050565b6000613a1d826139b2565b9050919050565b6000613a2f82613a36565b9050919050565b6000613a41826139b2565b9050919050565b6000613a538261399f565b9050919050565b82818337600083830152505050565b60005b83811015613a87578082015181840152602081019050613a6c565b83811115613a96576000848401525b50505050565b60006002820490506001821680613ab457607f821691505b60208210811415613ac857613ac7613ba6565b5b50919050565b613ad782613c04565b810181811067ffffffffffffffff82111715613af657613af5613bd5565b5b80604052505050565b6000613b0a826139d2565b91507fffffffffffffffffffffffffffffffffffffffffffffffffffffffffffffffff821415613b3d57613b3c613b48565b5b600182019050919050565b7f4e487b7100000000000000000000000000000000000000000000000000000000600052601160045260246000fd5b7f4e487b7100000000000000000000000000000000000000000000000000000000600052602160045260246000fd5b7f4e487b7100000000000000000000000000000000000000000000000000000000600052602260045260246000fd5b7f4e487b7100000000000000000000000000000000000000000000000000000000600052604160045260246000fd5b6000601f19601f8301169050919050565b7f596f7520617265206e6f7420617574686f72697a656420746f2061646a75737460008201527f206f726465720000000000000000000000000000000000000000000000000000602082015250565b7f4661726d6572206469646e27742061636365707420796f7572206f726465722c60008201527f20796f752063616e2063616e63656c20697420616e642067657420612072656660208201527f756e640000000000000000000000000000000000000000000000000000000000604082015250565b7f596f752063616e2774206368616e67652074686520737461747573206f66207460008201527f6865206f726465722061667465722067657474696e67206d61726b656420616360208201527f636570746564206f722072656a65637465640000000000000000000000000000604082015250565b7f4f7264657220416c7265616479205069636b6564207570210000000000000000600082015250565b7f596f752063616e277420736574206f7264657220636f6d706c657465642c205960008201527f6f7572206f726465722069732063616e63656c6c656400000000000000000000602082015250565b7f596f7520617265206e6f7420617574686f72697a656420746f20696e7669746560008201527f2063617272696572730000000000000000000000000000000000000000000000602082015250565b7f4f7264657220686173206265656e207069636b656420757020616e64206f6e2060008201527f7468652077617920746f20746865206469737472696275746f72210000000000602082015250565b7f596f7520617265206e6f7420617574686f72697a656420746f20736574206f7260008201527f6465722061732061636365707465640000000000000000000000000000000000602082015250565b7f596f7520617265206e6f7420617574686f72697a656420746f2075706461746560008201527f206f726465722073746174757321000000000000000000000000000000000000602082015250565b7f596f752063616e27742061646a757374206f726465727320746861742061726560008201527f206e6f74206163636570746564206f722063616e63656c6c65642c20436f6e7460208201527f61637420796f7572206661726d65720000000000000000000000000000000000604082015250565b7f596f7520616c72656164792061636365707465642074686520696e766974617460008201527f696f6e0000000000000000000000000000000000000000000000000000000000602082015250565b7f596f752073686f756c64206861766520612070726f66696c6520696e206f726460008201527f657220746f20706c61636520616e206f72646572000000000000000000000000602082015250565b7f4f7264657220686173206265656e2064656c697665726420746f20746865206460008201527f69737472696275746f7221000000000000000000000000000000000000000000602082015250565b7f596f7520617265206e6f7420617574686f72697a656420746f2072657175657360008201527f74206120726566756e6400000000000000000000000000000000000000000000602082015250565b7f596f752063616e277420616363657074207468697320696e7669746174696f6e60008201527f2c20596f7520646f206e6f74206861766520616e792061637469766520696e7660208201527f69746174696f6e73000000000000000000000000000000000000000000000000604082015250565b7f596f7520617265206e6f7420617574686f72697a656420746f20736574206f7260008201527f64657220617320636f6d706c6574656400000000000000000000000000000000602082015250565b7f596f7520617265206e6f742061757468726f697a656420746f20617070726f7660008201527f6520726566756e64730000000000000000000000000000000000000000000000602082015250565b7f4361727269657220496e7669746174696f6e20416c7265616479000000000000600082015250565b7f4361727269657220616363657074656420746865206f7264657220616e64207360008201527f686f756c64206265207069636b656420757020736f6f6e210000000000000000602082015250565b7f596f752063616e27742063616e63656c206163636570746564206f726465727360008201527f2c20436f6e7461637420796f7572206661726d65720000000000000000000000602082015250565b7f596f7520617265206e6f7420617574686f72697a656420746f2075706461746560008201527f206f726465722073746174757300000000000000000000000000000000000000602082015250565b7f4f7264657220416c72656164792064656c697665726400000000000000000000600082015250565b7f5468652072657175657374656420517479206973206c657373207468616e207460008201527f6865206d696e696d756d206f72646572696e6720717479000000000000000000602082015250565b6005811061436557614364613b77565b5b50565b6143718161396f565b811461437c57600080fd5b50565b61438881613981565b811461439357600080fd5b50565b61439f81613993565b81146143aa57600080fd5b50565b600581106143ba57600080fd5b50565b6143c6816139d2565b81146143d157600080fd5b5056fea2646970667358221220d1bad81165993ae9b4b7a5988ccdaf9f7f831d1729ac4861a937cc817df3b07f64736f6c63430008010033",
  "immutableReferences": {},
  "source": "// SPDX-License-Identifier: MIT\n\npragma solidity ^0.8.1;\n\nimport \"./Farmer.sol\";\nimport \"./Distributor.sol\";\nimport \"./Escrow.sol\";\n\ncontract DaliahMarketplace {\n  Farmer public farmer;\n  Distributor public dist;\n  Escrow public escrow;\n\n  constructor(\n    Farmer _farmer,\n    Distributor _dist,\n    Escrow _escrow\n  ) {\n    farmer = _farmer;\n    dist = _dist;\n    escrow = _escrow;\n  }\n\n  struct Carrier {\n    uint256 orderStatus; // 0 = Pending // 1 = On the way // 2 = Deliverd\n    string carrierName;\n    uint256 carPlateNumber;\n    uint256 vehicleTemp;\n    string vehicleTempImage;\n    uint256 pickupDate;\n    string pickupDateImage;\n    uint256 deliveredAt;\n    string deliveredAtImage;\n  }\n\n  //Creating the reference data for order\n  struct Order {\n    uint256 productID;\n    uint256 quantity;\n    uint256 totalPrice;\n    //uint256 distributorID;\n    address distributorAddress;\n    address farmerAddress;\n    address carrierAddress;\n    Carrier carrier;\n    bool isCompleted;\n    uint256 isAccepted; // 0 = pending / 1 = accepted / 2 = rejected\n    bool isCancelled;\n    bool isRefundApproved;\n    bool isRefundRequested;\n    DamageCase[] damages;\n  }\n\n  function getDamages(uint256 _orderID)\n    public\n    view\n    returns (DamageCase[] memory)\n  {\n    return ordersMapping[_orderID].damages;\n  }\n\n  mapping(uint256 => Order) public ordersMapping;\n  uint256 public orderCounter;\n\n  // Placing order by the distributor\n  function placeOrder(\n    uint256 _productID,\n    uint256 _quantity,\n    address _farmerAddress\n  ) public {\n    require(\n      dist.hasProfile(),  // Fixed negation\n      \"You should have a profile in order to place an order\"\n    );\n    // set order isCompleted to false by defualt,\n    //where there will be another function to mark order as completed from both parties farmer and distributor\n\n    escrow.deposit(\n      orderCounter,\n      payable(msg.sender),\n      payable(_farmerAddress),\n      getOrderTotalPrice(_productID, _quantity)\n    );\n    //ordersMapping[orderCounter].orderID = orderCounter;\n    ordersMapping[orderCounter].productID = _productID;\n    ordersMapping[orderCounter].quantity = _quantity;\n    ordersMapping[orderCounter].totalPrice = getOrderTotalPrice(\n      _productID,\n      _quantity\n    );\n    ordersMapping[orderCounter].distributorAddress = msg.sender;\n    ordersMapping[orderCounter].farmerAddress = _farmerAddress;\n\n    emit newOrderEvent(orderCounter);\n    orderCounter++;\n  }\n\n  function getOrderPaymentDeatils(uint256 _orderID)\n    public\n    view\n    returns (\n      address payable,\n      address payable,\n      uint256,\n      string memory,\n      bool,\n      bool\n    )\n  {\n    return (\n      escrow.getPayment(_orderID).customer,\n      escrow.getPayment(_orderID).farmer,\n      escrow.getPayment(_orderID).amount,\n      escrow.getPaymentStatus(escrow.getPayment(_orderID).status),\n      escrow.getPayment(_orderID).refundApproved,\n      escrow.getPayment(_orderID).isCancelled\n    );\n  }\n\n  function getOrderTotalPrice(uint256 _harvestID, uint256 _qty)\n    public\n    view\n    returns (uint256)\n  {\n    require(\n      farmer.getHarvestData(_harvestID).minOrderQty <= _qty,\n      \"The requested Qty is less than the minimum ordering qty\"\n    );\n\n    return farmer.getHarvestData(_harvestID).pricePerKG * _qty * 1 ether;\n  }\n\n  function requestRefund(uint256 _orderID) public {\n    require(\n      ordersMapping[_orderID].distributorAddress == msg.sender,\n      \"You are not authorized to request a refund\"\n    );\n    require(\n      ordersMapping[_orderID].isAccepted != 0,\n      \"Farmer didn't accept your order, you can cancel it and get a refund\"\n    );\n\n    ordersMapping[_orderID].isRefundRequested = true;\n  }\n\n  function approveRefund(uint256 _orderID) public {\n    require(\n      msg.sender == ordersMapping[_orderID].farmerAddress,\n      \"You are not authroized to approve refunds\"\n    );\n    escrow.approveRefund(_orderID);\n    ordersMapping[_orderID].isRefundApproved = true;\n  }\n\n  function withdrawRefund(uint256 _orderID) public {\n    escrow.refund(_orderID);\n  }\n\n  // Function foir the disturbutor to able to cancel the order before it get accepted by the farmer while it's pending\n  function cancelOrder(uint256 _orderID) public {\n    require(\n      ordersMapping[_orderID].distributorAddress == msg.sender,\n      \"You are not authorized to adjust order\"\n    );\n\n    require(\n      ordersMapping[_orderID].isAccepted == 0,\n      \"You can't cancel accepted orders, Contact your farmer\"\n    );\n\n    ordersMapping[_orderID].isCancelled = true;\n    ordersMapping[_orderID].isRefundApproved = true;\n    ordersMapping[_orderID].isRefundRequested = true;\n\n    escrow.setOrderCancelled(_orderID);\n  }\n\n  // Set order as complete by distributor and check if the transaction came from distributor address\n  function setOrderCompleted(uint256 _orderID) public {\n    require(\n      msg.sender == ordersMapping[_orderID].distributorAddress,\n      \"You are not authorized to set order as completed\"\n    );\n    require(\n      ordersMapping[_orderID].isAccepted == 1,\n      \"You can't adjust orders that are not accepted or cancelled, Contact your farmer\"\n    );\n    require(\n      !ordersMapping[_orderID].isCancelled,\n      \"You can't set order completed, Your order is cancelled\"\n    );\n    escrow.approveOrderDelivery(_orderID);\n    ordersMapping[_orderID].isCompleted = true;\n    emit orderCompetedEvent(_orderID);\n  }\n\n  function withdrawMoney(uint256 _orderID) public {\n    escrow.withdraw(_orderID);\n  }\n\n  // Set order as accepted by farmer and check if the transaction came from farmer address\n  function changeOrderStatus(\n    uint256 _orderID,\n    uint256 status,\n    string memory reason\n  ) public {\n    require(\n      msg.sender == ordersMapping[_orderID].farmerAddress,\n      \"You are not authorized to set order as accepted\"\n    );\n    require(\n      ordersMapping[_orderID].isAccepted == 0,\n      \"You can't change the status of the order after getting marked accepted or rejected\"\n    );\n    ordersMapping[_orderID].isAccepted = status;\n    emit orderAcceptedEvent(_orderID, status, reason);\n  }\n\n  function inviteCarrier(uint256 _orderID, address _carrierAdress) public {\n    require(\n      msg.sender == ordersMapping[_orderID].distributorAddress,\n      \"You are not authorized to invite carriers\"\n    );\n    require(\n      ordersMapping[_orderID].carrierAddress == address(0),\n      \"Carrier Invitation Already\"\n    );\n\n    ordersMapping[_orderID].carrierAddress = _carrierAdress;\n\n    emit carrierInvitation(_orderID, _carrierAdress);\n  }\n\n  function acceptCarrierInvitation(\n    uint256 _orderID,\n    string memory _carrierName,\n    uint256 _carPlateNumber\n  ) public {\n    require(\n      ordersMapping[_orderID].carrierAddress == msg.sender,\n      \"You can't accept this invitation, You do not have any active invitations\"\n    );\n    require(\n      ordersMapping[_orderID].carrier.carPlateNumber == 0,\n      \"You already accepted the invitation\"\n    );\n\n    ordersMapping[_orderID].carrier.carrierName = _carrierName;\n    ordersMapping[_orderID].carrier.carPlateNumber = _carPlateNumber;\n    ordersMapping[_orderID].carrier.orderStatus = 0;\n\n    emit orderShippingStatusUpdated(\n      _orderID,\n      \"Carrier accepted the order and should be picked up soon!\"\n    );\n    emit carrierInvitationAccepted(_orderID, msg.sender);\n  }\n\n  function updateOrderPickupTime(uint256 _orderID, string memory _imageHash)\n    public\n  {\n    require(\n      msg.sender == ordersMapping[_orderID].carrierAddress,\n      \"You are not authorized to update order status!\"\n    );\n    require(\n      ordersMapping[_orderID].carrier.pickupDate == 0,\n      \"Order Already Picked up!\"\n    );\n\n    ordersMapping[_orderID].carrier.pickupDate = block.timestamp;\n    ordersMapping[_orderID].carrier.pickupDateImage = _imageHash;\n    ordersMapping[_orderID].carrier.orderStatus = 1;\n\n    emit orderShippingStatusUpdated(\n      _orderID,\n      \"Order has been picked up and on the way to the distributor!\"\n    );\n  }\n\n  function setVehicleTemp(\n    uint256 _orderID,\n    uint256 _temp,\n    string memory _imageHash\n  ) public {\n    require(\n      msg.sender == ordersMapping[_orderID].carrierAddress,\n      \"You are not authorized to update order status\"\n    );\n    require(\n      ordersMapping[_orderID].carrier.deliveredAt == 0,\n      \"Order Already deliverd\"\n    );\n\n    ordersMapping[_orderID].carrier.vehicleTemp = _temp;\n    ordersMapping[_orderID].carrier.vehicleTempImage = _imageHash;\n  }\n\n  function markOrderAsDelivered(uint256 _orderID, string memory _imageHash)\n    public\n  {\n    require(\n      msg.sender == ordersMapping[_orderID].carrierAddress,\n      \"You are not authorized to update order status\"\n    );\n    require(\n      ordersMapping[_orderID].carrier.deliveredAt == 0,\n      \"Order Already deliverd\"\n    );\n\n    ordersMapping[_orderID].carrier.deliveredAt = block.timestamp;\n    ordersMapping[_orderID].carrier.deliveredAtImage = _imageHash;\n    ordersMapping[_orderID].carrier.orderStatus = 2;\n\n    emit orderShippingStatusUpdated(\n      _orderID,\n      \"Order has been deliverd to the distributor!\"\n    );\n  }\n\n  // Check the number of orders in ordersMapping\n  function noOrders() public view returns (uint256) {\n    return orderCounter;\n  }\n\n  struct DamageCase {\n    string _imageHash;\n    string caseDesc;\n  }\n\n  function reportDamages(\n    uint256 _orderID,\n    string memory _caseDesc,\n    string memory _imageHash\n  ) public {\n    ordersMapping[_orderID].damages.push(DamageCase(_caseDesc, _imageHash));\n\n    emit damageCase(_orderID, _caseDesc, _imageHash);\n  }\n\n  event newOrderEvent(uint256 indexed _orderID);\n\n  event damageCase(\n    uint256 indexed _orderID,\n    string _caseDesc,\n    string _imageHash\n  );\n\n  event orderAcceptedEvent(\n    uint256 indexed _orderID,\n    uint256 orderStatus,\n    string notes\n  );\n\n  event orderCompetedEvent(uint256 indexed _orderID);\n\n  event carrierInvitation(uint256 indexed _orderID, address carrierAddress);\n\n  event carrierInvitationAccepted(\n    uint256 indexed _orderID,\n    address carrierAddress\n  );\n\n  event orderShippingStatusUpdated(\n    uint256 indexed _orderID,\n    string _orderStatus\n  );\n}\n",
  "sourcePath": "/Users/ericr./Dev/web3/supply-chain-truffle/Truffle/contracts/DaliahMarketplace.sol",
  "compiler": {
    "name": "solc",
    "version": "0.8.1+commit.df193b15.Emscripten.clang"
  },
  "schemaVersion": "3.4.16",
  "updatedAt": "2025-10-24T01:10:07.450Z",
  "networkType": "ethereum",
  "devdoc": {
    "kind": "dev",
    "methods": {},
    "version": 1
  },
  "userdoc": {
    "kind": "user",
    "methods": {},
    "version": 1
  }
}