{
  "contractName": "Distributor",
  "abi": [
    {
      "anonymous": false,
      "inputs": [
        {
          "indexed": true,
          "internalType": "address",
          "name": "distAddress",
          "type": "address"
        },
        {
          "indexed": false,
          "internalType": "string",
          "name": "distName",
          "type": "string"
        }
      ],
      "name": "newDistRegisterd",
      "type": "event"
    },
    {
      "inputs": [
        {
          "internalType": "address",
          "name": "",
          "type": "address"
        }
      ],
      "name": "distProfiles",
      "outputs": [
        {
          "internalType": "string",
          "name": "name",
          "type": "string"
        },
        {
          "internalType": "string",
          "name": "physicalAddress",
          "type": "string"
        },
        {
          "internalType": "address",
          "name": "distAddress",
          "type": "address"
        }
      ],
      "stateMutability": "view",
      "type": "function",
      "constant": true
    },
    {
      "inputs": [
        {
          "internalType": "string",
          "name": "_name",
          "type": "string"
        },
        {
          "internalType": "string",
          "name": "_physicalAddress",
          "type": "string"
        }
      ],
      "name": "register",
      "outputs": [],
      "stateMutability": "nonpayable",
      "type": "function"
    },
    {
      "inputs": [],
      "name": "hasProfile",
      "outputs": [
        {
          "internalType": "bool",
          "name": "",
          "type": "bool"
        }
      ],
      "stateMutability": "view",
      "type": "function",
      "constant": true
    },
    {
      "inputs": [
        {
          "internalType": "address",
          "name": "_address",
          "type": "address"
        }
      ],
      "name": "getProfile",
      "outputs": [
        {
          "components": [
            {
              "internalType": "string",
              "name": "name",
              "type": "string"
            },
            {
              "internalType": "string",
              "name": "physicalAddress",
              "type": "string"
            },
            {
              "internalType": "address",
              "name": "distAddress",
              "type": "address"
            }
          ],
          "internalType": "struct Distributor.Profile",
          "name": "",
          "type": "tuple"
        }
      ],
      "stateMutability": "view",
      "type": "function",
      "constant": true
    }
  ],
  "bytecode": "0x608060405234801561001057600080fd5b50610e73806100206000396000f3fe608060405234801561001057600080fd5b506004361061004c5760003560e01c80630f53a4701461005157806316ae5161146100815780633ffbd47f1461009f578063621ac1fb146100bb575b600080fd5b61006b600480360381019061006691906108de565b6100ed565b6040516100789190610bb4565b60405180910390f35b6100896102bf565b6040516100969190610ad2565b60405180910390f35b6100b960048036038101906100b49190610907565b610357565b005b6100d560048036038101906100d091906108de565b61062d565b6040516100e493929190610b0f565b60405180910390f35b6100f5610787565b6000808373ffffffffffffffffffffffffffffffffffffffff1673ffffffffffffffffffffffffffffffffffffffff16815260200190815260200160002060405180606001604052908160008201805461014e90610cd9565b80601f016020809104026020016040519081016040528092919081815260200182805461017a90610cd9565b80156101c75780601f1061019c576101008083540402835291602001916101c7565b820191906000526020600020905b8154815290600101906020018083116101aa57829003601f168201915b505050505081526020016001820180546101e090610cd9565b80601f016020809104026020016040519081016040528092919081815260200182805461020c90610cd9565b80156102595780601f1061022e57610100808354040283529160200191610259565b820191906000526020600020905b81548152906001019060200180831161023c57829003601f168201915b505050505081526020016002820160009054906101000a900473ffffffffffffffffffffffffffffffffffffffff1673ffffffffffffffffffffffffffffffffffffffff1673ffffffffffffffffffffffffffffffffffffffff16815250509050919050565b60008073ffffffffffffffffffffffffffffffffffffffff166000803373ffffffffffffffffffffffffffffffffffffffff1673ffffffffffffffffffffffffffffffffffffffff16815260200190815260200160002060020160009054906101000a900473ffffffffffffffffffffffffffffffffffffffff1673ffffffffffffffffffffffffffffffffffffffff161415905090565b600082511161039b576040517f08c379a000000000000000000000000000000000000000000000000000000000815260040161039290610b54565b60405180910390fd5b60008151116103df576040517f08c379a00000000000000000000000000000000000000000000000000000000081526004016103d690610b94565b60405180910390fd5b600073ffffffffffffffffffffffffffffffffffffffff166000803373ffffffffffffffffffffffffffffffffffffffff1673ffffffffffffffffffffffffffffffffffffffff16815260200190815260200160002060020160009054906101000a900473ffffffffffffffffffffffffffffffffffffffff1673ffffffffffffffffffffffffffffffffffffffff16146104af576040517f08c379a00000000000000000000000000000000000000000000000000000000081526004016104a690610b74565b60405180910390fd5b816000803373ffffffffffffffffffffffffffffffffffffffff1673ffffffffffffffffffffffffffffffffffffffff16815260200190815260200160002060000190805190602001906105049291906107be565b50806000803373ffffffffffffffffffffffffffffffffffffffff1673ffffffffffffffffffffffffffffffffffffffff168152602001908152602001600020600101908051906020019061055a9291906107be565b50336000803373ffffffffffffffffffffffffffffffffffffffff1673ffffffffffffffffffffffffffffffffffffffff16815260200190815260200160002060020160006101000a81548173ffffffffffffffffffffffffffffffffffffffff021916908373ffffffffffffffffffffffffffffffffffffffff1602179055503373ffffffffffffffffffffffffffffffffffffffff167fb2cd6aeade2c49e163e94db5ae102b57e1949a9ec3255b99a094639bff4e5694836040516106219190610aed565b60405180910390a25050565b600060205280600052604060002060009150905080600001805461065090610cd9565b80601f016020809104026020016040519081016040528092919081815260200182805461067c90610cd9565b80156106c95780601f1061069e576101008083540402835291602001916106c9565b820191906000526020600020905b8154815290600101906020018083116106ac57829003601f168201915b5050505050908060010180546106de90610cd9565b80601f016020809104026020016040519081016040528092919081815260200182805461070a90610cd9565b80156107575780601f1061072c57610100808354040283529160200191610757565b820191906000526020600020905b81548152906001019060200180831161073a57829003601f168201915b5050505050908060020160009054906101000a900473ffffffffffffffffffffffffffffffffffffffff16905083565b60405180606001604052806060815260200160608152602001600073ffffffffffffffffffffffffffffffffffffffff1681525090565b8280546107ca90610cd9565b90600052602060002090601f0160209004810192826107ec5760008555610833565b82601f1061080557805160ff1916838001178555610833565b82800160010185558215610833579182015b82811115610832578251825591602001919060010190610817565b5b5090506108409190610844565b5090565b5b8082111561085d576000816000905550600101610845565b5090565b600061087461086f84610bfb565b610bd6565b90508281526020810184848401111561088c57600080fd5b610897848285610c97565b509392505050565b6000813590506108ae81610e26565b92915050565b600082601f8301126108c557600080fd5b81356108d5848260208601610861565b91505092915050565b6000602082840312156108f057600080fd5b60006108fe8482850161089f565b91505092915050565b6000806040838503121561091a57600080fd5b600083013567ffffffffffffffff81111561093457600080fd5b610940858286016108b4565b925050602083013567ffffffffffffffff81111561095d57600080fd5b610969858286016108b4565b9150509250929050565b61097c81610c59565b82525050565b61098b81610c59565b82525050565b61099a81610c6b565b82525050565b60006109ab82610c2c565b6109b58185610c37565b93506109c5818560208601610ca6565b6109ce81610d9a565b840191505092915050565b60006109e482610c2c565b6109ee8185610c48565b93506109fe818560208601610ca6565b610a0781610d9a565b840191505092915050565b6000610a1f601083610c48565b9150610a2a82610dab565b602082019050919050565b6000610a42601683610c48565b9150610a4d82610dd4565b602082019050919050565b6000610a65601c83610c48565b9150610a7082610dfd565b602082019050919050565b60006060830160008301518482036000860152610a9882826109a0565b91505060208301518482036020860152610ab282826109a0565b9150506040830151610ac76040860182610973565b508091505092915050565b6000602082019050610ae76000830184610991565b92915050565b60006020820190508181036000830152610b0781846109d9565b905092915050565b60006060820190508181036000830152610b2981866109d9565b90508181036020830152610b3d81856109d9565b9050610b4c6040830184610982565b949350505050565b60006020820190508181036000830152610b6d81610a12565b9050919050565b60006020820190508181036000830152610b8d81610a35565b9050919050565b60006020820190508181036000830152610bad81610a58565b9050919050565b60006020820190508181036000830152610bce8184610a7b565b905092915050565b6000610be0610bf1565b9050610bec8282610d0b565b919050565b6000604051905090565b600067ffffffffffffffff821115610c1657610c15610d6b565b5b610c1f82610d9a565b9050602081019050919050565b600081519050919050565b600082825260208201905092915050565b600082825260208201905092915050565b6000610c6482610c77565b9050919050565b60008115159050919050565b600073ffffffffffffffffffffffffffffffffffffffff82169050919050565b82818337600083830152505050565b60005b83811015610cc4578082015181840152602081019050610ca9565b83811115610cd3576000848401525b50505050565b60006002820490506001821680610cf157607f821691505b60208210811415610d0557610d04610d3c565b5b50919050565b610d1482610d9a565b810181811067ffffffffffffffff82111715610d3357610d32610d6b565b5b80604052505050565b7f4e487b7100000000000000000000000000000000000000000000000000000000600052602260045260246000fd5b7f4e487b7100000000000000000000000000000000000000000000000000000000600052604160045260246000fd5b6000601f19601f8301169050919050565b7f4e616d6520697320726571756972656400000000000000000000000000000000600082015250565b7f50726f66696c6520616c72656164792065786973747300000000000000000000600082015250565b7f506879736963616c206164647265737320697320726571756972656400000000600082015250565b610e2f81610c59565b8114610e3a57600080fd5b5056fea26469706673582212209fa77cb3afb4eda60fede3301e4845f0e710181f24826638d30bd22625ba2a0164736f6c63430008010033",
  "immutableReferences": {},
  "source": "// SPDX-License-Identifier: MIT\n\npragma solidity ^0.8.1;\n\ncontract Distributor {\n  struct Profile {\n    string name;\n    string physicalAddress;\n    address distAddress;\n  }\n\n  mapping(address => Profile) public distProfiles;\n\n  function register(string memory _name, string memory _physicalAddress)\n    public\n  {\n    require(bytes(_name).length > 0, \"Name is required\");\n    require(bytes(_physicalAddress).length > 0, \"Physical address is required\");\n    require(distProfiles[msg.sender].distAddress == address(0), \"Profile already exists\");\n\n    distProfiles[msg.sender].name = _name;\n    distProfiles[msg.sender].physicalAddress = _physicalAddress;\n    distProfiles[msg.sender].distAddress = msg.sender;\n\n    emit newDistRegisterd(msg.sender, _name);\n  }\n\n  function hasProfile() public view returns(bool) {\n    return address(distProfiles[msg.sender].distAddress) != address(0);\n  }\n\n  function getProfile(address _address) public view returns (Profile memory) {\n    return distProfiles[_address];\n  }\n\n  event newDistRegisterd(address indexed distAddress, string distName);\n}\n",
  "sourcePath": "/Users/ericr./Dev/web3/supply-chain-truffle/Truffle/contracts/Distributor.sol",
  "compiler": {
    "name": "solc",
    "version": "0.8.1+commit.df193b15.Emscripten.clang"
  },
  "schemaVersion": "3.4.16",
  "updatedAt": "2025-10-24T01:10:07.476Z",
  "networkType": "ethereum",
  "devdoc": {
    "kind": "dev",
    "methods": {},
    "version": 1
  },
  "userdoc": {
    "kind": "user",
    "methods": {},
    "version": 1
  }
}