{
  "contractName": "Distributor",
  "abi": [
    {
      "anonymous": false,
      "inputs": [
        {
          "indexed": true,
          "internalType": "address",
          "name": "distAddress",
          "type": "address"
        },
        {
          "indexed": false,
          "internalType": "string",
          "name": "distName",
          "type": "string"
        }
      ],
      "name": "newDistRegisterd",
      "type": "event"
    },
    {
      "inputs": [
        {
          "internalType": "address",
          "name": "",
          "type": "address"
        }
      ],
      "name": "distProfiles",
      "outputs": [
        {
          "internalType": "string",
          "name": "name",
          "type": "string"
        },
        {
          "internalType": "string",
          "name": "physicalAddress",
          "type": "string"
        },
        {
          "internalType": "address",
          "name": "distAddress",
          "type": "address"
        }
      ],
      "stateMutability": "view",
      "type": "function"
    },
    {
      "inputs": [
        {
          "internalType": "address",
          "name": "_address",
          "type": "address"
        }
      ],
      "name": "getProfile",
      "outputs": [
        {
          "components": [
            {
              "internalType": "string",
              "name": "name",
              "type": "string"
            },
            {
              "internalType": "string",
              "name": "physicalAddress",
              "type": "string"
            },
            {
              "internalType": "address",
              "name": "distAddress",
              "type": "address"
            }
          ],
          "internalType": "struct Distributor.Profile",
          "name": "",
          "type": "tuple"
        }
      ],
      "stateMutability": "view",
      "type": "function"
    },
    {
      "inputs": [],
      "name": "hasProfile",
      "outputs": [
        {
          "internalType": "bool",
          "name": "",
          "type": "bool"
        }
      ],
      "stateMutability": "view",
      "type": "function"
    },
    {
      "inputs": [
        {
          "internalType": "string",
          "name": "_name",
          "type": "string"
        },
        {
          "internalType": "string",
          "name": "_physicalAddress",
          "type": "string"
        }
      ],
      "name": "register",
      "outputs": [],
      "stateMutability": "nonpayable",
      "type": "function"
    }
  ],
  "bytecode": "0x608060405234801561001057600080fd5b506108c1806100206000396000f3fe608060405234801561001057600080fd5b50600436106100415760003560e01c806316ae5161146100465780633ffbd47f14610064578063621ac1fb14610080575b600080fd5b61004e6100b2565b60405161005b919061062e565b60405180910390f35b61007e6004803603810190610079919061056b565b61014a565b005b61009a60048036038101906100959190610542565b6102c8565b6040516100a99392919061066b565b60405180910390f35b60008073ffffffffffffffffffffffffffffffffffffffff166000803373ffffffffffffffffffffffffffffffffffffffff1673ffffffffffffffffffffffffffffffffffffffff16815260200190815260200160002060020160009054906101000a900473ffffffffffffffffffffffffffffffffffffffff1673ffffffffffffffffffffffffffffffffffffffff161415905090565b816000803373ffffffffffffffffffffffffffffffffffffffff1673ffffffffffffffffffffffffffffffffffffffff168152602001908152602001600020600001908051906020019061019f929190610422565b50806000803373ffffffffffffffffffffffffffffffffffffffff1673ffffffffffffffffffffffffffffffffffffffff16815260200190815260200160002060010190805190602001906101f5929190610422565b50336000803373ffffffffffffffffffffffffffffffffffffffff1673ffffffffffffffffffffffffffffffffffffffff16815260200190815260200160002060020160006101000a81548173ffffffffffffffffffffffffffffffffffffffff021916908373ffffffffffffffffffffffffffffffffffffffff1602179055503373ffffffffffffffffffffffffffffffffffffffff167fb2cd6aeade2c49e163e94db5ae102b57e1949a9ec3255b99a094639bff4e5694836040516102bc9190610649565b60405180910390a25050565b60006020528060005260406000206000915090508060000180546102eb906107a2565b80601f0160208091040260200160405190810160405280929190818152602001828054610317906107a2565b80156103645780601f1061033957610100808354040283529160200191610364565b820191906000526020600020905b81548152906001019060200180831161034757829003601f168201915b505050505090806001018054610379906107a2565b80601f01602080910402602001604051908101604052809291908181526020018280546103a5906107a2565b80156103f25780601f106103c7576101008083540402835291602001916103f2565b820191906000526020600020905b8154815290600101906020018083116103d557829003601f168201915b5050505050908060020160009054906101000a900473ffffffffffffffffffffffffffffffffffffffff16905083565b82805461042e906107a2565b90600052602060002090601f0160209004810192826104505760008555610497565b82601f1061046957805160ff1916838001178555610497565b82800160010185558215610497579182015b8281111561049657825182559160200191906001019061047b565b5b5090506104a491906104a8565b5090565b5b808211156104c15760008160009055506001016104a9565b5090565b60006104d86104d3846106d5565b6106b0565b9050828152602081018484840111156104f057600080fd5b6104fb848285610760565b509392505050565b60008135905061051281610874565b92915050565b600082601f83011261052957600080fd5b81356105398482602086016104c5565b91505092915050565b60006020828403121561055457600080fd5b600061056284828501610503565b91505092915050565b6000806040838503121561057e57600080fd5b600083013567ffffffffffffffff81111561059857600080fd5b6105a485828601610518565b925050602083013567ffffffffffffffff8111156105c157600080fd5b6105cd85828601610518565b9150509250929050565b6105e081610722565b82525050565b6105ef81610734565b82525050565b600061060082610706565b61060a8185610711565b935061061a81856020860161076f565b61062381610863565b840191505092915050565b600060208201905061064360008301846105e6565b92915050565b6000602082019050818103600083015261066381846105f5565b905092915050565b6000606082019050818103600083015261068581866105f5565b9050818103602083015261069981856105f5565b90506106a860408301846105d7565b949350505050565b60006106ba6106cb565b90506106c682826107d4565b919050565b6000604051905090565b600067ffffffffffffffff8211156106f0576106ef610834565b5b6106f982610863565b9050602081019050919050565b600081519050919050565b600082825260208201905092915050565b600061072d82610740565b9050919050565b60008115159050919050565b600073ffffffffffffffffffffffffffffffffffffffff82169050919050565b82818337600083830152505050565b60005b8381101561078d578082015181840152602081019050610772565b8381111561079c576000848401525b50505050565b600060028204905060018216806107ba57607f821691505b602082108114156107ce576107cd610805565b5b50919050565b6107dd82610863565b810181811067ffffffffffffffff821117156107fc576107fb610834565b5b80604052505050565b7f4e487b7100000000000000000000000000000000000000000000000000000000600052602260045260246000fd5b7f4e487b7100000000000000000000000000000000000000000000000000000000600052604160045260246000fd5b6000601f19601f8301169050919050565b61087d81610722565b811461088857600080fd5b5056fea264697066735822122096f617b052d7d5bcd6f888c6de5165a6528c76349b5c4fde7da5c07e22b7999864736f6c63430008010033",
  "immutableReferences": {},
  "source": "// SPDX-License-Identifier: MIT\n\npragma solidity ^0.8.1;\n\ncontract Distributor {\n  struct Profile {\n    string name;\n    string physicalAddress;\n    address distAddress;\n  }\n\n  mapping(address => Profile) public distProfiles;\n\n  function register(string memory _name, string memory _physicalAddress)\n    public\n  {\n    \n\n    distProfiles[msg.sender].name = _name;\n    distProfiles[msg.sender].physicalAddress = _physicalAddress;\n    distProfiles[msg.sender].distAddress = msg.sender;\n\n    emit newDistRegisterd(msg.sender, _name);\n  }\n\n  function hasProfile() public view returns(bool) {\n        return address(distProfiles[msg.sender].distAddress) != address(0);\n    }\n\n  event newDistRegisterd(address indexed distAddress, string distName);\n}\n",
  "sourcePath": "/Users/laithalghoul 1/Desktop/supplychain-latest/supplychain-blockchain/Truffle/contracts/Distributor.sol",
  "compiler": {
    "name": "solc",
    "version": "0.8.1+commit.df193b15.Emscripten.clang"
  },
  "schemaVersion": "3.4.7",
  "updatedAt": "2022-06-20T12:19:38.749Z",
  "networkType": "ethereum",
  "devdoc": {
    "kind": "dev",
    "methods": {},
    "version": 1
  },
  "userdoc": {
    "kind": "user",
    "methods": {},
    "version": 1
  }
}