{
  "contractName": "Escrow",
  "abi": [
    {
      "inputs": [
        {
          "internalType": "contract IERC20",
          "name": "_token",
          "type": "address"
        },
        {
          "internalType": "uint256",
          "name": "_fee",
          "type": "uint256"
        }
      ],
      "stateMutability": "nonpayable",
      "type": "constructor"
    },
    {
      "anonymous": false,
      "inputs": [
        {
          "indexed": true,
          "internalType": "address",
          "name": "customer",
          "type": "address"
        },
        {
          "indexed": false,
          "internalType": "uint256",
          "name": "amount",
          "type": "uint256"
        }
      ],
      "name": "Deposited",
      "type": "event"
    },
    {
      "anonymous": false,
      "inputs": [
        {
          "indexed": true,
          "internalType": "address",
          "name": "previousOwner",
          "type": "address"
        },
        {
          "indexed": true,
          "internalType": "address",
          "name": "newOwner",
          "type": "address"
        }
      ],
      "name": "OwnershipTransferred",
      "type": "event"
    },
    {
      "anonymous": false,
      "inputs": [
        {
          "indexed": true,
          "internalType": "address",
          "name": "farmer",
          "type": "address"
        },
        {
          "indexed": false,
          "internalType": "uint256",
          "name": "amount",
          "type": "uint256"
        }
      ],
      "name": "Withdrawn",
      "type": "event"
    },
    {
      "inputs": [],
      "name": "fee",
      "outputs": [
        {
          "internalType": "uint256",
          "name": "",
          "type": "uint256"
        }
      ],
      "stateMutability": "view",
      "type": "function",
      "constant": true
    },
    {
      "inputs": [],
      "name": "owner",
      "outputs": [
        {
          "internalType": "address",
          "name": "",
          "type": "address"
        }
      ],
      "stateMutability": "view",
      "type": "function",
      "constant": true
    },
    {
      "inputs": [
        {
          "internalType": "uint256",
          "name": "",
          "type": "uint256"
        }
      ],
      "name": "payments",
      "outputs": [
        {
          "internalType": "address payable",
          "name": "customer",
          "type": "address"
        },
        {
          "internalType": "address payable",
          "name": "farmer",
          "type": "address"
        },
        {
          "internalType": "uint256",
          "name": "amount",
          "type": "uint256"
        },
        {
          "internalType": "enum Escrow.PaymentStatus",
          "name": "status",
          "type": "uint8"
        },
        {
          "internalType": "bool",
          "name": "refundApproved",
          "type": "bool"
        },
        {
          "internalType": "bool",
          "name": "isCancelled",
          "type": "bool"
        }
      ],
      "stateMutability": "view",
      "type": "function",
      "constant": true
    },
    {
      "inputs": [],
      "name": "renounceOwnership",
      "outputs": [],
      "stateMutability": "nonpayable",
      "type": "function"
    },
    {
      "inputs": [
        {
          "internalType": "address",
          "name": "newOwner",
          "type": "address"
        }
      ],
      "name": "transferOwnership",
      "outputs": [],
      "stateMutability": "nonpayable",
      "type": "function"
    },
    {
      "inputs": [
        {
          "internalType": "enum Escrow.PaymentStatus",
          "name": "_paymentStatus",
          "type": "uint8"
        }
      ],
      "name": "getPaymentStatus",
      "outputs": [
        {
          "internalType": "string",
          "name": "",
          "type": "string"
        }
      ],
      "stateMutability": "pure",
      "type": "function",
      "constant": true
    },
    {
      "inputs": [
        {
          "internalType": "uint256",
          "name": "_paymentID",
          "type": "uint256"
        }
      ],
      "name": "getPayment",
      "outputs": [
        {
          "components": [
            {
              "internalType": "address payable",
              "name": "customer",
              "type": "address"
            },
            {
              "internalType": "address payable",
              "name": "farmer",
              "type": "address"
            },
            {
              "internalType": "uint256",
              "name": "amount",
              "type": "uint256"
            },
            {
              "internalType": "enum Escrow.PaymentStatus",
              "name": "status",
              "type": "uint8"
            },
            {
              "internalType": "bool",
              "name": "refundApproved",
              "type": "bool"
            },
            {
              "internalType": "bool",
              "name": "isCancelled",
              "type": "bool"
            }
          ],
          "internalType": "struct Escrow.Payment",
          "name": "",
          "type": "tuple"
        }
      ],
      "stateMutability": "view",
      "type": "function",
      "constant": true
    },
    {
      "inputs": [],
      "name": "transferFee",
      "outputs": [],
      "stateMutability": "nonpayable",
      "type": "function"
    },
    {
      "inputs": [
        {
          "internalType": "uint256",
          "name": "_orderId",
          "type": "uint256"
        }
      ],
      "name": "approveOrderDelivery",
      "outputs": [],
      "stateMutability": "nonpayable",
      "type": "function"
    },
    {
      "inputs": [
        {
          "internalType": "uint256",
          "name": "_orderId",
          "type": "uint256"
        }
      ],
      "name": "setOrderCancelled",
      "outputs": [],
      "stateMutability": "nonpayable",
      "type": "function"
    },
    {
      "inputs": [
        {
          "internalType": "uint256",
          "name": "_orderId",
          "type": "uint256"
        },
        {
          "internalType": "address payable",
          "name": "_customer",
          "type": "address"
        },
        {
          "internalType": "address payable",
          "name": "_farmer",
          "type": "address"
        },
        {
          "internalType": "uint256",
          "name": "_amount",
          "type": "uint256"
        }
      ],
      "name": "deposit",
      "outputs": [],
      "stateMutability": "payable",
      "type": "function",
      "payable": true
    },
    {
      "inputs": [
        {
          "internalType": "uint256",
          "name": "_orderId",
          "type": "uint256"
        }
      ],
      "name": "approveRefund",
      "outputs": [],
      "stateMutability": "nonpayable",
      "type": "function"
    },
    {
      "inputs": [
        {
          "internalType": "uint256",
          "name": "_orderId",
          "type": "uint256"
        }
      ],
      "name": "refund",
      "outputs": [],
      "stateMutability": "nonpayable",
      "type": "function"
    },
    {
      "inputs": [
        {
          "internalType": "uint256",
          "name": "_orderId",
          "type": "uint256"
        }
      ],
      "name": "withdraw",
      "outputs": [],
      "stateMutability": "nonpayable",
      "type": "function"
    }
  ],
  "bytecode": "0x60806040523480156200001157600080fd5b506040516200232b3803806200232b8339818101604052810190620000379190620001a1565b620000576200004b620000a760201b60201c565b620000af60201b60201c565b81600360006101000a81548173ffffffffffffffffffffffffffffffffffffffff021916908373ffffffffffffffffffffffffffffffffffffffff16021790555080600181905550505062000268565b600033905090565b60008060009054906101000a900473ffffffffffffffffffffffffffffffffffffffff169050816000806101000a81548173ffffffffffffffffffffffffffffffffffffffff021916908373ffffffffffffffffffffffffffffffffffffffff1602179055508173ffffffffffffffffffffffffffffffffffffffff168173ffffffffffffffffffffffffffffffffffffffff167f8be0079c531659141344cd1fd0a4f28419497f9722a3daafe3b4186f6b6457e060405160405180910390a35050565b600081519050620001848162000234565b92915050565b6000815190506200019b816200024e565b92915050565b60008060408385031215620001b557600080fd5b6000620001c58582860162000173565b9250506020620001d8858286016200018a565b9150509250929050565b6000620001ef826200020a565b9050919050565b60006200020382620001e2565b9050919050565b600073ffffffffffffffffffffffffffffffffffffffff82169050919050565b6000819050919050565b6200023f81620001f6565b81146200024b57600080fd5b50565b62000259816200022a565b81146200026557600080fd5b50565b6120b380620002786000396000f3fe6080604052600436106100dd5760003560e01c80637633b35e1161007f578063acb2ad6f11610059578063acb2ad6f146102ad578063ddca3f43146102c4578063e4cca4b0146102ef578063f2fde38b1461030b576100dd565b80637633b35e1461021757806387d81789146102405780638da5cb5b14610282576100dd565b80633280a836116100bb5780633280a8361461015d578063348a71a61461019a578063715018a6146101c357806373a5da4c146101da576100dd565b80631158ff89146100e2578063278ecde11461010b5780632e1a7d4d14610134575b600080fd5b3480156100ee57600080fd5b506101096004803603810190610104919061192b565b610334565b005b34801561011757600080fd5b50610132600480360381019061012d919061192b565b61046a565b005b34801561014057600080fd5b5061015b6004803603810190610156919061192b565b610626565b005b34801561016957600080fd5b50610184600480360381019061017f919061192b565b6108ea565b6040516101919190611d34565b60405180910390f35b3480156101a657600080fd5b506101c160048036038101906101bc919061192b565b610a8a565b005b3480156101cf57600080fd5b506101d8610b5c565b005b3480156101e657600080fd5b5061020160048036038101906101fc9190611902565b610b70565b60405161020e9190611c92565b60405180910390f35b34801561022357600080fd5b5061023e6004803603810190610239919061192b565b610f3d565b005b34801561024c57600080fd5b506102676004803603810190610262919061192b565b61107b565b60405161027996959493929190611ba8565b60405180910390f35b34801561028e57600080fd5b5061029761111e565b6040516102a49190611b8d565b60405180910390f35b3480156102b957600080fd5b506102c2611147565b005b3480156102d057600080fd5b506102d96112cb565b6040516102e69190611d4f565b60405180910390f35b61030960048036038101906103049190611954565b6112d1565b005b34801561031757600080fd5b50610332600480360381019061032d91906118b0565b6115db565b005b6000600481111561036e577f4e487b7100000000000000000000000000000000000000000000000000000000600052602160045260246000fd5b6004600083815260200190815260200160002060030160009054906101000a900460ff1660048111156103ca577f4e487b7100000000000000000000000000000000000000000000000000000000600052602160045260246000fd5b146103d457600080fd5b600480600083815260200190815260200160002060030160006101000a81548160ff02191690836004811115610433577f4e487b7100000000000000000000000000000000000000000000000000000000600052602160045260246000fd5b021790555060016004600083815260200190815260200160002060030160026101000a81548160ff02191690831515021790555050565b6004600082815260200190815260200160002060030160019054906101000a900460ff16806104b957506004600082815260200190815260200160002060030160029054906101000a900460ff165b6104c257600080fd5b600360009054906101000a900473ffffffffffffffffffffffffffffffffffffffff1673ffffffffffffffffffffffffffffffffffffffff1663a9059cbb6004600084815260200190815260200160002060000160009054906101000a900473ffffffffffffffffffffffffffffffffffffffff1660046000858152602001908152602001600020600201546040518363ffffffff1660e01b815260040161056b929190611c40565b602060405180830381600087803b15801561058557600080fd5b505af1158015610599573d6000803e3d6000fd5b505050506040513d601f19601f820116820180604052508101906105bd91906118d9565b5060036004600083815260200190815260200160002060030160006101000a81548160ff0219169083600481111561061e577f4e487b7100000000000000000000000000000000000000000000000000000000600052602160045260246000fd5b021790555050565b60016004811115610660577f4e487b7100000000000000000000000000000000000000000000000000000000600052602160045260246000fd5b6004600083815260200190815260200160002060030160009054906101000a900460ff1660048111156106bc577f4e487b7100000000000000000000000000000000000000000000000000000000600052602160045260246000fd5b146106fc576040517f08c379a00000000000000000000000000000000000000000000000000000000081526004016106f390611d14565b60405180910390fd5b600060046000838152602001908152602001600020600201549050600360009054906101000a900473ffffffffffffffffffffffffffffffffffffffff1673ffffffffffffffffffffffffffffffffffffffff1663a9059cbb6004600085815260200190815260200160002060010160009054906101000a900473ffffffffffffffffffffffffffffffffffffffff16836040518363ffffffff1660e01b81526004016107aa929190611c40565b602060405180830381600087803b1580156107c457600080fd5b505af11580156107d8573d6000803e3d6000fd5b505050506040513d601f19601f820116820180604052508101906107fc91906118d9565b5060026004600084815260200190815260200160002060030160006101000a81548160ff0219169083600481111561085d577f4e487b7100000000000000000000000000000000000000000000000000000000600052602160045260246000fd5b02179055506004600083815260200190815260200160002060010160009054906101000a900473ffffffffffffffffffffffffffffffffffffffff1673ffffffffffffffffffffffffffffffffffffffff167f7084f5476618d8e60b11ef0d7d3f06914655adb8793e28ff7f018d4c76d505d5826040516108de9190611d4f565b60405180910390a25050565b6108f26117a9565b600460008381526020019081526020016000206040518060c00160405290816000820160009054906101000a900473ffffffffffffffffffffffffffffffffffffffff1673ffffffffffffffffffffffffffffffffffffffff1673ffffffffffffffffffffffffffffffffffffffff1681526020016001820160009054906101000a900473ffffffffffffffffffffffffffffffffffffffff1673ffffffffffffffffffffffffffffffffffffffff1673ffffffffffffffffffffffffffffffffffffffff168152602001600282015481526020016003820160009054906101000a900460ff166004811115610a11577f4e487b7100000000000000000000000000000000000000000000000000000000600052602160045260246000fd5b6004811115610a49577f4e487b7100000000000000000000000000000000000000000000000000000000600052602160045260246000fd5b81526020016003820160019054906101000a900460ff161515151581526020016003820160029054906101000a900460ff1615151515815250509050919050565b60006004811115610ac4577f4e487b7100000000000000000000000000000000000000000000000000000000600052602160045260246000fd5b6004600083815260200190815260200160002060030160009054906101000a900460ff166004811115610b20577f4e487b7100000000000000000000000000000000000000000000000000000000600052602160045260246000fd5b14610b2a57600080fd5b60016004600083815260200190815260200160002060030160016101000a81548160ff02191690831515021790555050565b610b6461165f565b610b6e60006116dd565b565b6060816004811115610bab577f4e487b7100000000000000000000000000000000000000000000000000000000600052602160045260246000fd5b60006004811115610be5577f4e487b7100000000000000000000000000000000000000000000000000000000600052602160045260246000fd5b1415610c28576040518060400160405280600481526020017f50414944000000000000000000000000000000000000000000000000000000008152509050610f38565b816004811115610c61577f4e487b7100000000000000000000000000000000000000000000000000000000600052602160045260246000fd5b60016004811115610c9b577f4e487b7100000000000000000000000000000000000000000000000000000000600052602160045260246000fd5b1415610cde576040518060400160405280601481526020017f415050524f5645445f42595f435553544f4d45520000000000000000000000008152509050610f38565b816004811115610d17577f4e487b7100000000000000000000000000000000000000000000000000000000600052602160045260246000fd5b60026004811115610d51577f4e487b7100000000000000000000000000000000000000000000000000000000600052602160045260246000fd5b1415610d94576040518060400160405280600981526020017f434f4d504c4554454400000000000000000000000000000000000000000000008152509050610f38565b816004811115610dcd577f4e487b7100000000000000000000000000000000000000000000000000000000600052602160045260246000fd5b60036004811115610e07577f4e487b7100000000000000000000000000000000000000000000000000000000600052602160045260246000fd5b1415610e4a576040518060400160405280600881526020017f524546554e4445440000000000000000000000000000000000000000000000008152509050610f38565b816004811115610e83577f4e487b7100000000000000000000000000000000000000000000000000000000600052602160045260246000fd5b600480811115610ebc577f4e487b7100000000000000000000000000000000000000000000000000000000600052602160045260246000fd5b1415610eff576040518060400160405280600981526020017f43414e43454c4c454400000000000000000000000000000000000000000000008152509050610f38565b6040518060400160405280600981526020017f4e4f5420464f554e44000000000000000000000000000000000000000000000081525090505b919050565b60006004811115610f77577f4e487b7100000000000000000000000000000000000000000000000000000000600052602160045260246000fd5b6004600083815260200190815260200160002060030160009054906101000a900460ff166004811115610fd3577f4e487b7100000000000000000000000000000000000000000000000000000000600052602160045260246000fd5b14611013576040517f08c379a000000000000000000000000000000000000000000000000000000000815260040161100a90611cf4565b60405180910390fd5b60016004600083815260200190815260200160002060030160006101000a81548160ff02191690836004811115611073577f4e487b7100000000000000000000000000000000000000000000000000000000600052602160045260246000fd5b021790555050565b60046020528060005260406000206000915090508060000160009054906101000a900473ffffffffffffffffffffffffffffffffffffffff16908060010160009054906101000a900473ffffffffffffffffffffffffffffffffffffffff16908060020154908060030160009054906101000a900460ff16908060030160019054906101000a900460ff16908060030160029054906101000a900460ff16905086565b60008060009054906101000a900473ffffffffffffffffffffffffffffffffffffffff16905090565b61114f61165f565b600360009054906101000a900473ffffffffffffffffffffffffffffffffffffffff1673ffffffffffffffffffffffffffffffffffffffff1663095ea7b361119561111e565b6002546040518363ffffffff1660e01b81526004016111b5929190611c69565b602060405180830381600087803b1580156111cf57600080fd5b505af11580156111e3573d6000803e3d6000fd5b505050506040513d601f19601f8201168201806040525081019061120791906118d9565b50600360009054906101000a900473ffffffffffffffffffffffffffffffffffffffff1673ffffffffffffffffffffffffffffffffffffffff1663a9059cbb61124e61111e565b6002546040518363ffffffff1660e01b815260040161126e929190611c69565b602060405180830381600087803b15801561128857600080fd5b505af115801561129c573d6000803e3d6000fd5b505050506040513d601f19601f820116820180604052508101906112c091906118d9565b506000600281905550565b60015481565b600360009054906101000a900473ffffffffffffffffffffffffffffffffffffffff1673ffffffffffffffffffffffffffffffffffffffff166323b872dd84306001548561131f9190611d86565b6040518463ffffffff1660e01b815260040161133d93929190611c09565b602060405180830381600087803b15801561135757600080fd5b505af115801561136b573d6000803e3d6000fd5b505050506040513d601f19601f8201168201806040525081019061138f91906118d9565b506040518060c001604052808473ffffffffffffffffffffffffffffffffffffffff1681526020018373ffffffffffffffffffffffffffffffffffffffff16815260200182815260200160006004811115611413577f4e487b7100000000000000000000000000000000000000000000000000000000600052602160045260246000fd5b8152602001600015158152602001600015158152506004600086815260200190815260200160002060008201518160000160006101000a81548173ffffffffffffffffffffffffffffffffffffffff021916908373ffffffffffffffffffffffffffffffffffffffff16021790555060208201518160010160006101000a81548173ffffffffffffffffffffffffffffffffffffffff021916908373ffffffffffffffffffffffffffffffffffffffff1602179055506040820151816002015560608201518160030160006101000a81548160ff02191690836004811115611524577f4e487b7100000000000000000000000000000000000000000000000000000000600052602160045260246000fd5b021790555060808201518160030160016101000a81548160ff02191690831515021790555060a08201518160030160026101000a81548160ff021916908315150217905550905050600154600260008282546115809190611d86565b925050819055503373ffffffffffffffffffffffffffffffffffffffff167f2da466a7b24304f47e87fa2e1e5a81b9831ce54fec19055ce277ca2f39ba42c4826040516115cd9190611d4f565b60405180910390a250505050565b6115e361165f565b600073ffffffffffffffffffffffffffffffffffffffff168173ffffffffffffffffffffffffffffffffffffffff161415611653576040517f08c379a000000000000000000000000000000000000000000000000000000000815260040161164a90611cb4565b60405180910390fd5b61165c816116dd565b50565b6116676117a1565b73ffffffffffffffffffffffffffffffffffffffff1661168561111e565b73ffffffffffffffffffffffffffffffffffffffff16146116db576040517f08c379a00000000000000000000000000000000000000000000000000000000081526004016116d290611cd4565b60405180910390fd5b565b60008060009054906101000a900473ffffffffffffffffffffffffffffffffffffffff169050816000806101000a81548173ffffffffffffffffffffffffffffffffffffffff021916908373ffffffffffffffffffffffffffffffffffffffff1602179055508173ffffffffffffffffffffffffffffffffffffffff168173ffffffffffffffffffffffffffffffffffffffff167f8be0079c531659141344cd1fd0a4f28419497f9722a3daafe3b4186f6b6457e060405160405180910390a35050565b600033905090565b6040518060c00160405280600073ffffffffffffffffffffffffffffffffffffffff168152602001600073ffffffffffffffffffffffffffffffffffffffff168152602001600081526020016000600481111561182f577f4e487b7100000000000000000000000000000000000000000000000000000000600052602160045260246000fd5b81526020016000151581526020016000151581525090565b60008135905061185681612011565b92915050565b60008135905061186b81612028565b92915050565b6000815190506118808161203f565b92915050565b60008135905061189581612056565b92915050565b6000813590506118aa81612066565b92915050565b6000602082840312156118c257600080fd5b60006118d084828501611847565b91505092915050565b6000602082840312156118eb57600080fd5b60006118f984828501611871565b91505092915050565b60006020828403121561191457600080fd5b600061192284828501611886565b91505092915050565b60006020828403121561193d57600080fd5b600061194b8482850161189b565b91505092915050565b6000806000806080858703121561196a57600080fd5b60006119788782880161189b565b94505060206119898782880161185c565b935050604061199a8782880161185c565b92505060606119ab8782880161189b565b91505092959194509250565b6119c081611e49565b82525050565b6119cf81611dee565b82525050565b6119de81611dee565b82525050565b6119ed81611ddc565b82525050565b6119fc81611e00565b82525050565b611a0b81611e00565b82525050565b611a1a81611e5b565b82525050565b611a2981611e5b565b82525050565b6000611a3a82611d6a565b611a448185611d75565b9350611a54818560208601611e91565b611a5d81611f22565b840191505092915050565b6000611a75602683611d75565b9150611a8082611f33565b604082019050919050565b6000611a98602083611d75565b9150611aa382611f82565b602082019050919050565b6000611abb601283611d75565b9150611ac682611fab565b602082019050919050565b6000611ade601f83611d75565b9150611ae982611fd4565b602082019050919050565b60c082016000820151611b0a60008501826119c6565b506020820151611b1d60208501826119c6565b506040820151611b306040850182611b6f565b506060820151611b436060850182611a11565b506080820151611b5660808501826119f3565b5060a0820151611b6960a08501826119f3565b50505050565b611b7881611e3f565b82525050565b611b8781611e3f565b82525050565b6000602082019050611ba260008301846119e4565b92915050565b600060c082019050611bbd60008301896119d5565b611bca60208301886119d5565b611bd76040830187611b7e565b611be46060830186611a20565b611bf16080830185611a02565b611bfe60a0830184611a02565b979650505050505050565b6000606082019050611c1e60008301866119b7565b611c2b60208301856119e4565b611c386040830184611b7e565b949350505050565b6000604082019050611c5560008301856119b7565b611c626020830184611b7e565b9392505050565b6000604082019050611c7e60008301856119e4565b611c8b6020830184611b7e565b9392505050565b60006020820190508181036000830152611cac8184611a2f565b905092915050565b60006020820190508181036000830152611ccd81611a68565b9050919050565b60006020820190508181036000830152611ced81611a8b565b9050919050565b60006020820190508181036000830152611d0d81611aae565b9050919050565b60006020820190508181036000830152611d2d81611ad1565b9050919050565b600060c082019050611d496000830184611af4565b92915050565b6000602082019050611d646000830184611b7e565b92915050565b600081519050919050565b600082825260208201905092915050565b6000611d9182611e3f565b9150611d9c83611e3f565b9250827fffffffffffffffffffffffffffffffffffffffffffffffffffffffffffffffff03821115611dd157611dd0611ec4565b5b828201905092915050565b6000611de782611e1f565b9050919050565b6000611df982611e1f565b9050919050565b60008115159050919050565b6000819050611e1a82611ffd565b919050565b600073ffffffffffffffffffffffffffffffffffffffff82169050919050565b6000819050919050565b6000611e5482611e6d565b9050919050565b6000611e6682611e0c565b9050919050565b6000611e7882611e7f565b9050919050565b6000611e8a82611e1f565b9050919050565b60005b83811015611eaf578082015181840152602081019050611e94565b83811115611ebe576000848401525b50505050565b7f4e487b7100000000000000000000000000000000000000000000000000000000600052601160045260246000fd5b7f4e487b7100000000000000000000000000000000000000000000000000000000600052602160045260246000fd5b6000601f19601f8301169050919050565b7f4f776e61626c653a206e6577206f776e657220697320746865207a65726f206160008201527f6464726573730000000000000000000000000000000000000000000000000000602082015250565b7f4f776e61626c653a2063616c6c6572206973206e6f7420746865206f776e6572600082015250565b7f4f72646572206d75737420626520706169640000000000000000000000000000600082015250565b7f546865207061796d656e74206973207374696c6c20696e20657363726f772e00600082015250565b6005811061200e5761200d611ef3565b5b50565b61201a81611ddc565b811461202557600080fd5b50565b61203181611dee565b811461203c57600080fd5b50565b61204881611e00565b811461205357600080fd5b50565b6005811061206357600080fd5b50565b61206f81611e3f565b811461207a57600080fd5b5056fea26469706673582212207187360c162245abd692e9907e9f807228dd0960b9794b1a01684ffa6849202964736f6c63430008010033",
  "immutableReferences": {},
  "source": "pragma solidity ^0.8.1;\n// SPDX-License-Identifier: MIT\nimport \"@openzeppelin/contracts/token/ERC20/IERC20.sol\";\nimport \"@openzeppelin/contracts/access/Ownable.sol\";\n\ncontract Escrow is Ownable {\n  uint256 public fee;\n  uint256 collectedFee;\n  IERC20 token;\n\n  enum PaymentStatus {\n    PAID,\n    APPROVED_BY_CUSTOMER,\n    COMPLETED,\n    REFUNDED,\n    CANCELLED\n  }\n\n  function getPaymentStatus(PaymentStatus _paymentStatus)\n    external\n    pure\n    returns (string memory)\n  {\n    if (PaymentStatus.PAID == _paymentStatus) return \"PAID\";\n    if (PaymentStatus.APPROVED_BY_CUSTOMER == _paymentStatus)\n      return \"APPROVED_BY_CUSTOMER\";\n    if (PaymentStatus.COMPLETED == _paymentStatus) return \"COMPLETED\";\n    if (PaymentStatus.REFUNDED == _paymentStatus) return \"REFUNDED\";\n    if (PaymentStatus.CANCELLED == _paymentStatus) return \"CANCELLED\";\n    return \"NOT FOUND\";\n  }\n\n  event Deposited(address indexed customer, uint256 amount);\n  event Withdrawn(address indexed farmer, uint256 amount);\n\n  struct Payment {\n    address payable customer;\n    address payable farmer;\n    uint256 amount;\n    PaymentStatus status;\n    bool refundApproved;\n    bool isCancelled;\n  }\n\n  mapping(uint256 => Payment) public payments;\n\n  function getPayment(uint256 _paymentID)\n    external\n    view\n    returns (Payment memory)\n  {\n    return payments[_paymentID];\n  }\n\n  constructor(IERC20 _token, uint256 _fee) {\n    token = _token;\n    fee = _fee;\n  }\n\n  modifier requiresFee() {\n    require(msg.value >= fee, \"Not enough value.\");\n    _;\n  }\n\n  function transferFee() public onlyOwner {\n    token.approve(owner(), collectedFee);\n    token.transfer(owner(), collectedFee);\n    collectedFee = 0;\n  }\n\n  function approveOrderDelivery(uint256 _orderId) external {\n    require(\n      payments[_orderId].status == PaymentStatus.PAID,\n      \"Order must be paid\"\n    );\n\n    payments[_orderId].status = PaymentStatus.APPROVED_BY_CUSTOMER;\n  }\n\n  function setOrderCancelled(uint256 _orderId) external {\n    require(payments[_orderId].status == PaymentStatus.PAID);\n\n    payments[_orderId].status = PaymentStatus.CANCELLED;\n    payments[_orderId].isCancelled = true;\n  }\n\n  function deposit(\n    uint256 _orderId,\n    address payable _customer,\n    address payable _farmer,\n    uint256 _amount\n  ) external payable {\n    token.transferFrom(_customer, address(this), _amount + fee);\n\n    payments[_orderId] = Payment(\n      _customer,\n      _farmer,\n      _amount,\n      PaymentStatus.PAID,\n      false,\n      false\n    );\n\n    collectedFee += fee;\n    emit Deposited(msg.sender, _amount);\n  }\n\n  function approveRefund(uint256 _orderId) external {\n    require(payments[_orderId].status == PaymentStatus.PAID);\n\n    payments[_orderId].refundApproved = true;\n  }\n\n  function refund(uint256 _orderId) external {\n    require(\n      payments[_orderId].refundApproved || payments[_orderId].isCancelled\n    );\n    token.transfer(payments[_orderId].customer, payments[_orderId].amount);\n    payments[_orderId].status = PaymentStatus.REFUNDED;\n  }\n\n  function withdraw(uint256 _orderId) external {\n    require(\n      payments[_orderId].status == PaymentStatus.APPROVED_BY_CUSTOMER,\n      \"The payment is still in escrow.\"\n    );\n    uint256 payment = payments[_orderId].amount;\n    token.transfer(payments[_orderId].farmer, payment);\n    payments[_orderId].status = PaymentStatus.COMPLETED;\n    emit Withdrawn(payments[_orderId].farmer, payment);\n  }\n}\n",
  "sourcePath": "/Users/ericr./Dev/web3/supply-chain-truffle/Truffle/contracts/Escrow.sol",
  "compiler": {
    "name": "solc",
    "version": "0.8.1+commit.df193b15.Emscripten.clang"
  },
  "schemaVersion": "3.4.16",
  "updatedAt": "2025-10-24T01:10:07.493Z",
  "networkType": "ethereum",
  "devdoc": {
    "kind": "dev",
    "methods": {
      "owner()": {
        "details": "Returns the address of the current owner."
      },
      "renounceOwnership()": {
        "details": "Leaves the contract without owner. It will not be possible to call `onlyOwner` functions. Can only be called by the current owner. NOTE: Renouncing ownership will leave the contract without an owner, thereby disabling any functionality that is only available to the owner."
      },
      "transferOwnership(address)": {
        "details": "Transfers ownership of the contract to a new account (`newOwner`). Can only be called by the current owner."
      }
    },
    "version": 1
  },
  "userdoc": {
    "kind": "user",
    "methods": {},
    "version": 1
  }
}