{
  "contractName": "Escrow",
  "abi": [
    {
      "inputs": [
        {
          "internalType": "contract IERC20",
          "name": "_token",
          "type": "address"
        },
        {
          "internalType": "uint256",
          "name": "_fee",
          "type": "uint256"
        }
      ],
      "stateMutability": "nonpayable",
      "type": "constructor"
    },
    {
      "anonymous": false,
      "inputs": [
        {
          "indexed": true,
          "internalType": "address",
          "name": "customer",
          "type": "address"
        },
        {
          "indexed": false,
          "internalType": "uint256",
          "name": "amount",
          "type": "uint256"
        }
      ],
      "name": "Deposited",
      "type": "event"
    },
    {
      "anonymous": false,
      "inputs": [
        {
          "indexed": true,
          "internalType": "address",
          "name": "previousOwner",
          "type": "address"
        },
        {
          "indexed": true,
          "internalType": "address",
          "name": "newOwner",
          "type": "address"
        }
      ],
      "name": "OwnershipTransferred",
      "type": "event"
    },
    {
      "anonymous": false,
      "inputs": [
        {
          "indexed": true,
          "internalType": "address",
          "name": "farmer",
          "type": "address"
        },
        {
          "indexed": false,
          "internalType": "uint256",
          "name": "amount",
          "type": "uint256"
        }
      ],
      "name": "Withdrawn",
      "type": "event"
    },
    {
      "inputs": [],
      "name": "fee",
      "outputs": [
        {
          "internalType": "uint256",
          "name": "",
          "type": "uint256"
        }
      ],
      "stateMutability": "view",
      "type": "function",
      "constant": true
    },
    {
      "inputs": [],
      "name": "owner",
      "outputs": [
        {
          "internalType": "address",
          "name": "",
          "type": "address"
        }
      ],
      "stateMutability": "view",
      "type": "function",
      "constant": true
    },
    {
      "inputs": [
        {
          "internalType": "uint256",
          "name": "",
          "type": "uint256"
        }
      ],
      "name": "payments",
      "outputs": [
        {
          "internalType": "address payable",
          "name": "customer",
          "type": "address"
        },
        {
          "internalType": "address payable",
          "name": "farmer",
          "type": "address"
        },
        {
          "internalType": "uint256",
          "name": "amount",
          "type": "uint256"
        },
        {
          "internalType": "enum Escrow.PaymentStatus",
          "name": "status",
          "type": "uint8"
        },
        {
          "internalType": "bool",
          "name": "refundApproved",
          "type": "bool"
        },
        {
          "internalType": "bool",
          "name": "isCancelled",
          "type": "bool"
        }
      ],
      "stateMutability": "view",
      "type": "function",
      "constant": true
    },
    {
      "inputs": [],
      "name": "renounceOwnership",
      "outputs": [],
      "stateMutability": "nonpayable",
      "type": "function"
    },
    {
      "inputs": [
        {
          "internalType": "address",
          "name": "newOwner",
          "type": "address"
        }
      ],
      "name": "transferOwnership",
      "outputs": [],
      "stateMutability": "nonpayable",
      "type": "function"
    },
    {
      "inputs": [
        {
          "internalType": "enum Escrow.PaymentStatus",
          "name": "_paymentStatus",
          "type": "uint8"
        }
      ],
      "name": "getPaymentStatus",
      "outputs": [
        {
          "internalType": "string",
          "name": "",
          "type": "string"
        }
      ],
      "stateMutability": "pure",
      "type": "function",
      "constant": true
    },
    {
      "inputs": [
        {
          "internalType": "uint256",
          "name": "_paymentID",
          "type": "uint256"
        }
      ],
      "name": "getPayment",
      "outputs": [
        {
          "components": [
            {
              "internalType": "address payable",
              "name": "customer",
              "type": "address"
            },
            {
              "internalType": "address payable",
              "name": "farmer",
              "type": "address"
            },
            {
              "internalType": "uint256",
              "name": "amount",
              "type": "uint256"
            },
            {
              "internalType": "enum Escrow.PaymentStatus",
              "name": "status",
              "type": "uint8"
            },
            {
              "internalType": "bool",
              "name": "refundApproved",
              "type": "bool"
            },
            {
              "internalType": "bool",
              "name": "isCancelled",
              "type": "bool"
            }
          ],
          "internalType": "struct Escrow.Payment",
          "name": "",
          "type": "tuple"
        }
      ],
      "stateMutability": "view",
      "type": "function",
      "constant": true
    },
    {
      "inputs": [],
      "name": "transferFee",
      "outputs": [],
      "stateMutability": "nonpayable",
      "type": "function"
    },
    {
      "inputs": [
        {
          "internalType": "uint256",
          "name": "_orderId",
          "type": "uint256"
        }
      ],
      "name": "approveOrderDelivery",
      "outputs": [],
      "stateMutability": "nonpayable",
      "type": "function"
    },
    {
      "inputs": [
        {
          "internalType": "uint256",
          "name": "_orderId",
          "type": "uint256"
        }
      ],
      "name": "setOrderCancelled",
      "outputs": [],
      "stateMutability": "nonpayable",
      "type": "function"
    },
    {
      "inputs": [
        {
          "internalType": "uint256",
          "name": "_orderId",
          "type": "uint256"
        },
        {
          "internalType": "address payable",
          "name": "_customer",
          "type": "address"
        },
        {
          "internalType": "address payable",
          "name": "_farmer",
          "type": "address"
        },
        {
          "internalType": "uint256",
          "name": "_amount",
          "type": "uint256"
        }
      ],
      "name": "deposit",
      "outputs": [],
      "stateMutability": "payable",
      "type": "function",
      "payable": true
    },
    {
      "inputs": [
        {
          "internalType": "uint256",
          "name": "_orderId",
          "type": "uint256"
        }
      ],
      "name": "approveRefund",
      "outputs": [],
      "stateMutability": "nonpayable",
      "type": "function"
    },
    {
      "inputs": [
        {
          "internalType": "uint256",
          "name": "_orderId",
          "type": "uint256"
        }
      ],
      "name": "refund",
      "outputs": [],
      "stateMutability": "nonpayable",
      "type": "function"
    },
    {
      "inputs": [
        {
          "internalType": "uint256",
          "name": "_orderId",
          "type": "uint256"
        }
      ],
      "name": "withdraw",
      "outputs": [],
      "stateMutability": "nonpayable",
      "type": "function"
    }
  ],
  "bytecode": "0x60806040523480156200001157600080fd5b5060405162002409380380620024098339818101604052810190620000379190620001a1565b620000576200004b620000a760201b60201c565b620000af60201b60201c565b81600360006101000a81548173ffffffffffffffffffffffffffffffffffffffff021916908373ffffffffffffffffffffffffffffffffffffffff16021790555080600181905550505062000268565b600033905090565b60008060009054906101000a900473ffffffffffffffffffffffffffffffffffffffff169050816000806101000a81548173ffffffffffffffffffffffffffffffffffffffff021916908373ffffffffffffffffffffffffffffffffffffffff1602179055508173ffffffffffffffffffffffffffffffffffffffff168173ffffffffffffffffffffffffffffffffffffffff167f8be0079c531659141344cd1fd0a4f28419497f9722a3daafe3b4186f6b6457e060405160405180910390a35050565b600081519050620001848162000234565b92915050565b6000815190506200019b816200024e565b92915050565b60008060408385031215620001b557600080fd5b6000620001c58582860162000173565b9250506020620001d8858286016200018a565b9150509250929050565b6000620001ef826200020a565b9050919050565b60006200020382620001e2565b9050919050565b600073ffffffffffffffffffffffffffffffffffffffff82169050919050565b6000819050919050565b6200023f81620001f6565b81146200024b57600080fd5b50565b62000259816200022a565b81146200026557600080fd5b50565b61219180620002786000396000f3fe6080604052600436106100dd5760003560e01c80637633b35e1161007f578063acb2ad6f11610059578063acb2ad6f146102ad578063ddca3f43146102c4578063e4cca4b0146102ef578063f2fde38b1461030b576100dd565b80637633b35e1461021757806387d81789146102405780638da5cb5b14610282576100dd565b80633280a836116100bb5780633280a8361461015d578063348a71a61461019a578063715018a6146101c357806373a5da4c146101da576100dd565b80631158ff89146100e2578063278ecde11461010b5780632e1a7d4d14610134575b600080fd5b3480156100ee57600080fd5b5061010960048036038101906101049190611a09565b610334565b005b34801561011757600080fd5b50610132600480360381019061012d9190611a09565b61046a565b005b34801561014057600080fd5b5061015b60048036038101906101569190611a09565b610626565b005b34801561016957600080fd5b50610184600480360381019061017f9190611a09565b6108ea565b6040516101919190611e12565b60405180910390f35b3480156101a657600080fd5b506101c160048036038101906101bc9190611a09565b610a8a565b005b3480156101cf57600080fd5b506101d8610b5c565b005b3480156101e657600080fd5b5061020160048036038101906101fc91906119e0565b610be4565b60405161020e9190611d70565b60405180910390f35b34801561022357600080fd5b5061023e60048036038101906102399190611a09565b610fb1565b005b34801561024c57600080fd5b5061026760048036038101906102629190611a09565b6110ef565b60405161027996959493929190611c86565b60405180910390f35b34801561028e57600080fd5b50610297611192565b6040516102a49190611c6b565b60405180910390f35b3480156102b957600080fd5b506102c26111bb565b005b3480156102d057600080fd5b506102d96113b3565b6040516102e69190611e2d565b60405180910390f35b61030960048036038101906103049190611a32565b6113b9565b005b34801561031757600080fd5b50610332600480360381019061032d919061198e565b6116c3565b005b6000600481111561036e577f4e487b7100000000000000000000000000000000000000000000000000000000600052602160045260246000fd5b6004600083815260200190815260200160002060030160009054906101000a900460ff1660048111156103ca577f4e487b7100000000000000000000000000000000000000000000000000000000600052602160045260246000fd5b146103d457600080fd5b600480600083815260200190815260200160002060030160006101000a81548160ff02191690836004811115610433577f4e487b7100000000000000000000000000000000000000000000000000000000600052602160045260246000fd5b021790555060016004600083815260200190815260200160002060030160026101000a81548160ff02191690831515021790555050565b6004600082815260200190815260200160002060030160019054906101000a900460ff16806104b957506004600082815260200190815260200160002060030160029054906101000a900460ff165b6104c257600080fd5b600360009054906101000a900473ffffffffffffffffffffffffffffffffffffffff1673ffffffffffffffffffffffffffffffffffffffff1663a9059cbb6004600084815260200190815260200160002060000160009054906101000a900473ffffffffffffffffffffffffffffffffffffffff1660046000858152602001908152602001600020600201546040518363ffffffff1660e01b815260040161056b929190611d1e565b602060405180830381600087803b15801561058557600080fd5b505af1158015610599573d6000803e3d6000fd5b505050506040513d601f19601f820116820180604052508101906105bd91906119b7565b5060036004600083815260200190815260200160002060030160006101000a81548160ff0219169083600481111561061e577f4e487b7100000000000000000000000000000000000000000000000000000000600052602160045260246000fd5b021790555050565b60016004811115610660577f4e487b7100000000000000000000000000000000000000000000000000000000600052602160045260246000fd5b6004600083815260200190815260200160002060030160009054906101000a900460ff1660048111156106bc577f4e487b7100000000000000000000000000000000000000000000000000000000600052602160045260246000fd5b146106fc576040517f08c379a00000000000000000000000000000000000000000000000000000000081526004016106f390611df2565b60405180910390fd5b600060046000838152602001908152602001600020600201549050600360009054906101000a900473ffffffffffffffffffffffffffffffffffffffff1673ffffffffffffffffffffffffffffffffffffffff1663a9059cbb6004600085815260200190815260200160002060010160009054906101000a900473ffffffffffffffffffffffffffffffffffffffff16836040518363ffffffff1660e01b81526004016107aa929190611d1e565b602060405180830381600087803b1580156107c457600080fd5b505af11580156107d8573d6000803e3d6000fd5b505050506040513d601f19601f820116820180604052508101906107fc91906119b7565b5060026004600084815260200190815260200160002060030160006101000a81548160ff0219169083600481111561085d577f4e487b7100000000000000000000000000000000000000000000000000000000600052602160045260246000fd5b02179055506004600083815260200190815260200160002060010160009054906101000a900473ffffffffffffffffffffffffffffffffffffffff1673ffffffffffffffffffffffffffffffffffffffff167f7084f5476618d8e60b11ef0d7d3f06914655adb8793e28ff7f018d4c76d505d5826040516108de9190611e2d565b60405180910390a25050565b6108f2611887565b600460008381526020019081526020016000206040518060c00160405290816000820160009054906101000a900473ffffffffffffffffffffffffffffffffffffffff1673ffffffffffffffffffffffffffffffffffffffff1673ffffffffffffffffffffffffffffffffffffffff1681526020016001820160009054906101000a900473ffffffffffffffffffffffffffffffffffffffff1673ffffffffffffffffffffffffffffffffffffffff1673ffffffffffffffffffffffffffffffffffffffff168152602001600282015481526020016003820160009054906101000a900460ff166004811115610a11577f4e487b7100000000000000000000000000000000000000000000000000000000600052602160045260246000fd5b6004811115610a49577f4e487b7100000000000000000000000000000000000000000000000000000000600052602160045260246000fd5b81526020016003820160019054906101000a900460ff161515151581526020016003820160029054906101000a900460ff1615151515815250509050919050565b60006004811115610ac4577f4e487b7100000000000000000000000000000000000000000000000000000000600052602160045260246000fd5b6004600083815260200190815260200160002060030160009054906101000a900460ff166004811115610b20577f4e487b7100000000000000000000000000000000000000000000000000000000600052602160045260246000fd5b14610b2a57600080fd5b60016004600083815260200190815260200160002060030160016101000a81548160ff02191690831515021790555050565b610b646117bb565b73ffffffffffffffffffffffffffffffffffffffff16610b82611192565b73ffffffffffffffffffffffffffffffffffffffff1614610bd8576040517f08c379a0000000000000000000000000000000000000000000000000000000008152600401610bcf90611db2565b60405180910390fd5b610be260006117c3565b565b6060816004811115610c1f577f4e487b7100000000000000000000000000000000000000000000000000000000600052602160045260246000fd5b60006004811115610c59577f4e487b7100000000000000000000000000000000000000000000000000000000600052602160045260246000fd5b1415610c9c576040518060400160405280600481526020017f50414944000000000000000000000000000000000000000000000000000000008152509050610fac565b816004811115610cd5577f4e487b7100000000000000000000000000000000000000000000000000000000600052602160045260246000fd5b60016004811115610d0f577f4e487b7100000000000000000000000000000000000000000000000000000000600052602160045260246000fd5b1415610d52576040518060400160405280601481526020017f415050524f5645445f42595f435553544f4d45520000000000000000000000008152509050610fac565b816004811115610d8b577f4e487b7100000000000000000000000000000000000000000000000000000000600052602160045260246000fd5b60026004811115610dc5577f4e487b7100000000000000000000000000000000000000000000000000000000600052602160045260246000fd5b1415610e08576040518060400160405280600981526020017f434f4d504c4554454400000000000000000000000000000000000000000000008152509050610fac565b816004811115610e41577f4e487b7100000000000000000000000000000000000000000000000000000000600052602160045260246000fd5b60036004811115610e7b577f4e487b7100000000000000000000000000000000000000000000000000000000600052602160045260246000fd5b1415610ebe576040518060400160405280600881526020017f524546554e4445440000000000000000000000000000000000000000000000008152509050610fac565b816004811115610ef7577f4e487b7100000000000000000000000000000000000000000000000000000000600052602160045260246000fd5b600480811115610f30577f4e487b7100000000000000000000000000000000000000000000000000000000600052602160045260246000fd5b1415610f73576040518060400160405280600981526020017f43414e43454c4c454400000000000000000000000000000000000000000000008152509050610fac565b6040518060400160405280600981526020017f4e4f5420464f554e44000000000000000000000000000000000000000000000081525090505b919050565b60006004811115610feb577f4e487b7100000000000000000000000000000000000000000000000000000000600052602160045260246000fd5b6004600083815260200190815260200160002060030160009054906101000a900460ff166004811115611047577f4e487b7100000000000000000000000000000000000000000000000000000000600052602160045260246000fd5b14611087576040517f08c379a000000000000000000000000000000000000000000000000000000000815260040161107e90611dd2565b60405180910390fd5b60016004600083815260200190815260200160002060030160006101000a81548160ff021916908360048111156110e7577f4e487b7100000000000000000000000000000000000000000000000000000000600052602160045260246000fd5b021790555050565b60046020528060005260406000206000915090508060000160009054906101000a900473ffffffffffffffffffffffffffffffffffffffff16908060010160009054906101000a900473ffffffffffffffffffffffffffffffffffffffff16908060020154908060030160009054906101000a900460ff16908060030160019054906101000a900460ff16908060030160029054906101000a900460ff16905086565b60008060009054906101000a900473ffffffffffffffffffffffffffffffffffffffff16905090565b6111c36117bb565b73ffffffffffffffffffffffffffffffffffffffff166111e1611192565b73ffffffffffffffffffffffffffffffffffffffff1614611237576040517f08c379a000000000000000000000000000000000000000000000000000000000815260040161122e90611db2565b60405180910390fd5b600360009054906101000a900473ffffffffffffffffffffffffffffffffffffffff1673ffffffffffffffffffffffffffffffffffffffff1663095ea7b361127d611192565b6002546040518363ffffffff1660e01b815260040161129d929190611d47565b602060405180830381600087803b1580156112b757600080fd5b505af11580156112cb573d6000803e3d6000fd5b505050506040513d601f19601f820116820180604052508101906112ef91906119b7565b50600360009054906101000a900473ffffffffffffffffffffffffffffffffffffffff1673ffffffffffffffffffffffffffffffffffffffff1663a9059cbb611336611192565b6002546040518363ffffffff1660e01b8152600401611356929190611d47565b602060405180830381600087803b15801561137057600080fd5b505af1158015611384573d6000803e3d6000fd5b505050506040513d601f19601f820116820180604052508101906113a891906119b7565b506000600281905550565b60015481565b600360009054906101000a900473ffffffffffffffffffffffffffffffffffffffff1673ffffffffffffffffffffffffffffffffffffffff166323b872dd8430600154856114079190611e64565b6040518463ffffffff1660e01b815260040161142593929190611ce7565b602060405180830381600087803b15801561143f57600080fd5b505af1158015611453573d6000803e3d6000fd5b505050506040513d601f19601f8201168201806040525081019061147791906119b7565b506040518060c001604052808473ffffffffffffffffffffffffffffffffffffffff1681526020018373ffffffffffffffffffffffffffffffffffffffff168152602001828152602001600060048111156114fb577f4e487b7100000000000000000000000000000000000000000000000000000000600052602160045260246000fd5b8152602001600015158152602001600015158152506004600086815260200190815260200160002060008201518160000160006101000a81548173ffffffffffffffffffffffffffffffffffffffff021916908373ffffffffffffffffffffffffffffffffffffffff16021790555060208201518160010160006101000a81548173ffffffffffffffffffffffffffffffffffffffff021916908373ffffffffffffffffffffffffffffffffffffffff1602179055506040820151816002015560608201518160030160006101000a81548160ff0219169083600481111561160c577f4e487b7100000000000000000000000000000000000000000000000000000000600052602160045260246000fd5b021790555060808201518160030160016101000a81548160ff02191690831515021790555060a08201518160030160026101000a81548160ff021916908315150217905550905050600154600260008282546116689190611e64565b925050819055503373ffffffffffffffffffffffffffffffffffffffff167f2da466a7b24304f47e87fa2e1e5a81b9831ce54fec19055ce277ca2f39ba42c4826040516116b59190611e2d565b60405180910390a250505050565b6116cb6117bb565b73ffffffffffffffffffffffffffffffffffffffff166116e9611192565b73ffffffffffffffffffffffffffffffffffffffff161461173f576040517f08c379a000000000000000000000000000000000000000000000000000000000815260040161173690611db2565b60405180910390fd5b600073ffffffffffffffffffffffffffffffffffffffff168173ffffffffffffffffffffffffffffffffffffffff1614156117af576040517f08c379a00000000000000000000000000000000000000000000000000000000081526004016117a690611d92565b60405180910390fd5b6117b8816117c3565b50565b600033905090565b60008060009054906101000a900473ffffffffffffffffffffffffffffffffffffffff169050816000806101000a81548173ffffffffffffffffffffffffffffffffffffffff021916908373ffffffffffffffffffffffffffffffffffffffff1602179055508173ffffffffffffffffffffffffffffffffffffffff168173ffffffffffffffffffffffffffffffffffffffff167f8be0079c531659141344cd1fd0a4f28419497f9722a3daafe3b4186f6b6457e060405160405180910390a35050565b6040518060c00160405280600073ffffffffffffffffffffffffffffffffffffffff168152602001600073ffffffffffffffffffffffffffffffffffffffff168152602001600081526020016000600481111561190d577f4e487b7100000000000000000000000000000000000000000000000000000000600052602160045260246000fd5b81526020016000151581526020016000151581525090565b600081359050611934816120ef565b92915050565b60008135905061194981612106565b92915050565b60008151905061195e8161211d565b92915050565b60008135905061197381612134565b92915050565b60008135905061198881612144565b92915050565b6000602082840312156119a057600080fd5b60006119ae84828501611925565b91505092915050565b6000602082840312156119c957600080fd5b60006119d78482850161194f565b91505092915050565b6000602082840312156119f257600080fd5b6000611a0084828501611964565b91505092915050565b600060208284031215611a1b57600080fd5b6000611a2984828501611979565b91505092915050565b60008060008060808587031215611a4857600080fd5b6000611a5687828801611979565b9450506020611a678782880161193a565b9350506040611a788782880161193a565b9250506060611a8987828801611979565b91505092959194509250565b611a9e81611f27565b82525050565b611aad81611ecc565b82525050565b611abc81611ecc565b82525050565b611acb81611eba565b82525050565b611ada81611ede565b82525050565b611ae981611ede565b82525050565b611af881611f39565b82525050565b611b0781611f39565b82525050565b6000611b1882611e48565b611b228185611e53565b9350611b32818560208601611f6f565b611b3b81612000565b840191505092915050565b6000611b53602683611e53565b9150611b5e82612011565b604082019050919050565b6000611b76602083611e53565b9150611b8182612060565b602082019050919050565b6000611b99601283611e53565b9150611ba482612089565b602082019050919050565b6000611bbc601f83611e53565b9150611bc7826120b2565b602082019050919050565b60c082016000820151611be86000850182611aa4565b506020820151611bfb6020850182611aa4565b506040820151611c0e6040850182611c4d565b506060820151611c216060850182611aef565b506080820151611c346080850182611ad1565b5060a0820151611c4760a0850182611ad1565b50505050565b611c5681611f1d565b82525050565b611c6581611f1d565b82525050565b6000602082019050611c806000830184611ac2565b92915050565b600060c082019050611c9b6000830189611ab3565b611ca86020830188611ab3565b611cb56040830187611c5c565b611cc26060830186611afe565b611ccf6080830185611ae0565b611cdc60a0830184611ae0565b979650505050505050565b6000606082019050611cfc6000830186611a95565b611d096020830185611ac2565b611d166040830184611c5c565b949350505050565b6000604082019050611d336000830185611a95565b611d406020830184611c5c565b9392505050565b6000604082019050611d5c6000830185611ac2565b611d696020830184611c5c565b9392505050565b60006020820190508181036000830152611d8a8184611b0d565b905092915050565b60006020820190508181036000830152611dab81611b46565b9050919050565b60006020820190508181036000830152611dcb81611b69565b9050919050565b60006020820190508181036000830152611deb81611b8c565b9050919050565b60006020820190508181036000830152611e0b81611baf565b9050919050565b600060c082019050611e276000830184611bd2565b92915050565b6000602082019050611e426000830184611c5c565b92915050565b600081519050919050565b600082825260208201905092915050565b6000611e6f82611f1d565b9150611e7a83611f1d565b9250827fffffffffffffffffffffffffffffffffffffffffffffffffffffffffffffffff03821115611eaf57611eae611fa2565b5b828201905092915050565b6000611ec582611efd565b9050919050565b6000611ed782611efd565b9050919050565b60008115159050919050565b6000819050611ef8826120db565b919050565b600073ffffffffffffffffffffffffffffffffffffffff82169050919050565b6000819050919050565b6000611f3282611f4b565b9050919050565b6000611f4482611eea565b9050919050565b6000611f5682611f5d565b9050919050565b6000611f6882611efd565b9050919050565b60005b83811015611f8d578082015181840152602081019050611f72565b83811115611f9c576000848401525b50505050565b7f4e487b7100000000000000000000000000000000000000000000000000000000600052601160045260246000fd5b7f4e487b7100000000000000000000000000000000000000000000000000000000600052602160045260246000fd5b6000601f19601f8301169050919050565b7f4f776e61626c653a206e6577206f776e657220697320746865207a65726f206160008201527f6464726573730000000000000000000000000000000000000000000000000000602082015250565b7f4f776e61626c653a2063616c6c6572206973206e6f7420746865206f776e6572600082015250565b7f4f72646572206d75737420626520706169640000000000000000000000000000600082015250565b7f546865207061796d656e74206973207374696c6c20696e20657363726f772e00600082015250565b600581106120ec576120eb611fd1565b5b50565b6120f881611eba565b811461210357600080fd5b50565b61210f81611ecc565b811461211a57600080fd5b50565b61212681611ede565b811461213157600080fd5b50565b6005811061214157600080fd5b50565b61214d81611f1d565b811461215857600080fd5b5056fea26469706673582212200f0732f8ada268ceea1a061be0d6bfed2821bf38f365c32593015b71bba16fd564736f6c63430008010033",
  "immutableReferences": {},
  "source": "pragma solidity ^0.8.1;\n// SPDX-License-Identifier: MIT\nimport \"@openzeppelin/contracts/token/ERC20/IERC20.sol\";\nimport \"@openzeppelin/contracts/access/Ownable.sol\";\n\ncontract Escrow is Ownable {\n  uint256 public fee;\n  uint256 collectedFee;\n  IERC20 token;\n\n  enum PaymentStatus {\n    PAID,\n    APPROVED_BY_CUSTOMER,\n    COMPLETED,\n    REFUNDED,\n    CANCELLED\n  }\n\n  function getPaymentStatus(PaymentStatus _paymentStatus)\n    external\n    pure\n    returns (string memory)\n  {\n    if (PaymentStatus.PAID == _paymentStatus) return \"PAID\";\n    if (PaymentStatus.APPROVED_BY_CUSTOMER == _paymentStatus)\n      return \"APPROVED_BY_CUSTOMER\";\n    if (PaymentStatus.COMPLETED == _paymentStatus) return \"COMPLETED\";\n    if (PaymentStatus.REFUNDED == _paymentStatus) return \"REFUNDED\";\n    if (PaymentStatus.CANCELLED == _paymentStatus) return \"CANCELLED\";\n    return \"NOT FOUND\";\n  }\n\n  event Deposited(address indexed customer, uint256 amount);\n  event Withdrawn(address indexed farmer, uint256 amount);\n\n  struct Payment {\n    address payable customer;\n    address payable farmer;\n    uint256 amount;\n    PaymentStatus status;\n    bool refundApproved;\n    bool isCancelled;\n  }\n\n  mapping(uint256 => Payment) public payments;\n\n  function getPayment(uint256 _paymentID)\n    external\n    view\n    returns (Payment memory)\n  {\n    return payments[_paymentID];\n  }\n\n  constructor(IERC20 _token, uint256 _fee) {\n    token = _token;\n    fee = _fee;\n  }\n\n  modifier requiresFee() {\n    require(msg.value >= fee, \"Not enough value.\");\n    _;\n  }\n\n  function transferFee() public onlyOwner {\n    token.approve(owner(), collectedFee);\n    token.transfer(owner(), collectedFee);\n    collectedFee = 0;\n  }\n\n  function approveOrderDelivery(uint256 _orderId) external {\n    require(\n      payments[_orderId].status == PaymentStatus.PAID,\n      \"Order must be paid\"\n    );\n\n    payments[_orderId].status = PaymentStatus.APPROVED_BY_CUSTOMER;\n  }\n\n  function setOrderCancelled(uint256 _orderId) external {\n    require(payments[_orderId].status == PaymentStatus.PAID);\n\n    payments[_orderId].status = PaymentStatus.CANCELLED;\n    payments[_orderId].isCancelled = true;\n  }\n\n  function deposit(\n    uint256 _orderId,\n    address payable _customer,\n    address payable _farmer,\n    uint256 _amount\n  ) external payable {\n    token.transferFrom(_customer, address(this), _amount + fee);\n\n    payments[_orderId] = Payment(\n      _customer,\n      _farmer,\n      _amount,\n      PaymentStatus.PAID,\n      false,\n      false\n    );\n\n    collectedFee += fee;\n    emit Deposited(msg.sender, _amount);\n  }\n\n  function approveRefund(uint256 _orderId) external {\n    require(payments[_orderId].status == PaymentStatus.PAID);\n\n    payments[_orderId].refundApproved = true;\n  }\n\n  function refund(uint256 _orderId) external {\n    require(\n      payments[_orderId].refundApproved || payments[_orderId].isCancelled\n    );\n    token.transfer(payments[_orderId].customer, payments[_orderId].amount);\n    payments[_orderId].status = PaymentStatus.REFUNDED;\n  }\n\n  function withdraw(uint256 _orderId) external {\n    require(\n      payments[_orderId].status == PaymentStatus.APPROVED_BY_CUSTOMER,\n      \"The payment is still in escrow.\"\n    );\n    uint256 payment = payments[_orderId].amount;\n    token.transfer(payments[_orderId].farmer, payment);\n    payments[_orderId].status = PaymentStatus.COMPLETED;\n    emit Withdrawn(payments[_orderId].farmer, payment);\n  }\n}\n",
  "sourcePath": "C:\\Users\\HP\\Downloads\\supplychain-blockchain-main2(1)\\supplychain-blockchain-main2\\Truffle\\contracts\\Escrow.sol",
  "compiler": {
    "name": "solc",
    "version": "0.8.1+commit.df193b15.Emscripten.clang"
  },
  "schemaVersion": "3.4.16",
  "updatedAt": "2025-01-26T23:04:03.505Z",
  "networkType": "ethereum",
  "devdoc": {
    "kind": "dev",
    "methods": {
      "owner()": {
        "details": "Returns the address of the current owner."
      },
      "renounceOwnership()": {
        "details": "Leaves the contract without owner. It will not be possible to call `onlyOwner` functions anymore. Can only be called by the current owner. NOTE: Renouncing ownership will leave the contract without an owner, thereby removing any functionality that is only available to the owner."
      },
      "transferOwnership(address)": {
        "details": "Transfers ownership of the contract to a new account (`newOwner`). Can only be called by the current owner."
      }
    },
    "version": 1
  },
  "userdoc": {
    "kind": "user",
    "methods": {},
    "version": 1
  }
}