{
  "contractName": "Farmer",
  "abi": [
    {
      "anonymous": false,
      "inputs": [
        {
          "indexed": true,
          "internalType": "address",
          "name": "farmerAddress",
          "type": "address"
        },
        {
          "indexed": false,
          "internalType": "string",
          "name": "farmerName",
          "type": "string"
        }
      ],
      "name": "newFarmerRegisterd",
      "type": "event"
    },
    {
      "anonymous": false,
      "inputs": [
        {
          "indexed": true,
          "internalType": "uint256",
          "name": "_harvestID",
          "type": "uint256"
        },
        {
          "indexed": false,
          "internalType": "address",
          "name": "_farmerAddress",
          "type": "address"
        }
      ],
      "name": "registeredHarvestEvent",
      "type": "event"
    },
    {
      "inputs": [
        {
          "internalType": "address",
          "name": "",
          "type": "address"
        }
      ],
      "name": "farmerProfiles",
      "outputs": [
        {
          "internalType": "string",
          "name": "farmerName",
          "type": "string"
        },
        {
          "internalType": "string",
          "name": "farmerPhysicalAddress",
          "type": "string"
        },
        {
          "internalType": "address payable",
          "name": "farmerAddress",
          "type": "address"
        }
      ],
      "stateMutability": "view",
      "type": "function",
      "constant": true
    },
    {
      "inputs": [],
      "name": "harvestCounter",
      "outputs": [
        {
          "internalType": "uint256",
          "name": "",
          "type": "uint256"
        }
      ],
      "stateMutability": "view",
      "type": "function",
      "constant": true
    },
    {
      "inputs": [
        {
          "internalType": "uint256",
          "name": "",
          "type": "uint256"
        }
      ],
      "name": "harvestMapping",
      "outputs": [
        {
          "components": [
            {
              "internalType": "address",
              "name": "farmerAddress",
              "type": "address"
            },
            {
              "internalType": "string",
              "name": "photoHash",
              "type": "string"
            },
            {
              "internalType": "uint256",
              "name": "harvestCaptureDate",
              "type": "uint256"
            },
            {
              "internalType": "uint256",
              "name": "catalogueProductID",
              "type": "uint256"
            },
            {
              "internalType": "uint256",
              "name": "PHLevel",
              "type": "uint256"
            },
            {
              "internalType": "uint256",
              "name": "ECLevel",
              "type": "uint256"
            },
            {
              "internalType": "uint256",
              "name": "waterLevel",
              "type": "uint256"
            },
            {
              "internalType": "uint256",
              "name": "quantity",
              "type": "uint256"
            },
            {
              "internalType": "uint256",
              "name": "minOrderQty",
              "type": "uint256"
            },
            {
              "internalType": "uint256",
              "name": "pricePerKG",
              "type": "uint256"
            },
            {
              "internalType": "uint256",
              "name": "expiryDate",
              "type": "uint256"
            }
          ],
          "internalType": "struct Farmer.harvestProduce",
          "name": "harvest",
          "type": "tuple"
        }
      ],
      "stateMutability": "view",
      "type": "function",
      "constant": true
    },
    {
      "inputs": [
        {
          "internalType": "string",
          "name": "_name",
          "type": "string"
        },
        {
          "internalType": "string",
          "name": "_physicalAddress",
          "type": "string"
        }
      ],
      "name": "register",
      "outputs": [],
      "stateMutability": "nonpayable",
      "type": "function"
    },
    {
      "inputs": [],
      "name": "hasProfile",
      "outputs": [
        {
          "internalType": "bool",
          "name": "",
          "type": "bool"
        }
      ],
      "stateMutability": "view",
      "type": "function",
      "constant": true
    },
    {
      "inputs": [
        {
          "internalType": "string",
          "name": "_productName",
          "type": "string"
        },
        {
          "internalType": "uint256",
          "name": "_monthlyVolume",
          "type": "uint256"
        },
        {
          "internalType": "string",
          "name": "_photoHash",
          "type": "string"
        }
      ],
      "name": "registerCatalogue",
      "outputs": [],
      "stateMutability": "nonpayable",
      "type": "function"
    },
    {
      "inputs": [
        {
          "internalType": "uint256",
          "name": "_harvestID",
          "type": "uint256"
        }
      ],
      "name": "getHarvestData",
      "outputs": [
        {
          "components": [
            {
              "internalType": "address",
              "name": "farmerAddress",
              "type": "address"
            },
            {
              "internalType": "string",
              "name": "photoHash",
              "type": "string"
            },
            {
              "internalType": "uint256",
              "name": "harvestCaptureDate",
              "type": "uint256"
            },
            {
              "internalType": "uint256",
              "name": "catalogueProductID",
              "type": "uint256"
            },
            {
              "internalType": "uint256",
              "name": "PHLevel",
              "type": "uint256"
            },
            {
              "internalType": "uint256",
              "name": "ECLevel",
              "type": "uint256"
            },
            {
              "internalType": "uint256",
              "name": "waterLevel",
              "type": "uint256"
            },
            {
              "internalType": "uint256",
              "name": "quantity",
              "type": "uint256"
            },
            {
              "internalType": "uint256",
              "name": "minOrderQty",
              "type": "uint256"
            },
            {
              "internalType": "uint256",
              "name": "pricePerKG",
              "type": "uint256"
            },
            {
              "internalType": "uint256",
              "name": "expiryDate",
              "type": "uint256"
            }
          ],
          "internalType": "struct Farmer.harvestProduce",
          "name": "",
          "type": "tuple"
        }
      ],
      "stateMutability": "view",
      "type": "function",
      "constant": true
    },
    {
      "inputs": [
        {
          "internalType": "uint256",
          "name": "_harvestID",
          "type": "uint256"
        }
      ],
      "name": "getChemicalData",
      "outputs": [
        {
          "components": [
            {
              "internalType": "string",
              "name": "chemical",
              "type": "string"
            },
            {
              "internalType": "uint256",
              "name": "chemicalsDate",
              "type": "uint256"
            }
          ],
          "internalType": "struct Farmer.chemical[]",
          "name": "",
          "type": "tuple[]"
        }
      ],
      "stateMutability": "view",
      "type": "function",
      "constant": true
    },
    {
      "inputs": [
        {
          "internalType": "string",
          "name": "_photoHash",
          "type": "string"
        },
        {
          "internalType": "uint256",
          "name": "_harvestCaptureDate",
          "type": "uint256"
        },
        {
          "internalType": "uint256",
          "name": "_catalogueProductID",
          "type": "uint256"
        },
        {
          "internalType": "uint256",
          "name": "_PHLevel",
          "type": "uint256"
        },
        {
          "internalType": "uint256",
          "name": "_ECLevel",
          "type": "uint256"
        },
        {
          "internalType": "uint256",
          "name": "_waterLevel",
          "type": "uint256"
        },
        {
          "internalType": "uint256",
          "name": "_quantity",
          "type": "uint256"
        },
        {
          "internalType": "uint256",
          "name": "_minOrderQty",
          "type": "uint256"
        },
        {
          "internalType": "uint256",
          "name": "_pricePerKG",
          "type": "uint256"
        },
        {
          "internalType": "uint256",
          "name": "_expiryDate",
          "type": "uint256"
        }
      ],
      "name": "registerHarvest",
      "outputs": [],
      "stateMutability": "nonpayable",
      "type": "function"
    },
    {
      "inputs": [
        {
          "internalType": "uint256",
          "name": "_harvestID",
          "type": "uint256"
        },
        {
          "internalType": "string",
          "name": "_chemicalName",
          "type": "string"
        },
        {
          "internalType": "uint256",
          "name": "_chemicalDate",
          "type": "uint256"
        }
      ],
      "name": "addUsedChimecals",
      "outputs": [],
      "stateMutability": "nonpayable",
      "type": "function"
    },
    {
      "inputs": [
        {
          "internalType": "address",
          "name": "_farmerAddress",
          "type": "address"
        }
      ],
      "name": "getCatalogueItems",
      "outputs": [
        {
          "components": [
            {
              "internalType": "string",
              "name": "productName",
              "type": "string"
            },
            {
              "internalType": "uint256",
              "name": "estimatedMonthlyVolume",
              "type": "uint256"
            },
            {
              "internalType": "string",
              "name": "photoHash",
              "type": "string"
            }
          ],
          "internalType": "struct Farmer.farmerCatalogue[]",
          "name": "",
          "type": "tuple[]"
        }
      ],
      "stateMutability": "view",
      "type": "function",
      "constant": true
    },
    {
      "inputs": [
        {
          "internalType": "address",
          "name": "_farmerAddress",
          "type": "address"
        }
      ],
      "name": "getCatalogueItemsCount",
      "outputs": [
        {
          "internalType": "uint256",
          "name": "",
          "type": "uint256"
        }
      ],
      "stateMutability": "view",
      "type": "function",
      "constant": true
    },
    {
      "inputs": [
        {
          "internalType": "uint256",
          "name": "_index",
          "type": "uint256"
        },
        {
          "internalType": "address",
          "name": "_farmerAddress",
          "type": "address"
        }
      ],
      "name": "getCatalogueItemAtIndex",
      "outputs": [
        {
          "internalType": "string",
          "name": "",
          "type": "string"
        },
        {
          "internalType": "uint256",
          "name": "",
          "type": "uint256"
        },
        {
          "internalType": "string",
          "name": "",
          "type": "string"
        }
      ],
      "stateMutability": "view",
      "type": "function",
      "constant": true
    },
    {
      "inputs": [],
      "name": "noHarvests",
      "outputs": [
        {
          "internalType": "uint256",
          "name": "",
          "type": "uint256"
        }
      ],
      "stateMutability": "view",
      "type": "function",
      "constant": true
    }
  ],
  "bytecode": "0x608060405234801561001057600080fd5b50612250806100206000396000f3fe608060405234801561001057600080fd5b50600436106100ea5760003560e01c80638b18c3431161008c5780639a22fe94116100665780639a22fe9414610271578063e6ef002f1461028d578063ea0fd428146102bd578063ed65b3eb146102ef576100ea565b80638b18c343146101f3578063922a1ff91461020f578063927142241461023f576100ea565b80633ffbd47f116100c85780633ffbd47f146101595780634b12e747146101755780637b9a1330146101a5578063853505c2146101d5576100ea565b806301c6f93c146100ef57806316ae51611461011f57806317e3e4aa1461013d575b600080fd5b61010960048036038101906101049190611817565b61030d565b6040516101169190611e33565b60405180910390f35b610127610480565b6040516101349190611d0c565b60405180910390f35b610157600480360381019061015291906116a5565b6104e5565b005b610173600480360381019061016e9190611639565b610686565b005b61018f600480360381019061018a9190611817565b6108d4565b60405161019c9190611e33565b60405180910390f35b6101bf60048036038101906101ba9190611610565b610a3f565b6040516101cc9190611e55565b60405180910390f35b6101dd610a8d565b6040516101ea9190611e55565b60405180910390f35b61020d60048036038101906102089190611724565b610a93565b005b61022960048036038101906102249190611817565b610c35565b6040516102369190611cc8565b60405180910390f35b61025960048036038101906102549190611610565b610d46565b60405161026893929190611d49565b60405180910390f35b61028b6004803603810190610286919061187c565b610ea0565b005b6102a760048036038101906102a29190611610565b610fc9565b6040516102b49190611cea565b60405180910390f35b6102d760048036038101906102d29190611840565b611197565b6040516102e693929190611d8e565b60405180910390f35b6102f7611461565b6040516103049190611e55565b60405180910390f35b61031561146b565b60016000838152602001908152602001600020600001604051806101600160405290816000820160009054906101000a900473ffffffffffffffffffffffffffffffffffffffff1673ffffffffffffffffffffffffffffffffffffffff1673ffffffffffffffffffffffffffffffffffffffff16815260200160018201805461039d90612001565b80601f01602080910402602001604051908101604052809291908181526020018280546103c990612001565b80156104165780601f106103eb57610100808354040283529160200191610416565b820191906000526020600020905b8154815290600101906020018083116103f957829003601f168201915b505050505081526020016002820154815260200160038201548152602001600482015481526020016005820154815260200160068201548152602001600782015481526020016008820154815260200160098201548152602001600a820154815250509050919050565b6000806000803373ffffffffffffffffffffffffffffffffffffffff1673ffffffffffffffffffffffffffffffffffffffff16815260200190815260200160002060000180546104cf90612001565b9050146104dd5760016104e0565b60005b905090565b600073ffffffffffffffffffffffffffffffffffffffff166000803373ffffffffffffffffffffffffffffffffffffffff1673ffffffffffffffffffffffffffffffffffffffff16815260200190815260200160002060020160009054906101000a900473ffffffffffffffffffffffffffffffffffffffff1673ffffffffffffffffffffffffffffffffffffffff1614156105b6576040517f08c379a00000000000000000000000000000000000000000000000000000000081526004016105ad90611e13565b60405180910390fd5b6000803373ffffffffffffffffffffffffffffffffffffffff1673ffffffffffffffffffffffffffffffffffffffff168152602001908152602001600020600301604051806060016040528085815260200184815260200183815250908060018154018082558091505060019003906000526020600020906003020160009091909190915060008201518160000190805190602001906106579291906114db565b5060208201518160010155604082015181600201908051906020019061067e9291906114db565b505050505050565b600073ffffffffffffffffffffffffffffffffffffffff166000803373ffffffffffffffffffffffffffffffffffffffff1673ffffffffffffffffffffffffffffffffffffffff16815260200190815260200160002060020160009054906101000a900473ffffffffffffffffffffffffffffffffffffffff1673ffffffffffffffffffffffffffffffffffffffff1614610756576040517f08c379a000000000000000000000000000000000000000000000000000000000815260040161074d90611dd3565b60405180910390fd5b816000803373ffffffffffffffffffffffffffffffffffffffff1673ffffffffffffffffffffffffffffffffffffffff16815260200190815260200160002060000190805190602001906107ab9291906114db565b50336000803373ffffffffffffffffffffffffffffffffffffffff1673ffffffffffffffffffffffffffffffffffffffff16815260200190815260200160002060020160006101000a81548173ffffffffffffffffffffffffffffffffffffffff021916908373ffffffffffffffffffffffffffffffffffffffff160217905550806000803373ffffffffffffffffffffffffffffffffffffffff1673ffffffffffffffffffffffffffffffffffffffff16815260200190815260200160002060010190805190602001906108819291906114db565b503373ffffffffffffffffffffffffffffffffffffffff167f83cdffbb5b2ee8430879f786e5af57cf96976d9578813386de1c560deb6f3811836040516108c89190611d27565b60405180910390a25050565b600160205280600052604060002060009150905080600001604051806101600160405290816000820160009054906101000a900473ffffffffffffffffffffffffffffffffffffffff1673ffffffffffffffffffffffffffffffffffffffff1673ffffffffffffffffffffffffffffffffffffffff16815260200160018201805461095e90612001565b80601f016020809104026020016040519081016040528092919081815260200182805461098a90612001565b80156109d75780601f106109ac576101008083540402835291602001916109d7565b820191906000526020600020905b8154815290600101906020018083116109ba57829003601f168201915b505050505081526020016002820154815260200160038201548152602001600482015481526020016005820154815260200160068201548152602001600782015481526020016008820154815260200160098201548152602001600a82015481525050905081565b60008060008373ffffffffffffffffffffffffffffffffffffffff1673ffffffffffffffffffffffffffffffffffffffff168152602001908152602001600020600301805490509050919050565b60025481565b60006040518061016001604052803373ffffffffffffffffffffffffffffffffffffffff1681526020018c81526020018b81526020018a81526020018981526020018881526020018781526020018681526020018581526020018481526020018381525090508060016000600254815260200190815260200160002060000160008201518160000160006101000a81548173ffffffffffffffffffffffffffffffffffffffff021916908373ffffffffffffffffffffffffffffffffffffffff1602179055506020820151816001019080519060200190610b759291906114db565b5060408201518160020155606082015181600301556080820151816004015560a0820151816005015560c0820151816006015560e082015181600701556101008201518160080155610120820151816009015561014082015181600a01559050506002547fa490bba31f6db8303ca307225b8574d2c84e8d003b6a0efa088d7dbdbae9964a33604051610c089190611cad565b60405180910390a260026000815480929190610c2390612064565b91905055505050505050505050505050565b606060016000838152602001908152602001600020600b01805480602002602001604051908101604052809291908181526020016000905b82821015610d3b5783829060005260206000209060020201604051806040016040529081600082018054610ca090612001565b80601f0160208091040260200160405190810160405280929190818152602001828054610ccc90612001565b8015610d195780601f10610cee57610100808354040283529160200191610d19565b820191906000526020600020905b815481529060010190602001808311610cfc57829003601f168201915b5050505050815260200160018201548152505081526020019060010190610c6d565b505050509050919050565b6000602052806000526040600020600091509050806000018054610d6990612001565b80601f0160208091040260200160405190810160405280929190818152602001828054610d9590612001565b8015610de25780601f10610db757610100808354040283529160200191610de2565b820191906000526020600020905b815481529060010190602001808311610dc557829003601f168201915b505050505090806001018054610df790612001565b80601f0160208091040260200160405190810160405280929190818152602001828054610e2390612001565b8015610e705780601f10610e4557610100808354040283529160200191610e70565b820191906000526020600020905b815481529060010190602001808311610e5357829003601f168201915b5050505050908060020160009054906101000a900473ffffffffffffffffffffffffffffffffffffffff16905083565b3373ffffffffffffffffffffffffffffffffffffffff166001600085815260200190815260200160002060000160000160009054906101000a900473ffffffffffffffffffffffffffffffffffffffff1673ffffffffffffffffffffffffffffffffffffffff1614610f47576040517f08c379a0000000000000000000000000000000000000000000000000000000008152600401610f3e90611df3565b60405180910390fd5b60016000848152602001908152602001600020600b0160405180604001604052808481526020018381525090806001815401808255809150506001900390600052602060002090600202016000909190919091506000820151816000019080519060200190610fb79291906114db565b50602082015181600101555050505050565b60606000808373ffffffffffffffffffffffffffffffffffffffff1673ffffffffffffffffffffffffffffffffffffffff168152602001908152602001600020600301805480602002602001604051908101604052809291908181526020016000905b8282101561118c578382906000526020600020906003020160405180606001604052908160008201805461105f90612001565b80601f016020809104026020016040519081016040528092919081815260200182805461108b90612001565b80156110d85780601f106110ad576101008083540402835291602001916110d8565b820191906000526020600020905b8154815290600101906020018083116110bb57829003601f168201915b50505050508152602001600182015481526020016002820180546110fb90612001565b80601f016020809104026020016040519081016040528092919081815260200182805461112790612001565b80156111745780601f1061114957610100808354040283529160200191611174565b820191906000526020600020905b81548152906001019060200180831161115757829003601f168201915b5050505050815250508152602001906001019061102c565b505050509050919050565b6060600060606000808573ffffffffffffffffffffffffffffffffffffffff1673ffffffffffffffffffffffffffffffffffffffff1681526020019081526020016000206003018581548110611216577f4e487b7100000000000000000000000000000000000000000000000000000000600052603260045260246000fd5b90600052602060002090600302016000016000808673ffffffffffffffffffffffffffffffffffffffff1673ffffffffffffffffffffffffffffffffffffffff16815260200190815260200160002060030186815481106112a0577f4e487b7100000000000000000000000000000000000000000000000000000000600052603260045260246000fd5b9060005260206000209060030201600101546000808773ffffffffffffffffffffffffffffffffffffffff1673ffffffffffffffffffffffffffffffffffffffff168152602001908152602001600020600301878154811061132b577f4e487b7100000000000000000000000000000000000000000000000000000000600052603260045260246000fd5b906000526020600020906003020160020182805461134890612001565b80601f016020809104026020016040519081016040528092919081815260200182805461137490612001565b80156113c15780601f10611396576101008083540402835291602001916113c1565b820191906000526020600020905b8154815290600101906020018083116113a457829003601f168201915b505050505092508080546113d490612001565b80601f016020809104026020016040519081016040528092919081815260200182805461140090612001565b801561144d5780601f106114225761010080835404028352916020019161144d565b820191906000526020600020905b81548152906001019060200180831161143057829003601f168201915b505050505090509250925092509250925092565b6000600254905090565b604051806101600160405280600073ffffffffffffffffffffffffffffffffffffffff168152602001606081526020016000815260200160008152602001600081526020016000815260200160008152602001600081526020016000815260200160008152602001600081525090565b8280546114e790612001565b90600052602060002090601f0160209004810192826115095760008555611550565b82601f1061152257805160ff1916838001178555611550565b82800160010185558215611550579182015b8281111561154f578251825591602001919060010190611534565b5b50905061155d9190611561565b5090565b5b8082111561157a576000816000905550600101611562565b5090565b600061159161158c84611e95565b611e70565b9050828152602081018484840111156115a957600080fd5b6115b4848285611fbf565b509392505050565b6000813590506115cb816121ec565b92915050565b600082601f8301126115e257600080fd5b81356115f284826020860161157e565b91505092915050565b60008135905061160a81612203565b92915050565b60006020828403121561162257600080fd5b6000611630848285016115bc565b91505092915050565b6000806040838503121561164c57600080fd5b600083013567ffffffffffffffff81111561166657600080fd5b611672858286016115d1565b925050602083013567ffffffffffffffff81111561168f57600080fd5b61169b858286016115d1565b9150509250929050565b6000806000606084860312156116ba57600080fd5b600084013567ffffffffffffffff8111156116d457600080fd5b6116e0868287016115d1565b93505060206116f1868287016115fb565b925050604084013567ffffffffffffffff81111561170e57600080fd5b61171a868287016115d1565b9150509250925092565b6000806000806000806000806000806101408b8d03121561174457600080fd5b60008b013567ffffffffffffffff81111561175e57600080fd5b61176a8d828e016115d1565b9a5050602061177b8d828e016115fb565b995050604061178c8d828e016115fb565b985050606061179d8d828e016115fb565b97505060806117ae8d828e016115fb565b96505060a06117bf8d828e016115fb565b95505060c06117d08d828e016115fb565b94505060e06117e18d828e016115fb565b9350506101006117f38d828e016115fb565b9250506101206118058d828e016115fb565b9150509295989b9194979a5092959850565b60006020828403121561182957600080fd5b6000611837848285016115fb565b91505092915050565b6000806040838503121561185357600080fd5b6000611861858286016115fb565b9250506020611872858286016115bc565b9150509250929050565b60008060006060848603121561189157600080fd5b600061189f868287016115fb565b935050602084013567ffffffffffffffff8111156118bc57600080fd5b6118c8868287016115d1565b92505060406118d9868287016115fb565b9150509250925092565b60006118ef8383611b0c565b905092915050565b60006119038383611b49565b905092915050565b61191481611f77565b82525050565b61192381611f65565b82525050565b61193281611f65565b82525050565b600061194382611ee6565b61194d8185611f21565b93508360208202850161195f85611ec6565b8060005b8581101561199b578484038952815161197c85826118e3565b945061198783611f07565b925060208a01995050600181019050611963565b50829750879550505050505092915050565b60006119b882611ef1565b6119c28185611f32565b9350836020820285016119d485611ed6565b8060005b85811015611a1057848403895281516119f185826118f7565b94506119fc83611f14565b925060208a019950506001810190506119d8565b50829750879550505050505092915050565b611a2b81611f89565b82525050565b6000611a3c82611efc565b611a468185611f43565b9350611a56818560208601611fce565b611a5f8161213a565b840191505092915050565b6000611a7582611efc565b611a7f8185611f54565b9350611a8f818560208601611fce565b611a988161213a565b840191505092915050565b6000611ab0601a83611f54565b9150611abb8261214b565b602082019050919050565b6000611ad3603483611f54565b9150611ade82612174565b604082019050919050565b6000611af6601f83611f54565b9150611b01826121c3565b602082019050919050565b60006040830160008301518482036000860152611b298282611a31565b9150506020830151611b3e6020860182611c8f565b508091505092915050565b60006060830160008301518482036000860152611b668282611a31565b9150506020830151611b7b6020860182611c8f565b5060408301518482036040860152611b938282611a31565b9150508091505092915050565b600061016083016000830151611bb9600086018261191a565b5060208301518482036020860152611bd18282611a31565b9150506040830151611be66040860182611c8f565b506060830151611bf96060860182611c8f565b506080830151611c0c6080860182611c8f565b5060a0830151611c1f60a0860182611c8f565b5060c0830151611c3260c0860182611c8f565b5060e0830151611c4560e0860182611c8f565b50610100830151611c5a610100860182611c8f565b50610120830151611c6f610120860182611c8f565b50610140830151611c84610140860182611c8f565b508091505092915050565b611c9881611fb5565b82525050565b611ca781611fb5565b82525050565b6000602082019050611cc26000830184611929565b92915050565b60006020820190508181036000830152611ce28184611938565b905092915050565b60006020820190508181036000830152611d0481846119ad565b905092915050565b6000602082019050611d216000830184611a22565b92915050565b60006020820190508181036000830152611d418184611a6a565b905092915050565b60006060820190508181036000830152611d638186611a6a565b90508181036020830152611d778185611a6a565b9050611d86604083018461190b565b949350505050565b60006060820190508181036000830152611da88186611a6a565b9050611db76020830185611c9e565b8181036040830152611dc98184611a6a565b9050949350505050565b60006020820190508181036000830152611dec81611aa3565b9050919050565b60006020820190508181036000830152611e0c81611ac6565b9050919050565b60006020820190508181036000830152611e2c81611ae9565b9050919050565b60006020820190508181036000830152611e4d8184611ba0565b905092915050565b6000602082019050611e6a6000830184611c9e565b92915050565b6000611e7a611e8b565b9050611e868282612033565b919050565b6000604051905090565b600067ffffffffffffffff821115611eb057611eaf61210b565b5b611eb98261213a565b9050602081019050919050565b6000819050602082019050919050565b6000819050602082019050919050565b600081519050919050565b600081519050919050565b600081519050919050565b6000602082019050919050565b6000602082019050919050565b600082825260208201905092915050565b600082825260208201905092915050565b600082825260208201905092915050565b600082825260208201905092915050565b6000611f7082611f95565b9050919050565b6000611f8282611f95565b9050919050565b60008115159050919050565b600073ffffffffffffffffffffffffffffffffffffffff82169050919050565b6000819050919050565b82818337600083830152505050565b60005b83811015611fec578082015181840152602081019050611fd1565b83811115611ffb576000848401525b50505050565b6000600282049050600182168061201957607f821691505b6020821081141561202d5761202c6120dc565b5b50919050565b61203c8261213a565b810181811067ffffffffffffffff8211171561205b5761205a61210b565b5b80604052505050565b600061206f82611fb5565b91507fffffffffffffffffffffffffffffffffffffffffffffffffffffffffffffffff8214156120a2576120a16120ad565b5b600182019050919050565b7f4e487b7100000000000000000000000000000000000000000000000000000000600052601160045260246000fd5b7f4e487b7100000000000000000000000000000000000000000000000000000000600052602260045260246000fd5b7f4e487b7100000000000000000000000000000000000000000000000000000000600052604160045260246000fd5b6000601f19601f8301169050919050565b7f596f7520616c7265616479206861766520612070726f66696c65000000000000600082015250565b7f4861727665737420646f65736e2774206578697374732c20706c65617365206160008201527f6464207468652068617276657374206669727374000000000000000000000000602082015250565b7f596f7520646f6e277420686176652061206661726d65722070726f66696c6500600082015250565b6121f581611f65565b811461220057600080fd5b50565b61220c81611fb5565b811461221757600080fd5b5056fea264697066735822122014be2e4371a490e7e1d5e464b7f6519d79750ccf2563d2917a87fd998c29d3b464736f6c63430008010033",
  "immutableReferences": {},
  "source": "// SPDX-License-Identifier: MIT\n\npragma solidity ^0.8.1;\n\ncontract Farmer {\n  struct Profile {\n    string farmerName;\n    string farmerPhysicalAddress;\n    address payable farmerAddress;\n    farmerCatalogue[] catalogue;\n  }\n\n  struct farmerCatalogue {\n    string productName;\n    uint256 estimatedMonthlyVolume;\n    string photoHash;\n  }\n\n  mapping(address => Profile) public farmerProfiles;\n\n  function register(string memory _name, string memory _physicalAddress)\n    public\n  {\n    require(\n      farmerProfiles[msg.sender].farmerAddress == address(0),\n      \"You already have a profile\"\n    );\n\n    farmerProfiles[msg.sender].farmerName = _name;\n    farmerProfiles[msg.sender].farmerAddress = payable(msg.sender);\n    farmerProfiles[msg.sender].farmerPhysicalAddress = _physicalAddress;\n\n    emit newFarmerRegisterd(msg.sender, _name);\n  }\n\n  function hasProfile() public view returns (bool) {\n    return\n      bytes(farmerProfiles[msg.sender].farmerName).length == 0 ? false : true;\n  }\n\n  function registerCatalogue(\n    string memory _productName,\n    uint256 _monthlyVolume,\n    string memory _photoHash\n  ) public {\n    require(\n      farmerProfiles[msg.sender].farmerAddress != address(0),\n      \"You don't have a farmer profile\"\n    );\n\n    farmerProfiles[msg.sender].catalogue.push(\n      farmerCatalogue(_productName, _monthlyVolume, _photoHash)\n    );\n  }\n\n  //Creating the reference data for chemical used in harvestProduce\n  struct chemical {\n    string chemical;\n    uint256 chemicalsDate;\n  }\n\n  struct harvestProduce {\n    address farmerAddress;\n    string photoHash;\n    uint256 harvestCaptureDate;\n    uint256 catalogueProductID;\n    uint256 PHLevel;\n    uint256 ECLevel;\n    uint256 waterLevel;\n    uint256 quantity;\n    uint256 minOrderQty;\n    uint256 pricePerKG;\n    uint256 expiryDate;\n  }\n\n  struct HravestData {\n    harvestProduce harvest;\n    chemical[] chemicals;\n  }\n\n  function getHarvestData(uint256 _harvestID)\n    external\n    view\n    returns (harvestProduce memory)\n  {\n    return harvestMapping[_harvestID].harvest;\n  }\n\n  function getChemicalData(uint256 _harvestID)\n    external\n    view\n    returns (chemical[] memory)\n  {\n    return harvestMapping[_harvestID].chemicals;\n  }\n\n  mapping(uint256 => HravestData) public harvestMapping;\n  uint256 public harvestCounter;\n\n  //Registering a harvest instance\n  function registerHarvest(\n    string memory _photoHash,\n    uint256 _harvestCaptureDate,\n    uint256 _catalogueProductID,\n    uint256 _PHLevel,\n    uint256 _ECLevel,\n    uint256 _waterLevel,\n    uint256 _quantity,\n    uint256 _minOrderQty,\n    uint256 _pricePerKG,\n    uint256 _expiryDate\n  ) public {\n    harvestProduce memory tmp = harvestProduce(\n      payable(msg.sender),\n      _photoHash,\n      _harvestCaptureDate,\n      _catalogueProductID,\n      _PHLevel,\n      _ECLevel,\n      _waterLevel,\n      _quantity,\n      _minOrderQty,\n      _pricePerKG,\n      _expiryDate\n    );\n\n    harvestMapping[harvestCounter].harvest = tmp;\n    emit registeredHarvestEvent(harvestCounter, msg.sender);\n    harvestCounter++;\n  }\n\n  function addUsedChimecals(\n    uint256 _harvestID,\n    string memory _chemicalName,\n    uint256 _chemicalDate\n  ) public {\n    require(\n      harvestMapping[_harvestID].harvest.farmerAddress == msg.sender,\n      \"Harvest doesn't exists, please add the harvest first\"\n    );\n    harvestMapping[_harvestID].chemicals.push(\n      chemical(_chemicalName, _chemicalDate)\n    );\n  }\n\n  function getCatalogueItems(address _farmerAddress)\n    public\n    view\n    returns (farmerCatalogue[] memory)\n  {\n    return farmerProfiles[_farmerAddress].catalogue;\n  }\n\n  function getCatalogueItemsCount(address _farmerAddress)\n    public\n    view\n    returns (uint256)\n  {\n    return farmerProfiles[_farmerAddress].catalogue.length;\n  }\n\n  function getCatalogueItemAtIndex(uint256 _index, address _farmerAddress)\n    public\n    view\n    returns (\n      string memory,\n      uint256,\n      string memory\n    )\n  {\n    return (\n      farmerProfiles[_farmerAddress].catalogue[_index].productName,\n      farmerProfiles[_farmerAddress].catalogue[_index].estimatedMonthlyVolume,\n      farmerProfiles[_farmerAddress].catalogue[_index].photoHash\n    );\n  }\n\n  //Checks the number of harvests in the harvestMapping\n  function noHarvests() public view returns (uint256) {\n    return harvestCounter;\n  }\n\n  event registeredHarvestEvent(\n    uint256 indexed _harvestID,\n    address _farmerAddress\n  );\n\n  event newFarmerRegisterd(address indexed farmerAddress, string farmerName);\n}\n",
  "sourcePath": "C:\\Users\\HP\\Downloads\\supplychain-blockchain-main2(1)\\supplychain-blockchain-main2\\Truffle\\contracts\\Farmer.sol",
  "compiler": {
    "name": "solc",
    "version": "0.8.1+commit.df193b15.Emscripten.clang"
  },
  "schemaVersion": "3.4.16",
  "updatedAt": "2025-01-26T23:04:03.449Z",
  "networkType": "ethereum",
  "devdoc": {
    "kind": "dev",
    "methods": {},
    "version": 1
  },
  "userdoc": {
    "kind": "user",
    "methods": {},
    "version": 1
  }
}