{
  "contractName": "Product",
  "abi": [
    {
      "anonymous": false,
      "inputs": [
        {
          "indexed": true,
          "internalType": "uint256",
          "name": "_orderID",
          "type": "uint256"
        },
        {
          "indexed": false,
          "internalType": "address",
          "name": "carrierAddress",
          "type": "address"
        }
      ],
      "name": "CarrierInvitation",
      "type": "event"
    },
    {
      "anonymous": false,
      "inputs": [
        {
          "indexed": true,
          "internalType": "uint256",
          "name": "_orderID",
          "type": "uint256"
        },
        {
          "indexed": false,
          "internalType": "address",
          "name": "carrierAddress",
          "type": "address"
        }
      ],
      "name": "CarrierInvitationAccepted",
      "type": "event"
    },
    {
      "anonymous": false,
      "inputs": [
        {
          "indexed": true,
          "internalType": "uint256",
          "name": "_orderID",
          "type": "uint256"
        }
      ],
      "name": "newOrderEvent",
      "type": "event"
    },
    {
      "anonymous": false,
      "inputs": [
        {
          "indexed": true,
          "internalType": "uint256",
          "name": "_orderID",
          "type": "uint256"
        },
        {
          "indexed": false,
          "internalType": "uint256",
          "name": "orderStatus",
          "type": "uint256"
        },
        {
          "indexed": false,
          "internalType": "string",
          "name": "notes",
          "type": "string"
        }
      ],
      "name": "orderAcceptedEvent",
      "type": "event"
    },
    {
      "anonymous": false,
      "inputs": [
        {
          "indexed": true,
          "internalType": "uint256",
          "name": "_orderID",
          "type": "uint256"
        }
      ],
      "name": "orderCompetedEvent",
      "type": "event"
    },
    {
      "anonymous": false,
      "inputs": [
        {
          "indexed": true,
          "internalType": "uint256",
          "name": "_harvestID",
          "type": "uint256"
        }
      ],
      "name": "registeredHarvestEvent",
      "type": "event"
    },
    {
      "anonymous": false,
      "inputs": [
        {
          "indexed": true,
          "internalType": "uint256",
          "name": "_storageID",
          "type": "uint256"
        }
      ],
      "name": "registeredStorageEvent",
      "type": "event"
    },
    {
      "inputs": [],
      "name": "harvestCounter",
      "outputs": [
        {
          "internalType": "uint256",
          "name": "",
          "type": "uint256"
        }
      ],
      "stateMutability": "view",
      "type": "function",
      "constant": true
    },
    {
      "inputs": [
        {
          "internalType": "uint256",
          "name": "",
          "type": "uint256"
        }
      ],
      "name": "harvestMapping",
      "outputs": [
        {
          "internalType": "uint256",
          "name": "productID",
          "type": "uint256"
        },
        {
          "internalType": "address payable",
          "name": "farmerAddress",
          "type": "address"
        },
        {
          "internalType": "string",
          "name": "photoHash",
          "type": "string"
        },
        {
          "internalType": "uint256",
          "name": "harvestCaptureTime",
          "type": "uint256"
        },
        {
          "internalType": "string",
          "name": "cropName",
          "type": "string"
        },
        {
          "internalType": "uint256",
          "name": "PHLevel",
          "type": "uint256"
        },
        {
          "internalType": "uint256",
          "name": "ECLevel",
          "type": "uint256"
        },
        {
          "internalType": "uint256",
          "name": "waterLevel",
          "type": "uint256"
        },
        {
          "internalType": "uint256",
          "name": "harvestDate",
          "type": "uint256"
        },
        {
          "internalType": "uint256",
          "name": "estimatedMonthlyVolume",
          "type": "uint256"
        },
        {
          "components": [
            {
              "internalType": "string",
              "name": "chemical",
              "type": "string"
            },
            {
              "internalType": "uint256",
              "name": "chemicalsDate",
              "type": "uint256"
            }
          ],
          "internalType": "struct Product.chemical",
          "name": "usedChemicals",
          "type": "tuple"
        }
      ],
      "stateMutability": "view",
      "type": "function",
      "constant": true
    },
    {
      "inputs": [],
      "name": "orderCounter",
      "outputs": [
        {
          "internalType": "uint256",
          "name": "",
          "type": "uint256"
        }
      ],
      "stateMutability": "view",
      "type": "function",
      "constant": true
    },
    {
      "inputs": [
        {
          "internalType": "uint256",
          "name": "",
          "type": "uint256"
        }
      ],
      "name": "ordersMapping",
      "outputs": [
        {
          "internalType": "uint256",
          "name": "orderID",
          "type": "uint256"
        },
        {
          "internalType": "uint256",
          "name": "productID",
          "type": "uint256"
        },
        {
          "internalType": "uint256",
          "name": "quantity",
          "type": "uint256"
        },
        {
          "internalType": "uint256",
          "name": "totalPrice",
          "type": "uint256"
        },
        {
          "internalType": "uint256",
          "name": "distributorID",
          "type": "uint256"
        },
        {
          "internalType": "address",
          "name": "distributorAddress",
          "type": "address"
        },
        {
          "internalType": "uint256",
          "name": "farmerID",
          "type": "uint256"
        },
        {
          "components": [
            {
              "internalType": "string",
              "name": "companyName",
              "type": "string"
            },
            {
              "internalType": "uint256",
              "name": "carPlateNumber",
              "type": "uint256"
            },
            {
              "internalType": "address",
              "name": "carrierAddress",
              "type": "address"
            },
            {
              "internalType": "bool",
              "name": "invitationAccepted",
              "type": "bool"
            }
          ],
          "internalType": "struct Product.Carrier",
          "name": "carrier",
          "type": "tuple"
        },
        {
          "internalType": "bool",
          "name": "IsCarrierInvtied",
          "type": "bool"
        },
        {
          "internalType": "bool",
          "name": "isCompleted",
          "type": "bool"
        },
        {
          "internalType": "uint256",
          "name": "isAccepted",
          "type": "uint256"
        },
        {
          "internalType": "bool",
          "name": "isCancelled",
          "type": "bool"
        }
      ],
      "stateMutability": "view",
      "type": "function",
      "constant": true
    },
    {
      "inputs": [],
      "name": "storageCounter",
      "outputs": [
        {
          "internalType": "uint256",
          "name": "",
          "type": "uint256"
        }
      ],
      "stateMutability": "view",
      "type": "function",
      "constant": true
    },
    {
      "inputs": [
        {
          "internalType": "uint256",
          "name": "",
          "type": "uint256"
        }
      ],
      "name": "storageMapping",
      "outputs": [
        {
          "internalType": "uint256",
          "name": "quantity",
          "type": "uint256"
        },
        {
          "internalType": "uint256",
          "name": "storageCaptureTime",
          "type": "uint256"
        },
        {
          "internalType": "string",
          "name": "hashID",
          "type": "string"
        },
        {
          "internalType": "uint256",
          "name": "weight",
          "type": "uint256"
        },
        {
          "internalType": "uint256",
          "name": "price",
          "type": "uint256"
        },
        {
          "internalType": "uint256",
          "name": "packingTimeStamp",
          "type": "uint256"
        },
        {
          "internalType": "uint256",
          "name": "packingDate",
          "type": "uint256"
        },
        {
          "internalType": "uint256",
          "name": "expiryDate",
          "type": "uint256"
        }
      ],
      "stateMutability": "view",
      "type": "function",
      "constant": true
    },
    {
      "inputs": [
        {
          "internalType": "string",
          "name": "_photoHash",
          "type": "string"
        },
        {
          "internalType": "uint256",
          "name": "_harvestCaptureTime",
          "type": "uint256"
        },
        {
          "internalType": "string",
          "name": "_cropName",
          "type": "string"
        },
        {
          "internalType": "uint256",
          "name": "_PHLevel",
          "type": "uint256"
        },
        {
          "internalType": "uint256",
          "name": "_ECLevel",
          "type": "uint256"
        },
        {
          "internalType": "uint256",
          "name": "_waterLevel",
          "type": "uint256"
        },
        {
          "internalType": "uint256",
          "name": "_harvestDate",
          "type": "uint256"
        },
        {
          "internalType": "uint256",
          "name": "_estimatedMonthlyVolume",
          "type": "uint256"
        },
        {
          "internalType": "string",
          "name": "chemicalName",
          "type": "string"
        },
        {
          "internalType": "uint256",
          "name": "chemicalDate",
          "type": "uint256"
        }
      ],
      "name": "registerHarvest",
      "outputs": [],
      "stateMutability": "nonpayable",
      "type": "function"
    },
    {
      "inputs": [
        {
          "internalType": "uint256",
          "name": "_quantity",
          "type": "uint256"
        },
        {
          "internalType": "uint256",
          "name": "storageCaptureTime",
          "type": "uint256"
        },
        {
          "internalType": "string",
          "name": "_hashID",
          "type": "string"
        },
        {
          "internalType": "uint256",
          "name": "_weight",
          "type": "uint256"
        },
        {
          "internalType": "uint256",
          "name": "_price",
          "type": "uint256"
        },
        {
          "internalType": "uint256",
          "name": "_packingTimeStamp",
          "type": "uint256"
        },
        {
          "internalType": "uint256",
          "name": "_packingDate",
          "type": "uint256"
        },
        {
          "internalType": "uint256",
          "name": "_expiryDate",
          "type": "uint256"
        }
      ],
      "name": "registerStorage",
      "outputs": [],
      "stateMutability": "nonpayable",
      "type": "function"
    },
    {
      "inputs": [
        {
          "internalType": "uint256",
          "name": "_orderID",
          "type": "uint256"
        },
        {
          "internalType": "uint256",
          "name": "_productID",
          "type": "uint256"
        },
        {
          "internalType": "uint256",
          "name": "_quantity",
          "type": "uint256"
        },
        {
          "internalType": "uint256",
          "name": "_totalPrice",
          "type": "uint256"
        },
        {
          "internalType": "uint256",
          "name": "_distributorID",
          "type": "uint256"
        },
        {
          "internalType": "uint256",
          "name": "_farmerID",
          "type": "uint256"
        }
      ],
      "name": "placeOrder",
      "outputs": [],
      "stateMutability": "nonpayable",
      "type": "function"
    },
    {
      "inputs": [
        {
          "internalType": "uint256",
          "name": "_orderID",
          "type": "uint256"
        }
      ],
      "name": "cancelOrder",
      "outputs": [],
      "stateMutability": "nonpayable",
      "type": "function"
    },
    {
      "inputs": [
        {
          "internalType": "uint256",
          "name": "_orderID",
          "type": "uint256"
        }
      ],
      "name": "setOrderCompleted",
      "outputs": [],
      "stateMutability": "nonpayable",
      "type": "function"
    },
    {
      "inputs": [
        {
          "internalType": "uint256",
          "name": "_orderID",
          "type": "uint256"
        },
        {
          "internalType": "uint256",
          "name": "status",
          "type": "uint256"
        },
        {
          "internalType": "string",
          "name": "reason",
          "type": "string"
        }
      ],
      "name": "changeOrderStatus",
      "outputs": [],
      "stateMutability": "nonpayable",
      "type": "function"
    },
    {
      "inputs": [
        {
          "internalType": "uint256",
          "name": "_orderID",
          "type": "uint256"
        },
        {
          "internalType": "address",
          "name": "_carrierAdress",
          "type": "address"
        }
      ],
      "name": "inviteCarrier",
      "outputs": [],
      "stateMutability": "nonpayable",
      "type": "function"
    },
    {
      "inputs": [
        {
          "internalType": "uint256",
          "name": "_orderID",
          "type": "uint256"
        },
        {
          "internalType": "uint256",
          "name": "_carPlateNumber",
          "type": "uint256"
        },
        {
          "internalType": "string",
          "name": "_companyName",
          "type": "string"
        }
      ],
      "name": "acceptCarrierInvitation",
      "outputs": [],
      "stateMutability": "nonpayable",
      "type": "function"
    },
    {
      "inputs": [],
      "name": "noHarvests",
      "outputs": [
        {
          "internalType": "uint256",
          "name": "",
          "type": "uint256"
        }
      ],
      "stateMutability": "view",
      "type": "function",
      "constant": true
    },
    {
      "inputs": [],
      "name": "noStorage",
      "outputs": [
        {
          "internalType": "uint256",
          "name": "",
          "type": "uint256"
        }
      ],
      "stateMutability": "view",
      "type": "function",
      "constant": true
    },
    {
      "inputs": [],
      "name": "noOrders",
      "outputs": [
        {
          "internalType": "uint256",
          "name": "",
          "type": "uint256"
        }
      ],
      "stateMutability": "view",
      "type": "function",
      "constant": true
    }
  ],
  "bytecode": "0x608060405234801561001057600080fd5b506127cc806100206000396000f3fe608060405234801561001057600080fd5b506004361061010b5760003560e01c8063853505c2116100a2578063b5836c2111610071578063b5836c21146102be578063b789bf52146102dc578063e4718aab146102fa578063ebd4f77d14610316578063ed65b3eb146103325761010b565b8063853505c21461022f578063902df5ae1461024d578063a88bedc414610269578063a9d0980a146102a05761010b565b8063514fcac7116100de578063514fcac71461019e57806359191b3f146101ba5780636208495b146101f55780637fbce787146102115761010b565b80630ee69e73146101105780631bd908a91461012c5780632142ca40146101485780634b12e74714610164575b600080fd5b61012a600480360381019061012591906119fd565b610350565b005b61014660048036038101906101419190611933565b6105fd565b005b610162600480360381019061015d91906118cc565b610738565b005b61017e60048036038101906101799190611867565b610907565b6040516101959b9a99989796959493929190611f18565b60405180910390f35b6101b860048036038101906101b39190611867565b610b37565b005b6101d460048036038101906101cf9190611867565b610c66565b6040516101ec9c9b9a9998979695949392919061208d565b60405180910390f35b61020f600480360381019061020a9190611744565b610e24565b005b610219611008565b6040516102269190611efd565b60405180910390f35b61023761100e565b6040516102449190611efd565b60405180910390f35b61026760048036038101906102629190611867565b611014565b005b610283600480360381019061027e9190611867565b6111d3565b604051610297989796959493929190612008565b60405180910390f35b6102a86112a3565b6040516102b59190611efd565b60405180910390f35b6102c66112ad565b6040516102d39190611efd565b60405180910390f35b6102e46112b7565b6040516102f19190611efd565b60405180910390f35b610314600480360381019061030f91906118cc565b6112bd565b005b610330600480360381019061032b9190611890565b611434565b005b61033a611605565b6040516103479190611efd565b60405180910390f35b6040518061018001604052808781526020018681526020018581526020018481526020018381526020013373ffffffffffffffffffffffffffffffffffffffff168152602001828152602001604051806080016040528060405180602001604052806000815250815260200160008152602001600073ffffffffffffffffffffffffffffffffffffffff1681526020016000151581525081526020016000151581526020016000151581526020016000815260200160001515815250600460006005548152602001908152602001600020600082015181600001556020820151816001015560408201518160020155606082015181600301556080820151816004015560a08201518160050160006101000a81548173ffffffffffffffffffffffffffffffffffffffff021916908373ffffffffffffffffffffffffffffffffffffffff16021790555060c0820151816006015560e08201518160070160008201518160000190805190602001906104c992919061160f565b506020820151816001015560408201518160020160006101000a81548173ffffffffffffffffffffffffffffffffffffffff021916908373ffffffffffffffffffffffffffffffffffffffff16021790555060608201518160020160146101000a81548160ff021916908315150217905550505061010082015181600a0160006101000a81548160ff02191690831515021790555061012082015181600a0160016101000a81548160ff02191690831515021790555061014082015181600b015561016082015181600c0160006101000a81548160ff0219169083151502179055509050506005547facd7be4ba3cd13daef42e2a9427864d9a9e81dd09fe25d5a46bacbc7bd095d0960405160405180910390a2600560008154809291906105f0906122d0565b9190505550505050505050565b60006040518061010001604052808a8152602001898152602001888152602001878152602001868152602001858152602001848152602001838152509050806002600060035481526020019081526020016000206000820151816000015560208201518160010155604082015181600201908051906020019061068192919061160f565b50606082015181600301556080820151816004015560a0820151816005015560c0820151816006015560e082015181600701559050506003547f448b883c57f00c96b9043903a94730121a2b3a27b573df54ca5d940ed829bb3c60405160405180910390a2600360008154809291906106f9906122d0565b91905055506003547f49c8df757c5abba4386b3a9456d4e6d05af341cc29caf06939a2771da919f0b960405160405180910390a2505050505050505050565b3373ffffffffffffffffffffffffffffffffffffffff166004600085815260200190815260200160002060070160020160009054906101000a900473ffffffffffffffffffffffffffffffffffffffff1673ffffffffffffffffffffffffffffffffffffffff16146107df576040517f08c379a00000000000000000000000000000000000000000000000000000000081526004016107d690611e7d565b60405180910390fd5b600015156004600085815260200190815260200160002060070160020160149054906101000a900460ff1615151461084c576040517f08c379a000000000000000000000000000000000000000000000000000000000815260040161084390611e5d565b60405180910390fd5b60016004600085815260200190815260200160002060070160020160146101000a81548160ff021916908315150217905550816004600085815260200190815260200160002060070160010181905550806004600085815260200190815260200160002060070160000190805190602001906108c992919061160f565b50827f44827ea87a822ce60b1784366833a28c64ea1d2322e266c38d75f3152be9d233336040516108fa9190611d82565b60405180910390a2505050565b60006020528060005260406000206000915090508060000154908060010160009054906101000a900473ffffffffffffffffffffffffffffffffffffffff16908060020180546109569061226d565b80601f01602080910402602001604051908101604052809291908181526020018280546109829061226d565b80156109cf5780601f106109a4576101008083540402835291602001916109cf565b820191906000526020600020905b8154815290600101906020018083116109b257829003601f168201915b5050505050908060030154908060040180546109ea9061226d565b80601f0160208091040260200160405190810160405280929190818152602001828054610a169061226d565b8015610a635780601f10610a3857610100808354040283529160200191610a63565b820191906000526020600020905b815481529060010190602001808311610a4657829003601f168201915b50505050509080600501549080600601549080600701549080600801549080600901549080600a01604051806040016040529081600082018054610aa69061226d565b80601f0160208091040260200160405190810160405280929190818152602001828054610ad29061226d565b8015610b1f5780601f10610af457610100808354040283529160200191610b1f565b820191906000526020600020905b815481529060010190602001808311610b0257829003601f168201915b5050505050815260200160018201548152505090508b565b3373ffffffffffffffffffffffffffffffffffffffff166004600083815260200190815260200160002060050160009054906101000a900473ffffffffffffffffffffffffffffffffffffffff1673ffffffffffffffffffffffffffffffffffffffff1614610bdb576040517f08c379a0000000000000000000000000000000000000000000000000000000008152600401610bd290611d9d565b60405180910390fd5b600060046000838152602001908152602001600020600b015414610c34576040517f08c379a0000000000000000000000000000000000000000000000000000000008152600401610c2b90611edd565b60405180910390fd5b600160046000838152602001908152602001600020600c0160006101000a81548160ff02191690831515021790555050565b60046020528060005260406000206000915090508060000154908060010154908060020154908060030154908060040154908060050160009054906101000a900473ffffffffffffffffffffffffffffffffffffffff169080600601549080600701604051806080016040529081600082018054610ce39061226d565b80601f0160208091040260200160405190810160405280929190818152602001828054610d0f9061226d565b8015610d5c5780601f10610d3157610100808354040283529160200191610d5c565b820191906000526020600020905b815481529060010190602001808311610d3f57829003601f168201915b50505050508152602001600182015481526020016002820160009054906101000a900473ffffffffffffffffffffffffffffffffffffffff1673ffffffffffffffffffffffffffffffffffffffff1673ffffffffffffffffffffffffffffffffffffffff1681526020016002820160149054906101000a900460ff1615151515815250509080600a0160009054906101000a900460ff169080600a0160019054906101000a900460ff169080600b01549080600c0160009054906101000a900460ff1690508c565b600060405180610160016040528060015481526020013373ffffffffffffffffffffffffffffffffffffffff1681526020018c81526020018b81526020018a815260200189815260200188815260200187815260200186815260200185815260200160405180604001604052808681526020018581525081525090508060008060015481526020019081526020016000206000820151816000015560208201518160010160006101000a81548173ffffffffffffffffffffffffffffffffffffffff021916908373ffffffffffffffffffffffffffffffffffffffff1602179055506040820151816002019080519060200190610f2292919061160f565b50606082015181600301556080820151816004019080519060200190610f4992919061160f565b5060a0820151816005015560c0820151816006015560e082015181600701556101008201518160080155610120820151816009015561014082015181600a016000820151816000019080519060200190610fa492919061160f565b506020820151816001015550509050506001547f448b883c57f00c96b9043903a94730121a2b3a27b573df54ca5d940ed829bb3c60405160405180910390a260016000815480929190610ff6906122d0565b91905055505050505050505050505050565b60035481565b60015481565b6004600082815260200190815260200160002060050160009054906101000a900473ffffffffffffffffffffffffffffffffffffffff1673ffffffffffffffffffffffffffffffffffffffff163373ffffffffffffffffffffffffffffffffffffffff16146110b8576040517f08c379a00000000000000000000000000000000000000000000000000000000081526004016110af90611e9d565b60405180910390fd5b600060046000838152602001908152602001600020600b015414611111576040517f08c379a000000000000000000000000000000000000000000000000000000000815260040161110890611ebd565b60405180910390fd5b60046000828152602001908152602001600020600c0160009054906101000a900460ff16611174576040517f08c379a000000000000000000000000000000000000000000000000000000000815260040161116b90611dfd565b60405180910390fd5b600160046000838152602001908152602001600020600a0160016101000a81548160ff021916908315150217905550807f06046719ceed3ea8f160401f9d40e3099fc5f5bf3711f0fcfc0bf35da465a90560405160405180910390a250565b60026020528060005260406000206000915090508060000154908060010154908060020180546112029061226d565b80601f016020809104026020016040519081016040528092919081815260200182805461122e9061226d565b801561127b5780601f106112505761010080835404028352916020019161127b565b820191906000526020600020905b81548152906001019060200180831161125e57829003601f168201915b5050505050908060030154908060040154908060050154908060060154908060070154905088565b6000600354905090565b6000600554905090565b60055481565b6000806004600086815260200190815260200160002060010154815260200190815260200160002060010160009054906101000a900473ffffffffffffffffffffffffffffffffffffffff1673ffffffffffffffffffffffffffffffffffffffff163373ffffffffffffffffffffffffffffffffffffffff1614611376576040517f08c379a000000000000000000000000000000000000000000000000000000000815260040161136d90611e3d565b60405180910390fd5b60046000848152602001908152602001600020600a0160019054906101000a900460ff16156113da576040517f08c379a00000000000000000000000000000000000000000000000000000000081526004016113d190611dbd565b60405180910390fd5b8160046000858152602001908152602001600020600b0181905550827f6b004611adb03cf13c80da193e4e56270cf004d2b2e2c917179cb052ebb3edc88383604051611427929190611fd8565b60405180910390a2505050565b6004600083815260200190815260200160002060050160009054906101000a900473ffffffffffffffffffffffffffffffffffffffff1673ffffffffffffffffffffffffffffffffffffffff163373ffffffffffffffffffffffffffffffffffffffff16146114d8576040517f08c379a00000000000000000000000000000000000000000000000000000000081526004016114cf90611e1d565b60405180910390fd5b6000151560046000848152602001908152602001600020600a0160009054906101000a900460ff16151514611542576040517f08c379a000000000000000000000000000000000000000000000000000000000815260040161153990611ddd565b60405180910390fd5b600160046000848152602001908152602001600020600a0160006101000a81548160ff021916908315150217905550806004600084815260200190815260200160002060070160020160006101000a81548173ffffffffffffffffffffffffffffffffffffffff021916908373ffffffffffffffffffffffffffffffffffffffff160217905550817f4d5acc54988da1c2d9f2d5286f110ad7a0090c968b9559d07ffb0e710e8f6492826040516115f99190611d82565b60405180910390a25050565b6000600154905090565b82805461161b9061226d565b90600052602060002090601f01602090048101928261163d5760008555611684565b82601f1061165657805160ff1916838001178555611684565b82800160010185558215611684579182015b82811115611683578251825591602001919060010190611668565b5b5090506116919190611695565b5090565b5b808211156116ae576000816000905550600101611696565b5090565b60006116c56116c084612173565b61214e565b9050828152602081018484840111156116dd57600080fd5b6116e884828561222b565b509392505050565b6000813590506116ff81612768565b92915050565b600082601f83011261171657600080fd5b81356117268482602086016116b2565b91505092915050565b60008135905061173e8161277f565b92915050565b6000806000806000806000806000806101408b8d03121561176457600080fd5b60008b013567ffffffffffffffff81111561177e57600080fd5b61178a8d828e01611705565b9a5050602061179b8d828e0161172f565b99505060408b013567ffffffffffffffff8111156117b857600080fd5b6117c48d828e01611705565b98505060606117d58d828e0161172f565b97505060806117e68d828e0161172f565b96505060a06117f78d828e0161172f565b95505060c06118088d828e0161172f565b94505060e06118198d828e0161172f565b9350506101008b013567ffffffffffffffff81111561183757600080fd5b6118438d828e01611705565b9250506101206118558d828e0161172f565b9150509295989b9194979a5092959850565b60006020828403121561187957600080fd5b60006118878482850161172f565b91505092915050565b600080604083850312156118a357600080fd5b60006118b18582860161172f565b92505060206118c2858286016116f0565b9150509250929050565b6000806000606084860312156118e157600080fd5b60006118ef8682870161172f565b93505060206119008682870161172f565b925050604084013567ffffffffffffffff81111561191d57600080fd5b61192986828701611705565b9150509250925092565b600080600080600080600080610100898b03121561195057600080fd5b600061195e8b828c0161172f565b985050602061196f8b828c0161172f565b975050604089013567ffffffffffffffff81111561198c57600080fd5b6119988b828c01611705565b96505060606119a98b828c0161172f565b95505060806119ba8b828c0161172f565b94505060a06119cb8b828c0161172f565b93505060c06119dc8b828c0161172f565b92505060e06119ed8b828c0161172f565b9150509295985092959890939650565b60008060008060008060c08789031215611a1657600080fd5b6000611a2489828a0161172f565b9650506020611a3589828a0161172f565b9550506040611a4689828a0161172f565b9450506060611a5789828a0161172f565b9350506080611a6889828a0161172f565b92505060a0611a7989828a0161172f565b9150509295509295509295565b611a8f816121e3565b82525050565b611a9e816121d1565b82525050565b611aad816121d1565b82525050565b611abc816121f5565b82525050565b611acb816121f5565b82525050565b6000611adc826121a4565b611ae681856121af565b9350611af681856020860161223a565b611aff816123a6565b840191505092915050565b6000611b15826121a4565b611b1f81856121c0565b9350611b2f81856020860161223a565b611b38816123a6565b840191505092915050565b6000611b506026836121c0565b9150611b5b826123b7565b604082019050919050565b6000611b736047836121c0565b9150611b7e82612406565b606082019050919050565b6000611b966017836121c0565b9150611ba18261247b565b602082019050919050565b6000611bb96036836121c0565b9150611bc4826124a4565b604082019050919050565b6000611bdc6029836121c0565b9150611be7826124f3565b604082019050919050565b6000611bff602f836121c0565b9150611c0a82612542565b604082019050919050565b6000611c226023836121c0565b9150611c2d82612591565b604082019050919050565b6000611c456048836121c0565b9150611c50826125e0565b606082019050919050565b6000611c686030836121c0565b9150611c7382612655565b604082019050919050565b6000611c8b6042836121c0565b9150611c96826126a4565b606082019050919050565b6000611cae6035836121c0565b9150611cb982612719565b604082019050919050565b60006080830160008301518482036000860152611ce18282611ad1565b9150506020830151611cf66020860182611d64565b506040830151611d096040860182611a95565b506060830151611d1c6060860182611ab3565b508091505092915050565b60006040830160008301518482036000860152611d448282611ad1565b9150506020830151611d596020860182611d64565b508091505092915050565b611d6d81612221565b82525050565b611d7c81612221565b82525050565b6000602082019050611d976000830184611aa4565b92915050565b60006020820190508181036000830152611db681611b43565b9050919050565b60006020820190508181036000830152611dd681611b66565b9050919050565b60006020820190508181036000830152611df681611b89565b9050919050565b60006020820190508181036000830152611e1681611bac565b9050919050565b60006020820190508181036000830152611e3681611bcf565b9050919050565b60006020820190508181036000830152611e5681611bf2565b9050919050565b60006020820190508181036000830152611e7681611c15565b9050919050565b60006020820190508181036000830152611e9681611c38565b9050919050565b60006020820190508181036000830152611eb681611c5b565b9050919050565b60006020820190508181036000830152611ed681611c7e565b9050919050565b60006020820190508181036000830152611ef681611ca1565b9050919050565b6000602082019050611f126000830184611d73565b92915050565b600061016082019050611f2e600083018e611d73565b611f3b602083018d611a86565b8181036040830152611f4d818c611b0a565b9050611f5c606083018b611d73565b8181036080830152611f6e818a611b0a565b9050611f7d60a0830189611d73565b611f8a60c0830188611d73565b611f9760e0830187611d73565b611fa5610100830186611d73565b611fb3610120830185611d73565b818103610140830152611fc68184611d27565b90509c9b505050505050505050505050565b6000604082019050611fed6000830185611d73565b8181036020830152611fff8184611b0a565b90509392505050565b60006101008201905061201e600083018b611d73565b61202b602083018a611d73565b818103604083015261203d8189611b0a565b905061204c6060830188611d73565b6120596080830187611d73565b61206660a0830186611d73565b61207360c0830185611d73565b61208060e0830184611d73565b9998505050505050505050565b6000610180820190506120a3600083018f611d73565b6120b0602083018e611d73565b6120bd604083018d611d73565b6120ca606083018c611d73565b6120d7608083018b611d73565b6120e460a083018a611aa4565b6120f160c0830189611d73565b81810360e08301526121038188611cc4565b9050612113610100830187611ac2565b612121610120830186611ac2565b61212f610140830185611d73565b61213d610160830184611ac2565b9d9c50505050505050505050505050565b6000612158612169565b9050612164828261229f565b919050565b6000604051905090565b600067ffffffffffffffff82111561218e5761218d612377565b5b612197826123a6565b9050602081019050919050565b600081519050919050565b600082825260208201905092915050565b600082825260208201905092915050565b60006121dc82612201565b9050919050565b60006121ee82612201565b9050919050565b60008115159050919050565b600073ffffffffffffffffffffffffffffffffffffffff82169050919050565b6000819050919050565b82818337600083830152505050565b60005b8381101561225857808201518184015260208101905061223d565b83811115612267576000848401525b50505050565b6000600282049050600182168061228557607f821691505b6020821081141561229957612298612348565b5b50919050565b6122a8826123a6565b810181811067ffffffffffffffff821117156122c7576122c6612377565b5b80604052505050565b60006122db82612221565b91507fffffffffffffffffffffffffffffffffffffffffffffffffffffffffffffffff82141561230e5761230d612319565b5b600182019050919050565b7f4e487b7100000000000000000000000000000000000000000000000000000000600052601160045260246000fd5b7f4e487b7100000000000000000000000000000000000000000000000000000000600052602260045260246000fd5b7f4e487b7100000000000000000000000000000000000000000000000000000000600052604160045260246000fd5b6000601f19601f8301169050919050565b7f596f7520617265206e6f7420617574686f72697a656420746f2061646a75737460008201527f206f726465720000000000000000000000000000000000000000000000000000602082015250565b7f596f752063616e2774206368616e67652074686520737461747573206f66207460008201527f6865206f726465722061667465722067657474696e67206d61726b656420636f60208201527f6d706c6574656400000000000000000000000000000000000000000000000000604082015250565b7f4361727269657220416c726561647920496e7669746564000000000000000000600082015250565b7f596f752063616e277420736574206f7264657220636f6d706c657465642c205960008201527f6f7572206f726465722069732063616e63656c6c656400000000000000000000602082015250565b7f596f7520617265206e6f7420617574686f72697a656420746f20696e7669746560008201527f2063617272696572730000000000000000000000000000000000000000000000602082015250565b7f596f7520617265206e6f7420617574686f72697a656420746f20736574206f7260008201527f6465722061732061636365707465640000000000000000000000000000000000602082015250565b7f596f7520616c72656164792061636365707465642074686520696e766974617460008201527f696f6e0000000000000000000000000000000000000000000000000000000000602082015250565b7f596f752063616e277420616363657074207468697320696e7669746174696f6e60008201527f2c20596f7520646f206e6f74206861766520616e792061637469766520696e7660208201527f69746174696f6e73000000000000000000000000000000000000000000000000604082015250565b7f596f7520617265206e6f7420617574686f72697a656420746f20736574206f7260008201527f64657220617320636f6d706c6574656400000000000000000000000000000000602082015250565b7f596f752063616e27742061646a757374206f726465727320746861742061726560008201527f206e6f742061636365707465642c20436f6e7461637420796f7572206661726d60208201527f6572000000000000000000000000000000000000000000000000000000000000604082015250565b7f596f752063616e27742063616e63656c206163636570746564206f726465727360008201527f2c20436f6e7461637420796f7572206661726d65720000000000000000000000602082015250565b612771816121d1565b811461277c57600080fd5b50565b61278881612221565b811461279357600080fd5b5056fea26469706673582212203bdc1305573a53e30572ab79080d060163ea357ded02c9304994e7e823544fe964736f6c63430008010033",
  "immutableReferences": {},
  "source": "// SPDX-License-Identifier: MIT\r\n\r\npragma solidity ^0.8.1;\r\n\r\ncontract Product {\r\n\r\n    //Creating the reference data for harvest of produce\r\n    struct harvestProduce {\r\n        uint            productID;\r\n        address payable farmerAddress;\r\n        string          photoHash;\r\n        uint            harvestCaptureTime;\r\n        string          cropName;\r\n        uint            PHLevel;\r\n        uint            ECLevel;\r\n        uint            waterLevel;\r\n        uint            harvestDate;\r\n        uint            estimatedMonthlyVolume;\r\n        chemical        usedChemicals;\r\n    }\r\n\r\n    //Creating the reference data for chemical used in harvestProduce\r\n    struct chemical {\r\n        string  chemical;\r\n        uint chemicalsDate; \r\n    }\r\n\r\n    //Creating the reference data for storage of produce\r\n    struct storageProduce {\r\n        uint    quantity;\r\n        uint    storageCaptureTime;\r\n        string  hashID;\r\n        uint    weight;\r\n        uint    price;\r\n        uint    packingTimeStamp;\r\n        uint    packingDate; \r\n        uint    expiryDate;\r\n    }\r\n\r\n    //Creating the reference data for order\r\n    struct order {\r\n        uint    orderID;\r\n        uint    productID;\r\n        uint    quantity;\r\n        uint    totalPrice;\r\n        uint    distributorID;\r\n        address distributorAddress;\r\n        uint    farmerID;\r\n        Carrier carrier;\r\n        bool    IsCarrierInvtied;\r\n        bool    isCompleted;\r\n        uint    isAccepted; // 0 = pending / 1 = accepted / 2 = rejected\r\n        bool    isCancelled;\r\n    }\r\n    // Need Implementation\r\n    struct Carrier {\r\n        string  companyName;\r\n        uint    carPlateNumber;\r\n        address    carrierAddress;\r\n        bool       invitationAccepted;\r\n    }\r\n\r\n\r\n    event registeredHarvestEvent (\r\n        uint indexed _harvestID\r\n    );\r\n\r\n    event registeredStorageEvent (\r\n        uint indexed _storageID\r\n    );\r\n\r\n    event newOrderEvent (\r\n        uint indexed _orderID\r\n    );\r\n\r\n    event orderAcceptedEvent (\r\n        uint indexed _orderID,\r\n        uint orderStatus,\r\n        string notes\r\n    );\r\n\r\n    event orderCompetedEvent (\r\n        uint indexed _orderID\r\n    );\r\n\r\n    event CarrierInvitation (\r\n        uint indexed _orderID,\r\n        address carrierAddress\r\n    );\r\n\r\n    event CarrierInvitationAccepted (\r\n        uint indexed _orderID,\r\n        address carrierAddress\r\n    );\r\n\r\n\r\n    //mapping of all the produce harvested\r\n    mapping(uint => harvestProduce) public harvestMapping;\r\n    uint public  harvestCounter;\r\n\r\n    //mapping of all the produce storage\r\n    mapping(uint => storageProduce) public storageMapping;\r\n    uint public storageCounter;\r\n\r\n    mapping(uint => order) public ordersMapping;\r\n    uint public orderCounter;\r\n\r\n    \r\n\r\n    //Registering a harvest instance\r\n    function registerHarvest(string memory _photoHash,\r\n                             uint _harvestCaptureTime,\r\n                             string memory _cropName,\r\n                             uint _PHLevel,\r\n                             uint _ECLevel,\r\n                             uint _waterLevel,\r\n                             uint _harvestDate,\r\n                             uint _estimatedMonthlyVolume,\r\n                             string memory chemicalName,\r\n                             uint chemicalDate\r\n                             ) public {\r\n\r\n\r\n        harvestProduce memory tmp = harvestProduce(harvestCounter,payable(msg.sender),_photoHash, _harvestCaptureTime,_cropName,_PHLevel,_ECLevel, _waterLevel,_harvestDate, _estimatedMonthlyVolume,chemical(chemicalName,chemicalDate));\r\n        \r\n        harvestMapping[harvestCounter] = tmp;\r\n        emit registeredHarvestEvent(harvestCounter);\r\n        harvestCounter++;\r\n    }\r\n\r\n    //Registering a storage instance\r\n    function registerStorage(uint _quantity,\r\n                             uint  storageCaptureTime,\r\n                             string memory  _hashID,\r\n                             uint _weight,\r\n                             uint _price,\r\n                             uint _packingTimeStamp,\r\n                             uint _packingDate,\r\n                             uint _expiryDate\r\n                            ) public {\r\n        \r\n        storageProduce memory tmp = storageProduce(_quantity,storageCaptureTime,_hashID, _weight,_price,_packingTimeStamp,_packingDate, _expiryDate);\r\n        storageMapping[storageCounter] = tmp;\r\n        emit registeredHarvestEvent(storageCounter);\r\n        storageCounter++;\r\n        // trigger registeredStorage event\r\n        emit registeredStorageEvent(storageCounter);\r\n    }\r\n\r\n    // Placing order by the distributor\r\n    function placeOrder(uint _orderID,uint _productID,uint _quantity,uint _totalPrice,uint _distributorID, uint _farmerID) public{\r\n\r\n        // set order isCompleted to false by defualt, \r\n        //where there will be another function to mark order as completed from both parties farmer and distributor\r\n        ordersMapping[orderCounter] = order( _orderID, _productID, _quantity, _totalPrice, _distributorID,msg.sender,  _farmerID,Carrier(\"\",0,address(0x0),false), false,false,0,false);\r\n        emit newOrderEvent(orderCounter);\r\n        orderCounter++;\r\n    }\r\n\r\n    // Function for the distributor to be able to adjust qunantiy or price after getting rejected from farmer\r\n\r\n    // function adjustOrder(uint _orderID,uint _quantity,uint _totalPrice) public {\r\n    //     require(ordersMapping[_orderID].distributorAddress == msg.sender, \"You are not authorized to adjust order\");\r\n    //     require(!ordersMapping[_orderID].isAccepted, \"You can't adjust accepted orders, Contact your farmer\");\r\n    //     require(ordersMapping[_orderID].isCancelled, \"You can't adjust accepted orders, Your order is cancelled\");\r\n\r\n    //     ordersMapping[_orderID].quantity = _quantity;\r\n    //     ordersMapping[_orderID].totalPrice = _totalPrice;\r\n\r\n    // }\r\n    // Function foir the disturbutor to able to cancel the order before it get accepted by the farmer while it's pending\r\n    function cancelOrder(uint _orderID) public {\r\n    require(ordersMapping[_orderID].distributorAddress == msg.sender, \"You are not authorized to adjust order\");\r\n\r\n    require(ordersMapping[_orderID].isAccepted == 0, \"You can't cancel accepted orders, Contact your farmer\");\r\n\r\n    ordersMapping[_orderID].isCancelled = true;\r\n    }\r\n\r\n    // Set order as complete by distributor and check if the transaction came from distributor address\r\n    function setOrderCompleted(uint _orderID) public {\r\n        require(msg.sender == ordersMapping[_orderID].distributorAddress, \"You are not authorized to set order as completed\");\r\n        require(ordersMapping[_orderID].isAccepted == 0, \"You can't adjust orders that are not accepted, Contact your farmer\");\r\n        require(ordersMapping[_orderID].isCancelled, \"You can't set order completed, Your order is cancelled\");\r\n\r\n\r\n        ordersMapping[_orderID].isCompleted = true;\r\n        emit orderCompetedEvent(_orderID);\r\n\r\n    }\r\n\r\n    // Set order as accepted by farmer and check if the transaction came from farmer address\r\n    function changeOrderStatus(uint _orderID, uint status, string memory reason) public {\r\n        require(msg.sender == harvestMapping[ordersMapping[_orderID].productID].farmerAddress, \"You are not authorized to set order as accepted\");\r\n        require(!ordersMapping[_orderID].isCompleted, \"You can't change the status of the order after getting marked completed\");\r\n        ordersMapping[_orderID].isAccepted = status;\r\n        emit orderAcceptedEvent(_orderID, status, reason);\r\n\r\n    }\r\n\r\n    function inviteCarrier(uint _orderID, address _carrierAdress) public {\r\n        require(msg.sender == ordersMapping[_orderID].distributorAddress, \"You are not authorized to invite carriers\");\r\n        require(ordersMapping[_orderID].IsCarrierInvtied == false, \"Carrier Already Invited\");\r\n\r\n        ordersMapping[_orderID].IsCarrierInvtied = true;\r\n        ordersMapping[_orderID].carrier.carrierAddress = _carrierAdress;\r\n\r\n        emit CarrierInvitation(_orderID, _carrierAdress);\r\n\r\n    }\r\n\r\n    function acceptCarrierInvitation(uint _orderID, uint _carPlateNumber, string memory _companyName) public {\r\n        require(ordersMapping[_orderID].carrier.carrierAddress == msg.sender, \"You can't accept this invitation, You do not have any active invitations\");\r\n        require(ordersMapping[_orderID].carrier.invitationAccepted == false, \"You already accepted the invitation\");\r\n\r\n\r\n        ordersMapping[_orderID].carrier.invitationAccepted = true;\r\n        ordersMapping[_orderID].carrier.carPlateNumber = _carPlateNumber;\r\n        ordersMapping[_orderID].carrier.companyName = _companyName;\r\n\r\n        emit CarrierInvitationAccepted(_orderID, msg.sender);\r\n    }\r\n\r\n    //Checks the number of harvests in the harvestMapping\r\n    function noHarvests() public view returns (uint){\r\n        return harvestCounter;\r\n    }\r\n    //Checks the number of produce in the storageMapping\r\n    function noStorage() public view returns (uint){\r\n        return storageCounter;\r\n    }\r\n    // Check the number of orders in ordersMapping\r\n    function noOrders() public view returns (uint) {\r\n        return orderCounter;\r\n    }\r\n}",
  "sourcePath": "C:\\Users\\user\\OneDrive\\Desktop\\supplychain-blockchain\\supplychain-wtihUI2\\Truffle\\contracts\\Product.sol",
  "compiler": {
    "name": "solc",
    "version": "0.8.1+commit.df193b15.Emscripten.clang"
  },
  "schemaVersion": "3.4.6",
  "updatedAt": "2022-05-27T11:56:46.173Z",
  "networkType": "ethereum",
  "devdoc": {
    "kind": "dev",
    "methods": {},
    "version": 1
  },
  "userdoc": {
    "kind": "user",
    "methods": {},
    "version": 1
  }
}